{"abi":[{"type":"constructor","inputs":[{"name":"superGovernor_","type":"address","internalType":"address"},{"name":"name_","type":"string","internalType":"string"},{"name":"version_","type":"string","internalType":"string"}],"stateMutability":"nonpayable"},{"type":"function","name":"SUPER_GOVERNOR","inputs":[],"outputs":[{"name":"","type":"address","internalType":"contract ISuperGovernor"}],"stateMutability":"view"},{"type":"function","name":"UPDATE_PPS_TYPEHASH","inputs":[],"outputs":[{"name":"","type":"bytes32","internalType":"bytes32"}],"stateMutability":"view"},{"type":"function","name":"batchUpdatePPS","inputs":[{"name":"args","type":"tuple","internalType":"struct IECDSAPPSOracle.BatchUpdatePPSArgs","components":[{"name":"strategies","type":"address[]","internalType":"address[]"},{"name":"proofsArray","type":"bytes[][]","internalType":"bytes[][]"},{"name":"ppss","type":"uint256[]","internalType":"uint256[]"},{"name":"ppsStdevs","type":"uint256[]","internalType":"uint256[]"},{"name":"validatorSets","type":"uint256[]","internalType":"uint256[]"},{"name":"totalValidators","type":"uint256[]","internalType":"uint256[]"},{"name":"timestamps","type":"uint256[]","internalType":"uint256[]"}]}],"outputs":[],"stateMutability":"nonpayable"},{"type":"function","name":"domainSeparator","inputs":[],"outputs":[{"name":"","type":"bytes32","internalType":"bytes32"}],"stateMutability":"view"},{"type":"function","name":"eip712Domain","inputs":[],"outputs":[{"name":"fields","type":"bytes1","internalType":"bytes1"},{"name":"name","type":"string","internalType":"string"},{"name":"version","type":"string","internalType":"string"},{"name":"chainId","type":"uint256","internalType":"uint256"},{"name":"verifyingContract","type":"address","internalType":"address"},{"name":"salt","type":"bytes32","internalType":"bytes32"},{"name":"extensions","type":"uint256[]","internalType":"uint256[]"}],"stateMutability":"view"},{"type":"function","name":"nonce","inputs":[],"outputs":[{"name":"","type":"uint256","internalType":"uint256"}],"stateMutability":"view"},{"type":"function","name":"updatePPS","inputs":[{"name":"args","type":"tuple","internalType":"struct IECDSAPPSOracle.UpdatePPSArgs","components":[{"name":"strategy","type":"address","internalType":"address"},{"name":"proofs","type":"bytes[]","internalType":"bytes[]"},{"name":"pps","type":"uint256","internalType":"uint256"},{"name":"ppsStdev","type":"uint256","internalType":"uint256"},{"name":"validatorSet","type":"uint256","internalType":"uint256"},{"name":"totalValidators","type":"uint256","internalType":"uint256"},{"name":"timestamp","type":"uint256","internalType":"uint256"}]}],"outputs":[],"stateMutability":"nonpayable"},{"type":"event","name":"EIP712DomainChanged","inputs":[],"anonymous":false},{"type":"event","name":"PPSValidated","inputs":[{"name":"strategy","type":"address","indexed":true,"internalType":"address"},{"name":"pps","type":"uint256","indexed":false,"internalType":"uint256"},{"name":"ppsStdev","type":"uint256","indexed":false,"internalType":"uint256"},{"name":"validatorSet","type":"uint256","indexed":false,"internalType":"uint256"},{"name":"totalValidators","type":"uint256","indexed":false,"internalType":"uint256"},{"name":"timestamp","type":"uint256","indexed":false,"internalType":"uint256"},{"name":"sender","type":"address","indexed":true,"internalType":"address"}],"anonymous":false},{"type":"error","name":"ARRAY_LENGTH_MISMATCH","inputs":[]},{"type":"error","name":"ECDSAInvalidSignature","inputs":[]},{"type":"error","name":"ECDSAInvalidSignatureLength","inputs":[{"name":"length","type":"uint256","internalType":"uint256"}]},{"type":"error","name":"ECDSAInvalidSignatureS","inputs":[{"name":"s","type":"bytes32","internalType":"bytes32"}]},{"type":"error","name":"HIGH_PPS_DEVIATION","inputs":[]},{"type":"error","name":"HIGH_PPS_DISPERSION","inputs":[]},{"type":"error","name":"INSUFFICIENT_VALIDATOR_PARTICIPATION","inputs":[]},{"type":"error","name":"INVALID_PROOF","inputs":[]},{"type":"error","name":"INVALID_TIMESTAMP","inputs":[]},{"type":"error","name":"INVALID_TOTAL_VALIDATORS","inputs":[]},{"type":"error","name":"INVALID_VALIDATOR","inputs":[]},{"type":"error","name":"INVALID_VALIDATOR_SET","inputs":[]},{"type":"error","name":"InvalidShortString","inputs":[]},{"type":"error","name":"NOT_ACTIVE_PPS_ORACLE","inputs":[]},{"type":"error","name":"PPS_MISMATCH","inputs":[]},{"type":"error","name":"QUORUM_NOT_MET","inputs":[]},{"type":"error","name":"STRATEGY_MISMATCH","inputs":[]},{"type":"error","name":"StringTooLong","inputs":[{"name":"str","type":"string","internalType":"string"}]},{"type":"error","name":"VALIDATOR_COUNT_MISMATCH","inputs":[]},{"type":"error","name":"ZERO_LENGTH_ARRAY","inputs":[]}],"bytecode":{"object":"0x610180604052348015610010575f5ffd5b50604051611c9e380380611c9e83398101604081905261002f9161022f565b818161003b825f61011a565b6101205261004a81600161011a565b61014052815160208084019190912060e052815190820120610100524660a0526100d660e05161010051604080517f8b73c3c69bb8fe3d512ecc4cf759cc79239f7b179b0ffacaa9a75d522b39400f60208201529081019290925260608201524660808201523060a08201525f9060c00160405160208183030381529060405280519060200120905090565b60805250503060c0526001600160a01b03831661010657604051637dfb4e5160e11b815260040160405180910390fd5b50506001600160a01b031661016052610447565b5f6020835110156101355761012e8361014c565b9050610146565b816101408482610335565b5060ff90505b92915050565b5f5f829050601f8151111561017f578260405163305a27a960e01b815260040161017691906103ef565b60405180910390fd5b805161018a82610424565b179392505050565b634e487b7160e01b5f52604160045260245ffd5b5f82601f8301126101b5575f5ffd5b81516001600160401b038111156101ce576101ce610192565b604051601f8201601f19908116603f011681016001600160401b03811182821017156101fc576101fc610192565b604052818152838201602001851015610213575f5ffd5b8160208501602083015e5f918101602001919091529392505050565b5f5f5f60608486031215610241575f5ffd5b83516001600160a01b0381168114610257575f5ffd5b60208501519093506001600160401b03811115610272575f5ffd5b61027e868287016101a6565b604086015190935090506001600160401b0381111561029b575f5ffd5b6102a7868287016101a6565b9150509250925092565b600181811c908216806102c557607f821691505b6020821081036102e357634e487b7160e01b5f52602260045260245ffd5b50919050565b601f82111561033057805f5260205f20601f840160051c8101602085101561030e5750805b601f840160051c820191505b8181101561032d575f815560010161031a565b50505b505050565b81516001600160401b0381111561034e5761034e610192565b6103628161035c84546102b1565b846102e9565b6020601f821160018114610394575f831561037d5750848201515b5f19600385901b1c1916600184901b17845561032d565b5f84815260208120601f198516915b828110156103c357878501518255602094850194600190920191016103a3565b50848210156103e057868401515f19600387901b60f8161c191681555b50505050600190811b01905550565b602081525f82518060208401528060208501604085015e5f604082850101526040601f19601f83011684010191505092915050565b805160208083015191908110156102e3575f1960209190910360031b1b16919050565b60805160a05160c05160e051610100516101205161014051610160516117d36104cb5f395f818160980152818161028f015281816107cd01528181610a2b01528181610c0601528181610cee0152610d9401525f610e7801525f610e4c01525f610f7701525f610f4f01525f610eaa01525f610ed401525f610efe01526117d35ff3fe608060405234801561000f575f5ffd5b506004361061007a575f3560e01c8063a186752711610058578063a1867527146100f2578063affed0e014610105578063e2c426561461011c578063f698da2514610143575f5ffd5b80632382d9c31461007e57806339c7d2461461009357806384b0196e146100d7575b5f5ffd5b61009161008c366004611316565b61014b565b005b6100ba7f000000000000000000000000000000000000000000000000000000000000000081565b6040516001600160a01b0390911681526020015b60405180910390f35b6100df6103e7565b6040516100ce979695949392919061137e565b610091610100366004611316565b610429565b61010e60025481565b6040519081526020016100ce565b61010e7f11408ac7e44b45c2777f5110184619397a4b35c9b43b7372abf618d802d10af681565b61010e610a08565b61018661015b602083018361142b565b610168602084018461144d565b8460400135856060013586608001358760a001358860c00135610a16565b60028054905f6101958361149a565b909155503390506101a9602083018361142b565b6001600160a01b03167ffbdd9422833aff4d04333f008c0d33063458b4050c51fbd4f1eeb2cea915e9548360400135846060013585608001358660a001358760c0013560405161021b959493929190948552602085019390935260408401919091526060830152608082015260a00190565b60405180910390a36040805161010081019091525f908061023f602085018561142b565b6001600160a01b031681526020015f151581526020018360400135815260200183606001358152602001836080013581526020018360a0013581526020018360c0013581526020015f81525090507f00000000000000000000000000000000000000000000000000000000000000006001600160a01b03166321f8a7217f8e28a5743fae4fd410640cf08d6397e5a9f93fa166f00abff1df87d842b309286040518263ffffffff1660e01b81526004016102fb91815260200190565b602060405180830381865afa158015610316573d5f5f3e3d5ffd5b505050506040513d601f19601f8201168201806040525081019061033a91906114ce565b60408051632a25696560e21b815233600482015283516001600160a01b03908116602483015260208501511515604483015291840151606482015260608401516084820152608084015160a482015260a084015160c482015260c084015160e482015260e084015161010482015291169063a895a59490610124015b5f604051808303815f87803b1580156103cd575f5ffd5b505af11580156103df573d5f5f3e3d5ffd5b505050505050565b5f6060805f5f5f60606103f8610e45565b610400610e71565b604080515f80825260208201909252600f60f81b9b939a50919850469750309650945092509050565b5f610434828061144d565b90509050805f036104585760405163169bfa4760e01b815260040160405180910390fd5b610465602083018361144d565b905081141580610483575061047d604083018361144d565b90508114155b8061049c5750610496606083018361144d565b90508114155b806104b557506104af608083018361144d565b90508114155b806104ce57506104c860c083018361144d565b90508114155b806104e757506104e160a083018361144d565b90508114155b1561050557604051634456f5e960e11b815260040160405180910390fd5b5f5b818110156107835761063561051c848061144d565b8381811061052c5761052c6114fd565b9050602002016020810190610541919061142b565b61054e602086018661144d565b8481811061055e5761055e6114fd565b9050602002810190610570919061144d565b61057d604088018861144d565b8681811061058d5761058d6114fd565b905060200201358780606001906105a4919061144d565b878181106105b4576105b46114fd565b905060200201358880608001906105cb919061144d565b888181106105db576105db6114fd565b90506020020135898060a001906105f2919061144d565b89818110610602576106026114fd565b905060200201358a8060c00190610619919061144d565b8a818110610629576106296114fd565b90506020020135610a16565b33610640848061144d565b83818110610650576106506114fd565b9050602002016020810190610665919061142b565b6001600160a01b03167ffbdd9422833aff4d04333f008c0d33063458b4050c51fbd4f1eeb2cea915e95461069c604087018761144d565b858181106106ac576106ac6114fd565b905060200201358680606001906106c3919061144d565b868181106106d3576106d36114fd565b905060200201358780608001906106ea919061144d565b878181106106fa576106fa6114fd565b90506020020135888060a00190610711919061144d565b88818110610721576107216114fd565b90506020020135898060c00190610738919061144d565b89818110610748576107486114fd565b6040805197885260208881019790975287019490945250606085019190915291020135608082015260a00160405180910390a3600101610507565b5060028054905f6107938361149a565b90915550506040516321f8a72160e01b81527f8e28a5743fae4fd410640cf08d6397e5a9f93fa166f00abff1df87d842b3092860048201527f00000000000000000000000000000000000000000000000000000000000000006001600160a01b0316906321f8a72190602401602060405180830381865afa15801561081a573d5f5f3e3d5ffd5b505050506040513d601f19601f8201168201806040525081019061083e91906114ce565b6001600160a01b0316638e813db56040518060c0016040528085805f0190610866919061144d565b808060200260200160405190810160405280939291908181526020018383602002808284375f920191909152505050908252506020016108a9604087018761144d565b808060200260200160405190810160405280939291908181526020018383602002808284375f920191909152505050908252506020016108ec606087018761144d565b808060200260200160405190810160405280939291908181526020018383602002808284375f9201919091525050509082525060200161092f608087018761144d565b808060200260200160405190810160405280939291908181526020018383602002808284375f9201919091525050509082525060200161097260a087018761144d565b808060200260200160405190810160405280939291908181526020018383602002808284375f920191909152505050908252506020016109b560c087018761144d565b808060200260200160405190810160405280939291908181526020018383602002808284375f9201919091525050509152506040516001600160e01b031960e084901b1681526103b6919060040161154b565b5f610a11610e9e565b905090565b604051637eb787e160e11b81523060048201527f00000000000000000000000000000000000000000000000000000000000000006001600160a01b03169063fd6f0fc290602401602060405180830381865afa158015610a78573d5f5f3e3d5ffd5b505050506040513d601f19601f82011682018060405250810190610a9c919061163c565b610ab957604051630f34a19760e21b815260040160405180910390fd5b600254604080517f11408ac7e44b45c2777f5110184619397a4b35c9b43b7372abf618d802d10af660208201526bffffffffffffffffffffffff1960608c901b169181019190915260548101879052607481018690526094810185905260b4810184905260d4810183905260f48101919091525f90610114016040516020818303038152906040528051906020012090505f610b5482610fc7565b9050875f818103610b785760405163169bfa4760e01b815260040160405180910390fd5b5f5b82811015610cca575f610be4858e8e85818110610b9957610b996114fd565b9050602002810190610bab919061165b565b8080601f0160208091040260200160405190810160405280939291908181526020018383808284375f92019190915250610ff992505050565b60405163facd743b60e01b81526001600160a01b0380831660048301529192507f00000000000000000000000000000000000000000000000000000000000000009091169063facd743b90602401602060405180830381865afa158015610c4d573d5f5f3e3d5ffd5b505050506040513d601f19601f82011682018060405250810190610c71919061163c565b610c8e57604051637dfb4e5160e11b815260040160405180910390fd5b826001600160a01b0316816001600160a01b031611610cc05760405163712eb08760e01b815260040160405180910390fd5b9150600101610b7a565b50818714610ceb576040516314ca47a360e11b815260040160405180910390fd5b5f7f00000000000000000000000000000000000000000000000000000000000000006001600160a01b031663b7ab4db56040518163ffffffff1660e01b81526004015f60405180830381865afa158015610d47573d5f5f3e3d5ffd5b505050506040513d5f823e601f3d908101601f19168201604052610d6e919081019061169e565b519050808714610d91576040516347673d2d60e11b815260040160405180910390fd5b5f7f00000000000000000000000000000000000000000000000000000000000000006001600160a01b031663df6aaf966040518163ffffffff1660e01b8152600401602060405180830381865afa158015610dee573d5f5f3e3d5ffd5b505050506040513d601f19601f82011682018060405250810190610e129190611769565b905080841015610e35576040516302ad648360e51b815260040160405180910390fd5b5050505050505050505050505050565b6060610a117f00000000000000000000000000000000000000000000000000000000000000005f611021565b6060610a117f00000000000000000000000000000000000000000000000000000000000000006001611021565b5f306001600160a01b037f000000000000000000000000000000000000000000000000000000000000000016148015610ef657507f000000000000000000000000000000000000000000000000000000000000000046145b15610f2057507f000000000000000000000000000000000000000000000000000000000000000090565b610a11604080517f8b73c3c69bb8fe3d512ecc4cf759cc79239f7b179b0ffacaa9a75d522b39400f60208201527f0000000000000000000000000000000000000000000000000000000000000000918101919091527f000000000000000000000000000000000000000000000000000000000000000060608201524660808201523060a08201525f9060c00160405160208183030381529060405280519060200120905090565b5f610ff3610fd3610e9e565b8360405161190160f01b8152600281019290925260228201526042902090565b92915050565b5f5f5f5f61100786866110ca565b9250925092506110178282611113565b5090949350505050565b606060ff831461103b57611034836111d4565b9050610ff3565b81805461104790611780565b80601f016020809104026020016040519081016040528092919081815260200182805461107390611780565b80156110be5780601f10611095576101008083540402835291602001916110be565b820191905f5260205f20905b8154815290600101906020018083116110a157829003601f168201915b50505050509050610ff3565b5f5f5f8351604103611101576020840151604085015160608601515f1a6110f388828585611211565b95509550955050505061110c565b505081515f91506002905b9250925092565b5f826003811115611126576111266117b2565b0361112f575050565b6001826003811115611143576111436117b2565b036111615760405163f645eedf60e01b815260040160405180910390fd5b6002826003811115611175576111756117b2565b0361119b5760405163fce698f760e01b8152600481018290526024015b60405180910390fd5b60038260038111156111af576111af6117b2565b036111d0576040516335e2f38360e21b815260048101829052602401611192565b5050565b60605f6111e0836112d9565b6040805160208082528183019092529192505f91906020820181803683375050509182525060208101929092525090565b5f80807f7fffffffffffffffffffffffffffffff5d576e7357a4501ddfe92f46681b20a084111561124a57505f915060039050826112cf565b604080515f808252602082018084528a905260ff891692820192909252606081018790526080810186905260019060a0016020604051602081039080840390855afa15801561129b573d5f5f3e3d5ffd5b5050604051601f1901519150506001600160a01b0381166112c657505f9250600191508290506112cf565b92505f91508190505b9450945094915050565b5f60ff8216601f811115610ff357604051632cd44ac360e21b815260040160405180910390fd5b5f60e08284031215611310575f5ffd5b50919050565b5f60208284031215611326575f5ffd5b813567ffffffffffffffff81111561133c575f5ffd5b61134884828501611300565b949350505050565b5f81518084528060208401602086015e5f602082860101526020601f19601f83011685010191505092915050565b60ff60f81b8816815260e060208201525f61139c60e0830189611350565b82810360408401526113ae8189611350565b606084018890526001600160a01b038716608085015260a0840186905283810360c0850152845180825260208087019350909101905f5b818110156114035783518352602093840193909201916001016113e5565b50909b9a5050505050505050505050565b6001600160a01b0381168114611428575f5ffd5b50565b5f6020828403121561143b575f5ffd5b813561144681611414565b9392505050565b5f5f8335601e19843603018112611462575f5ffd5b83018035915067ffffffffffffffff82111561147c575f5ffd5b6020019150600581901b3603821315611493575f5ffd5b9250929050565b5f600182016114b757634e487b7160e01b5f52601160045260245ffd5b5060010190565b80516114c981611414565b919050565b5f602082840312156114de575f5ffd5b815161144681611414565b634e487b7160e01b5f52604160045260245ffd5b634e487b7160e01b5f52603260045260245ffd5b5f8151808452602084019350602083015f5b82811015611541578151865260209586019590910190600101611523565b5093949350505050565b6020808252825160c083830152805160e084018190525f92919091019082906101008501905b8083101561159c5783516001600160a01b031682526020938401936001939093019290910190611571565b506020860151858203601f1901604087015292506115ba8184611511565b925050506040840151601f198483030160608501526115d98282611511565b9150506060840151601f198483030160808501526115f78282611511565b9150506080840151601f198483030160a08501526116158282611511565b91505060a0840151601f198483030160c08501526116338282611511565b95945050505050565b5f6020828403121561164c575f5ffd5b81518015158114611446575f5ffd5b5f5f8335601e19843603018112611670575f5ffd5b83018035915067ffffffffffffffff82111561168a575f5ffd5b602001915036819003821315611493575f5ffd5b5f602082840312156116ae575f5ffd5b815167ffffffffffffffff8111156116c4575f5ffd5b8201601f810184136116d4575f5ffd5b805167ffffffffffffffff8111156116ee576116ee6114e9565b8060051b604051601f19603f830116810181811067ffffffffffffffff8211171561171b5761171b6114e9565b604052918252602081840181019290810187841115611738575f5ffd5b6020850194505b8385101561175e57611750856114be565b81526020948501940161173f565b509695505050505050565b5f60208284031215611779575f5ffd5b5051919050565b600181811c9082168061179457607f821691505b60208210810361131057634e487b7160e01b5f52602260045260245ffd5b634e487b7160e01b5f52602160045260245ffdfea164736f6c634300081e000a","linkReferences":{}},"methodIdentifiers":{"SUPER_GOVERNOR()":"39c7d246","UPDATE_PPS_TYPEHASH()":"e2c42656","batchUpdatePPS((address[],bytes[][],uint256[],uint256[],uint256[],uint256[],uint256[]))":"a1867527","domainSeparator()":"f698da25","eip712Domain()":"84b0196e","nonce()":"affed0e0","updatePPS((address,bytes[],uint256,uint256,uint256,uint256,uint256))":"2382d9c3"},"id":494}