{"abi":[{"type":"constructor","inputs":[{"name":"superGovernor","type":"address","internalType":"address"},{"name":"governor","type":"address","internalType":"address"},{"name":"bankManager","type":"address","internalType":"address"},{"name":"treasury_","type":"address","internalType":"address"},{"name":"prover_","type":"address","internalType":"address"}],"stateMutability":"nonpayable"},{"type":"function","name":"BANK_MANAGER","inputs":[],"outputs":[{"name":"","type":"bytes32","internalType":"bytes32"}],"stateMutability":"view"},{"type":"function","name":"BANK_MANAGER_ROLE","inputs":[],"outputs":[{"name":"","type":"bytes32","internalType":"bytes32"}],"stateMutability":"pure"},{"type":"function","name":"DEFAULT_ADMIN_ROLE","inputs":[],"outputs":[{"name":"","type":"bytes32","internalType":"bytes32"}],"stateMutability":"view"},{"type":"function","name":"ECDSAPPSORACLE","inputs":[],"outputs":[{"name":"","type":"bytes32","internalType":"bytes32"}],"stateMutability":"view"},{"type":"function","name":"GOVERNOR_ROLE","inputs":[],"outputs":[{"name":"","type":"bytes32","internalType":"bytes32"}],"stateMutability":"pure"},{"type":"function","name":"GUARDIAN_ROLE","inputs":[],"outputs":[{"name":"","type":"bytes32","internalType":"bytes32"}],"stateMutability":"pure"},{"type":"function","name":"SUP","inputs":[],"outputs":[{"name":"","type":"bytes32","internalType":"bytes32"}],"stateMutability":"view"},{"type":"function","name":"SUPER_ASSET_FACTORY","inputs":[],"outputs":[{"name":"","type":"bytes32","internalType":"bytes32"}],"stateMutability":"pure"},{"type":"function","name":"SUPER_BANK","inputs":[],"outputs":[{"name":"","type":"bytes32","internalType":"bytes32"}],"stateMutability":"view"},{"type":"function","name":"SUPER_GOVERNOR_ROLE","inputs":[],"outputs":[{"name":"","type":"bytes32","internalType":"bytes32"}],"stateMutability":"pure"},{"type":"function","name":"SUPER_ORACLE","inputs":[],"outputs":[{"name":"","type":"bytes32","internalType":"bytes32"}],"stateMutability":"view"},{"type":"function","name":"SUPER_VAULT_AGGREGATOR","inputs":[],"outputs":[{"name":"","type":"bytes32","internalType":"bytes32"}],"stateMutability":"view"},{"type":"function","name":"TREASURY","inputs":[],"outputs":[{"name":"","type":"bytes32","internalType":"bytes32"}],"stateMutability":"view"},{"type":"function","name":"UP","inputs":[],"outputs":[{"name":"","type":"bytes32","internalType":"bytes32"}],"stateMutability":"view"},{"type":"function","name":"VAULT_BANK","inputs":[],"outputs":[{"name":"","type":"bytes32","internalType":"bytes32"}],"stateMutability":"view"},{"type":"function","name":"addExecutor","inputs":[{"name":"executor","type":"address","internalType":"address"}],"outputs":[],"stateMutability":"nonpayable"},{"type":"function","name":"addICCToWhitelist","inputs":[{"name":"icc","type":"address","internalType":"address"}],"outputs":[],"stateMutability":"nonpayable"},{"type":"function","name":"addRelayer","inputs":[{"name":"relayer","type":"address","internalType":"address"}],"outputs":[],"stateMutability":"nonpayable"},{"type":"function","name":"addSuperformManager","inputs":[{"name":"manager","type":"address","internalType":"address"}],"outputs":[],"stateMutability":"nonpayable"},{"type":"function","name":"addValidator","inputs":[{"name":"validator","type":"address","internalType":"address"}],"outputs":[],"stateMutability":"nonpayable"},{"type":"function","name":"addVaultBank","inputs":[{"name":"chainId","type":"uint64","internalType":"uint64"},{"name":"vaultBank","type":"address","internalType":"address"}],"outputs":[],"stateMutability":"nonpayable"},{"type":"function","name":"batchSetEmergencyPrices","inputs":[{"name":"tokens_","type":"address[]","internalType":"address[]"},{"name":"prices_","type":"uint256[]","internalType":"uint256[]"}],"outputs":[],"stateMutability":"nonpayable"},{"type":"function","name":"batchSetOracleUptimeFeed","inputs":[{"name":"dataOracles_","type":"address[]","internalType":"address[]"},{"name":"uptimeOracles_","type":"address[]","internalType":"address[]"},{"name":"gracePeriods_","type":"uint256[]","internalType":"uint256[]"}],"outputs":[],"stateMutability":"nonpayable"},{"type":"function","name":"changeHooksRootUpdateTimelock","inputs":[{"name":"newTimelock","type":"uint256","internalType":"uint256"}],"outputs":[],"stateMutability":"nonpayable"},{"type":"function","name":"changePrimaryManager","inputs":[{"name":"strategy","type":"address","internalType":"address"},{"name":"newManager","type":"address","internalType":"address"}],"outputs":[],"stateMutability":"nonpayable"},{"type":"function","name":"executeActivePPSOracleChange","inputs":[],"outputs":[],"stateMutability":"nonpayable"},{"type":"function","name":"executeAddIncentiveTokens","inputs":[],"outputs":[],"stateMutability":"nonpayable"},{"type":"function","name":"executeFeeUpdate","inputs":[{"name":"feeType","type":"uint8","internalType":"enum FeeType"}],"outputs":[],"stateMutability":"nonpayable"},{"type":"function","name":"executeMinStalenesChange","inputs":[],"outputs":[],"stateMutability":"nonpayable"},{"type":"function","name":"executeRemoveIncentiveTokens","inputs":[],"outputs":[],"stateMutability":"nonpayable"},{"type":"function","name":"executeSuperBankHookMerkleRootUpdate","inputs":[{"name":"hook","type":"address","internalType":"address"}],"outputs":[],"stateMutability":"nonpayable"},{"type":"function","name":"executeUpkeepClaim","inputs":[{"name":"amount","type":"uint256","internalType":"uint256"}],"outputs":[],"stateMutability":"nonpayable"},{"type":"function","name":"executeUpkeepCostPerUpdateChange","inputs":[],"outputs":[],"stateMutability":"nonpayable"},{"type":"function","name":"executeUpkeepPaymentsChange","inputs":[],"outputs":[],"stateMutability":"nonpayable"},{"type":"function","name":"executeVaultBankHookMerkleRootUpdate","inputs":[{"name":"hook","type":"address","internalType":"address"}],"outputs":[],"stateMutability":"nonpayable"},{"type":"function","name":"freezeManagerTakeover","inputs":[],"outputs":[],"stateMutability":"nonpayable"},{"type":"function","name":"getActivePPSOracle","inputs":[],"outputs":[{"name":"","type":"address","internalType":"address"}],"stateMutability":"view"},{"type":"function","name":"getAddress","inputs":[{"name":"key","type":"bytes32","internalType":"bytes32"}],"outputs":[{"name":"","type":"address","internalType":"address"}],"stateMutability":"view"},{"type":"function","name":"getAllSuperformManagers","inputs":[],"outputs":[{"name":"managers","type":"address[]","internalType":"address[]"}],"stateMutability":"view"},{"type":"function","name":"getExecutors","inputs":[],"outputs":[{"name":"","type":"address[]","internalType":"address[]"}],"stateMutability":"view"},{"type":"function","name":"getFee","inputs":[{"name":"feeType","type":"uint8","internalType":"enum FeeType"}],"outputs":[{"name":"","type":"uint256","internalType":"uint256"}],"stateMutability":"view"},{"type":"function","name":"getManagersPaginated","inputs":[{"name":"cursor","type":"uint256","internalType":"uint256"},{"name":"limit","type":"uint256","internalType":"uint256"}],"outputs":[{"name":"chunkOfManagers","type":"address[]","internalType":"address[]"},{"name":"next","type":"uint256","internalType":"uint256"}],"stateMutability":"view"},{"type":"function","name":"getMinStaleness","inputs":[],"outputs":[{"name":"","type":"uint256","internalType":"uint256"}],"stateMutability":"view"},{"type":"function","name":"getPPSOracleQuorum","inputs":[],"outputs":[{"name":"","type":"uint256","internalType":"uint256"}],"stateMutability":"view"},{"type":"function","name":"getProposedActivePPSOracle","inputs":[],"outputs":[{"name":"proposedOracle","type":"address","internalType":"address"},{"name":"effectiveTime","type":"uint256","internalType":"uint256"}],"stateMutability":"view"},{"type":"function","name":"getProposedMinStaleness","inputs":[],"outputs":[{"name":"proposedMinStaleness","type":"uint256","internalType":"uint256"},{"name":"effectiveTime","type":"uint256","internalType":"uint256"}],"stateMutability":"view"},{"type":"function","name":"getProposedSuperBankHookMerkleRoot","inputs":[{"name":"hook","type":"address","internalType":"address"}],"outputs":[{"name":"proposedRoot","type":"bytes32","internalType":"bytes32"},{"name":"effectiveTime","type":"uint256","internalType":"uint256"}],"stateMutability":"view"},{"type":"function","name":"getProposedUpkeepCostPerUpdate","inputs":[],"outputs":[{"name":"proposedCost","type":"uint256","internalType":"uint256"},{"name":"effectiveTime","type":"uint256","internalType":"uint256"}],"stateMutability":"view"},{"type":"function","name":"getProposedUpkeepPaymentsStatus","inputs":[],"outputs":[{"name":"enabled","type":"bool","internalType":"bool"},{"name":"effectiveTime","type":"uint256","internalType":"uint256"}],"stateMutability":"view"},{"type":"function","name":"getProposedVaultBankHookMerkleRoot","inputs":[{"name":"hook","type":"address","internalType":"address"}],"outputs":[{"name":"proposedRoot","type":"bytes32","internalType":"bytes32"},{"name":"effectiveTime","type":"uint256","internalType":"uint256"}],"stateMutability":"view"},{"type":"function","name":"getProtectedKeepers","inputs":[],"outputs":[{"name":"","type":"address[]","internalType":"address[]"}],"stateMutability":"view"},{"type":"function","name":"getProtectedKeepersCount","inputs":[],"outputs":[{"name":"","type":"uint256","internalType":"uint256"}],"stateMutability":"view"},{"type":"function","name":"getProver","inputs":[],"outputs":[{"name":"","type":"address","internalType":"address"}],"stateMutability":"view"},{"type":"function","name":"getRegisteredFulfillRequestsHooks","inputs":[],"outputs":[{"name":"","type":"address[]","internalType":"address[]"}],"stateMutability":"view"},{"type":"function","name":"getRegisteredHooks","inputs":[],"outputs":[{"name":"","type":"address[]","internalType":"address[]"}],"stateMutability":"view"},{"type":"function","name":"getRelayers","inputs":[],"outputs":[{"name":"","type":"address[]","internalType":"address[]"}],"stateMutability":"view"},{"type":"function","name":"getRoleAdmin","inputs":[{"name":"role","type":"bytes32","internalType":"bytes32"}],"outputs":[{"name":"","type":"bytes32","internalType":"bytes32"}],"stateMutability":"view"},{"type":"function","name":"getSuperBankHookMerkleRoot","inputs":[{"name":"hook","type":"address","internalType":"address"}],"outputs":[{"name":"","type":"bytes32","internalType":"bytes32"}],"stateMutability":"view"},{"type":"function","name":"getSuperformManagersCount","inputs":[],"outputs":[{"name":"","type":"uint256","internalType":"uint256"}],"stateMutability":"view"},{"type":"function","name":"getUpkeepCostPerUpdate","inputs":[],"outputs":[{"name":"","type":"uint256","internalType":"uint256"}],"stateMutability":"view"},{"type":"function","name":"getValidators","inputs":[],"outputs":[{"name":"","type":"address[]","internalType":"address[]"}],"stateMutability":"view"},{"type":"function","name":"getVaultBank","inputs":[{"name":"chainId","type":"uint64","internalType":"uint64"}],"outputs":[{"name":"","type":"address","internalType":"address"}],"stateMutability":"view"},{"type":"function","name":"getVaultBankHookMerkleRoot","inputs":[{"name":"hook","type":"address","internalType":"address"}],"outputs":[{"name":"","type":"bytes32","internalType":"bytes32"}],"stateMutability":"view"},{"type":"function","name":"grantRole","inputs":[{"name":"role","type":"bytes32","internalType":"bytes32"},{"name":"account","type":"address","internalType":"address"}],"outputs":[],"stateMutability":"nonpayable"},{"type":"function","name":"hasRole","inputs":[{"name":"role","type":"bytes32","internalType":"bytes32"},{"name":"account","type":"address","internalType":"address"}],"outputs":[{"name":"","type":"bool","internalType":"bool"}],"stateMutability":"view"},{"type":"function","name":"isActivePPSOracle","inputs":[{"name":"oracle","type":"address","internalType":"address"}],"outputs":[{"name":"","type":"bool","internalType":"bool"}],"stateMutability":"view"},{"type":"function","name":"isExecutor","inputs":[{"name":"executor","type":"address","internalType":"address"}],"outputs":[{"name":"","type":"bool","internalType":"bool"}],"stateMutability":"view"},{"type":"function","name":"isFulfillRequestsHookRegistered","inputs":[{"name":"hook","type":"address","internalType":"address"}],"outputs":[{"name":"","type":"bool","internalType":"bool"}],"stateMutability":"view"},{"type":"function","name":"isGuardian","inputs":[{"name":"guardian","type":"address","internalType":"address"}],"outputs":[{"name":"","type":"bool","internalType":"bool"}],"stateMutability":"view"},{"type":"function","name":"isHookRegistered","inputs":[{"name":"hook","type":"address","internalType":"address"}],"outputs":[{"name":"","type":"bool","internalType":"bool"}],"stateMutability":"view"},{"type":"function","name":"isManagerTakeoverFrozen","inputs":[],"outputs":[{"name":"","type":"bool","internalType":"bool"}],"stateMutability":"view"},{"type":"function","name":"isProtectedKeeper","inputs":[{"name":"keeper","type":"address","internalType":"address"}],"outputs":[{"name":"","type":"bool","internalType":"bool"}],"stateMutability":"view"},{"type":"function","name":"isRelayer","inputs":[{"name":"relayer","type":"address","internalType":"address"}],"outputs":[{"name":"","type":"bool","internalType":"bool"}],"stateMutability":"view"},{"type":"function","name":"isSuperformManager","inputs":[{"name":"manager","type":"address","internalType":"address"}],"outputs":[{"name":"isSuperform","type":"bool","internalType":"bool"}],"stateMutability":"view"},{"type":"function","name":"isUpkeepPaymentsEnabled","inputs":[],"outputs":[{"name":"enabled","type":"bool","internalType":"bool"}],"stateMutability":"view"},{"type":"function","name":"isValidator","inputs":[{"name":"validator","type":"address","internalType":"address"}],"outputs":[{"name":"","type":"bool","internalType":"bool"}],"stateMutability":"view"},{"type":"function","name":"isWhitelistedIncentiveToken","inputs":[{"name":"token","type":"address","internalType":"address"}],"outputs":[{"name":"","type":"bool","internalType":"bool"}],"stateMutability":"view"},{"type":"function","name":"proposeActivePPSOracle","inputs":[{"name":"oracle","type":"address","internalType":"address"}],"outputs":[],"stateMutability":"nonpayable"},{"type":"function","name":"proposeAddIncentiveTokens","inputs":[{"name":"tokens","type":"address[]","internalType":"address[]"}],"outputs":[],"stateMutability":"nonpayable"},{"type":"function","name":"proposeFee","inputs":[{"name":"feeType","type":"uint8","internalType":"enum FeeType"},{"name":"value","type":"uint256","internalType":"uint256"}],"outputs":[],"stateMutability":"nonpayable"},{"type":"function","name":"proposeGlobalHooksRoot","inputs":[{"name":"newRoot","type":"bytes32","internalType":"bytes32"}],"outputs":[],"stateMutability":"nonpayable"},{"type":"function","name":"proposeMinStaleness","inputs":[{"name":"newMinStaleness","type":"uint256","internalType":"uint256"}],"outputs":[],"stateMutability":"nonpayable"},{"type":"function","name":"proposeRemoveIncentiveTokens","inputs":[{"name":"tokens","type":"address[]","internalType":"address[]"}],"outputs":[],"stateMutability":"nonpayable"},{"type":"function","name":"proposeSuperBankHookMerkleRoot","inputs":[{"name":"hook","type":"address","internalType":"address"},{"name":"proposedRoot","type":"bytes32","internalType":"bytes32"}],"outputs":[],"stateMutability":"nonpayable"},{"type":"function","name":"proposeUpkeepCostPerUpdate","inputs":[{"name":"newCost","type":"uint256","internalType":"uint256"}],"outputs":[],"stateMutability":"nonpayable"},{"type":"function","name":"proposeUpkeepPaymentsChange","inputs":[{"name":"enabled","type":"bool","internalType":"bool"}],"outputs":[],"stateMutability":"nonpayable"},{"type":"function","name":"proposeVaultBankHookMerkleRoot","inputs":[{"name":"hook","type":"address","internalType":"address"},{"name":"proposedRoot","type":"bytes32","internalType":"bytes32"}],"outputs":[],"stateMutability":"nonpayable"},{"type":"function","name":"queueOracleProviderRemoval","inputs":[{"name":"providers","type":"bytes32[]","internalType":"bytes32[]"}],"outputs":[],"stateMutability":"nonpayable"},{"type":"function","name":"queueOracleUpdate","inputs":[{"name":"bases_","type":"address[]","internalType":"address[]"},{"name":"quotes_","type":"address[]","internalType":"address[]"},{"name":"providers_","type":"bytes32[]","internalType":"bytes32[]"},{"name":"feeds_","type":"address[]","internalType":"address[]"}],"outputs":[],"stateMutability":"nonpayable"},{"type":"function","name":"registerHook","inputs":[{"name":"hook","type":"address","internalType":"address"},{"name":"isFulfillRequestsHook","type":"bool","internalType":"bool"}],"outputs":[],"stateMutability":"nonpayable"},{"type":"function","name":"registerProtectedKeeper","inputs":[{"name":"keeper","type":"address","internalType":"address"}],"outputs":[],"stateMutability":"nonpayable"},{"type":"function","name":"removeExecutor","inputs":[{"name":"executor","type":"address","internalType":"address"}],"outputs":[],"stateMutability":"nonpayable"},{"type":"function","name":"removeICCFromWhitelist","inputs":[{"name":"icc","type":"address","internalType":"address"}],"outputs":[],"stateMutability":"nonpayable"},{"type":"function","name":"removeRelayer","inputs":[{"name":"relayer","type":"address","internalType":"address"}],"outputs":[],"stateMutability":"nonpayable"},{"type":"function","name":"removeSuperformManager","inputs":[{"name":"manager","type":"address","internalType":"address"}],"outputs":[],"stateMutability":"nonpayable"},{"type":"function","name":"removeValidator","inputs":[{"name":"validator","type":"address","internalType":"address"}],"outputs":[],"stateMutability":"nonpayable"},{"type":"function","name":"renounceRole","inputs":[{"name":"role","type":"bytes32","internalType":"bytes32"},{"name":"callerConfirmation","type":"address","internalType":"address"}],"outputs":[],"stateMutability":"nonpayable"},{"type":"function","name":"revokeRole","inputs":[{"name":"role","type":"bytes32","internalType":"bytes32"},{"name":"account","type":"address","internalType":"address"}],"outputs":[],"stateMutability":"nonpayable"},{"type":"function","name":"setActivePPSOracle","inputs":[{"name":"oracle","type":"address","internalType":"address"}],"outputs":[],"stateMutability":"nonpayable"},{"type":"function","name":"setAddress","inputs":[{"name":"key","type":"bytes32","internalType":"bytes32"},{"name":"value","type":"address","internalType":"address"}],"outputs":[],"stateMutability":"nonpayable"},{"type":"function","name":"setEmergencyPrice","inputs":[{"name":"token","type":"address","internalType":"address"},{"name":"price","type":"uint256","internalType":"uint256"}],"outputs":[],"stateMutability":"nonpayable"},{"type":"function","name":"setGlobalHooksRootVetoStatus","inputs":[{"name":"vetoed","type":"bool","internalType":"bool"}],"outputs":[],"stateMutability":"nonpayable"},{"type":"function","name":"setOracleFeedMaxStaleness","inputs":[{"name":"feed","type":"address","internalType":"address"},{"name":"newMaxStaleness","type":"uint256","internalType":"uint256"}],"outputs":[],"stateMutability":"nonpayable"},{"type":"function","name":"setOracleFeedMaxStalenessBatch","inputs":[{"name":"feeds_","type":"address[]","internalType":"address[]"},{"name":"newMaxStalenessList_","type":"uint256[]","internalType":"uint256[]"}],"outputs":[],"stateMutability":"nonpayable"},{"type":"function","name":"setOracleMaxStaleness","inputs":[{"name":"newMaxStaleness","type":"uint256","internalType":"uint256"}],"outputs":[],"stateMutability":"nonpayable"},{"type":"function","name":"setPPSOracleQuorum","inputs":[{"name":"quorum","type":"uint256","internalType":"uint256"}],"outputs":[],"stateMutability":"nonpayable"},{"type":"function","name":"setProver","inputs":[{"name":"prover","type":"address","internalType":"address"}],"outputs":[],"stateMutability":"nonpayable"},{"type":"function","name":"setStrategyHooksRootVetoStatus","inputs":[{"name":"strategy","type":"address","internalType":"address"},{"name":"vetoed","type":"bool","internalType":"bool"}],"outputs":[],"stateMutability":"nonpayable"},{"type":"function","name":"setSuperAssetManager","inputs":[{"name":"superAsset","type":"address","internalType":"address"},{"name":"superAssetManager","type":"address","internalType":"address"}],"outputs":[],"stateMutability":"nonpayable"},{"type":"function","name":"supportsInterface","inputs":[{"name":"interfaceId","type":"bytes4","internalType":"bytes4"}],"outputs":[{"name":"","type":"bool","internalType":"bool"}],"stateMutability":"view"},{"type":"function","name":"unregisterHook","inputs":[{"name":"hook","type":"address","internalType":"address"}],"outputs":[],"stateMutability":"nonpayable"},{"type":"function","name":"unregisterProtectedKeeper","inputs":[{"name":"keeper","type":"address","internalType":"address"}],"outputs":[],"stateMutability":"nonpayable"},{"type":"event","name":"ActivePPSOracleChanged","inputs":[{"name":"oldOracle","type":"address","indexed":true,"internalType":"address"},{"name":"newOracle","type":"address","indexed":true,"internalType":"address"}],"anonymous":false},{"type":"event","name":"ActivePPSOracleProposed","inputs":[{"name":"oracle","type":"address","indexed":true,"internalType":"address"},{"name":"effectiveTime","type":"uint256","indexed":false,"internalType":"uint256"}],"anonymous":false},{"type":"event","name":"ActivePPSOracleSet","inputs":[{"name":"oracle","type":"address","indexed":true,"internalType":"address"}],"anonymous":false},{"type":"event","name":"AddressSet","inputs":[{"name":"key","type":"bytes32","indexed":true,"internalType":"bytes32"},{"name":"value","type":"address","indexed":true,"internalType":"address"}],"anonymous":false},{"type":"event","name":"ExecutorAdded","inputs":[{"name":"executor","type":"address","indexed":true,"internalType":"address"}],"anonymous":false},{"type":"event","name":"ExecutorRemoved","inputs":[{"name":"executor","type":"address","indexed":true,"internalType":"address"}],"anonymous":false},{"type":"event","name":"FeeProposed","inputs":[{"name":"feeType","type":"uint8","indexed":true,"internalType":"enum FeeType"},{"name":"value","type":"uint256","indexed":false,"internalType":"uint256"},{"name":"effectiveTime","type":"uint256","indexed":false,"internalType":"uint256"}],"anonymous":false},{"type":"event","name":"FeeUpdated","inputs":[{"name":"feeType","type":"uint8","indexed":true,"internalType":"enum FeeType"},{"name":"value","type":"uint256","indexed":false,"internalType":"uint256"}],"anonymous":false},{"type":"event","name":"FulfillRequestsHookRegistered","inputs":[{"name":"hook","type":"address","indexed":true,"internalType":"address"}],"anonymous":false},{"type":"event","name":"FulfillRequestsHookUnregistered","inputs":[{"name":"hook","type":"address","indexed":true,"internalType":"address"}],"anonymous":false},{"type":"event","name":"HookApproved","inputs":[{"name":"hook","type":"address","indexed":true,"internalType":"address"}],"anonymous":false},{"type":"event","name":"HookRemoved","inputs":[{"name":"hook","type":"address","indexed":true,"internalType":"address"}],"anonymous":false},{"type":"event","name":"ManagerTakeoversFrozen","inputs":[],"anonymous":false},{"type":"event","name":"MinStalenesChanged","inputs":[{"name":"newMinStaleness","type":"uint256","indexed":false,"internalType":"uint256"}],"anonymous":false},{"type":"event","name":"MinStalenesProposed","inputs":[{"name":"newMinStaleness","type":"uint256","indexed":false,"internalType":"uint256"},{"name":"effectiveTime","type":"uint256","indexed":false,"internalType":"uint256"}],"anonymous":false},{"type":"event","name":"PPSOracleQuorumUpdated","inputs":[{"name":"quorum","type":"uint256","indexed":false,"internalType":"uint256"}],"anonymous":false},{"type":"event","name":"ProtectedKeeperRegistered","inputs":[{"name":"keeper","type":"address","indexed":true,"internalType":"address"}],"anonymous":false},{"type":"event","name":"ProtectedKeeperUnregistered","inputs":[{"name":"keeper","type":"address","indexed":true,"internalType":"address"}],"anonymous":false},{"type":"event","name":"ProverSet","inputs":[{"name":"prover","type":"address","indexed":true,"internalType":"address"}],"anonymous":false},{"type":"event","name":"RelayerAdded","inputs":[{"name":"relayer","type":"address","indexed":true,"internalType":"address"}],"anonymous":false},{"type":"event","name":"RelayerRemoved","inputs":[{"name":"relayer","type":"address","indexed":true,"internalType":"address"}],"anonymous":false},{"type":"event","name":"RevenueShareUpdated","inputs":[{"name":"share","type":"uint256","indexed":false,"internalType":"uint256"}],"anonymous":false},{"type":"event","name":"RoleAdminChanged","inputs":[{"name":"role","type":"bytes32","indexed":true,"internalType":"bytes32"},{"name":"previousAdminRole","type":"bytes32","indexed":true,"internalType":"bytes32"},{"name":"newAdminRole","type":"bytes32","indexed":true,"internalType":"bytes32"}],"anonymous":false},{"type":"event","name":"RoleGranted","inputs":[{"name":"role","type":"bytes32","indexed":true,"internalType":"bytes32"},{"name":"account","type":"address","indexed":true,"internalType":"address"},{"name":"sender","type":"address","indexed":true,"internalType":"address"}],"anonymous":false},{"type":"event","name":"RoleRevoked","inputs":[{"name":"role","type":"bytes32","indexed":true,"internalType":"bytes32"},{"name":"account","type":"address","indexed":true,"internalType":"address"},{"name":"sender","type":"address","indexed":true,"internalType":"address"}],"anonymous":false},{"type":"event","name":"SuperBankHookMerkleRootProposed","inputs":[{"name":"hook","type":"address","indexed":true,"internalType":"address"},{"name":"newRoot","type":"bytes32","indexed":false,"internalType":"bytes32"},{"name":"effectiveTime","type":"uint256","indexed":false,"internalType":"uint256"}],"anonymous":false},{"type":"event","name":"SuperBankHookMerkleRootUpdated","inputs":[{"name":"hook","type":"address","indexed":true,"internalType":"address"},{"name":"newRoot","type":"bytes32","indexed":false,"internalType":"bytes32"}],"anonymous":false},{"type":"event","name":"SuperformManagerAdded","inputs":[{"name":"manager","type":"address","indexed":true,"internalType":"address"}],"anonymous":false},{"type":"event","name":"SuperformManagerRemoved","inputs":[{"name":"manager","type":"address","indexed":true,"internalType":"address"}],"anonymous":false},{"type":"event","name":"UpkeepCostPerUpdateChanged","inputs":[{"name":"newCost","type":"uint256","indexed":false,"internalType":"uint256"}],"anonymous":false},{"type":"event","name":"UpkeepCostPerUpdateProposed","inputs":[{"name":"newCost","type":"uint256","indexed":false,"internalType":"uint256"},{"name":"effectiveTime","type":"uint256","indexed":false,"internalType":"uint256"}],"anonymous":false},{"type":"event","name":"UpkeepPaymentsChangeProposed","inputs":[{"name":"enabled","type":"bool","indexed":false,"internalType":"bool"},{"name":"effectiveTime","type":"uint256","indexed":false,"internalType":"uint256"}],"anonymous":false},{"type":"event","name":"UpkeepPaymentsChanged","inputs":[{"name":"enabled","type":"bool","indexed":false,"internalType":"bool"}],"anonymous":false},{"type":"event","name":"ValidatorAdded","inputs":[{"name":"validator","type":"address","indexed":true,"internalType":"address"}],"anonymous":false},{"type":"event","name":"ValidatorRemoved","inputs":[{"name":"validator","type":"address","indexed":true,"internalType":"address"}],"anonymous":false},{"type":"event","name":"VaultBankAddressAdded","inputs":[{"name":"chainId","type":"uint64","indexed":true,"internalType":"uint64"},{"name":"vaultBank","type":"address","indexed":true,"internalType":"address"}],"anonymous":false},{"type":"event","name":"VaultBankHookMerkleRootProposed","inputs":[{"name":"hook","type":"address","indexed":true,"internalType":"address"},{"name":"newRoot","type":"bytes32","indexed":false,"internalType":"bytes32"},{"name":"effectiveTime","type":"uint256","indexed":false,"internalType":"uint256"}],"anonymous":false},{"type":"event","name":"VaultBankHookMerkleRootUpdated","inputs":[{"name":"hook","type":"address","indexed":true,"internalType":"address"},{"name":"newRoot","type":"bytes32","indexed":false,"internalType":"bytes32"}],"anonymous":false},{"type":"event","name":"WhitelistedIncentiveTokensAdded","inputs":[{"name":"tokens","type":"address[]","indexed":false,"internalType":"address[]"}],"anonymous":false},{"type":"event","name":"WhitelistedIncentiveTokensProposed","inputs":[{"name":"tokens","type":"address[]","indexed":false,"internalType":"address[]"},{"name":"effectiveTime","type":"uint256","indexed":false,"internalType":"uint256"}],"anonymous":false},{"type":"event","name":"WhitelistedIncentiveTokensRemoved","inputs":[{"name":"tokens","type":"address[]","indexed":false,"internalType":"address[]"}],"anonymous":false},{"type":"error","name":"AccessControlBadConfirmation","inputs":[]},{"type":"error","name":"AccessControlUnauthorizedAccount","inputs":[{"name":"account","type":"address","internalType":"address"},{"name":"neededRole","type":"bytes32","internalType":"bytes32"}]},{"type":"error","name":"CONTRACT_ALREADY_REGISTERED","inputs":[]},{"type":"error","name":"CONTRACT_NOT_FOUND","inputs":[]},{"type":"error","name":"EXECUTOR_ALREADY_REGISTERED","inputs":[]},{"type":"error","name":"EXECUTOR_NOT_REGISTERED","inputs":[]},{"type":"error","name":"FULFILL_REQUESTS_HOOK_ALREADY_REGISTERED","inputs":[]},{"type":"error","name":"FULFILL_REQUESTS_HOOK_NOT_REGISTERED","inputs":[]},{"type":"error","name":"HOOK_ALREADY_APPROVED","inputs":[]},{"type":"error","name":"HOOK_NOT_APPROVED","inputs":[]},{"type":"error","name":"INVALID_ADDRESS","inputs":[]},{"type":"error","name":"INVALID_CHAIN_ID","inputs":[]},{"type":"error","name":"INVALID_FEE_VALUE","inputs":[]},{"type":"error","name":"INVALID_QUORUM","inputs":[]},{"type":"error","name":"INVALID_REVENUE_SHARE","inputs":[]},{"type":"error","name":"INVALID_TIMESTAMP","inputs":[]},{"type":"error","name":"KEEPER_ALREADY_REGISTERED","inputs":[]},{"type":"error","name":"KEEPER_NOT_REGISTERED","inputs":[]},{"type":"error","name":"MANAGER_ALREADY_REGISTERED","inputs":[]},{"type":"error","name":"MANAGER_NOT_REGISTERED","inputs":[]},{"type":"error","name":"MANAGER_TAKEOVERS_FROZEN","inputs":[]},{"type":"error","name":"MAX_STALENESS_TOO_LOW","inputs":[]},{"type":"error","name":"MUST_USE_TIMELOCK_FOR_CHANGE","inputs":[]},{"type":"error","name":"NOT_PROPOSED_INCENTIVE_TOKEN","inputs":[]},{"type":"error","name":"NOT_WHITELISTED_INCENTIVE_TOKEN","inputs":[]},{"type":"error","name":"NO_ACTIVE_PPS_ORACLE","inputs":[]},{"type":"error","name":"NO_PENDING_CHANGE","inputs":[]},{"type":"error","name":"NO_PROPOSED_FEE","inputs":[{"name":"feeType","type":"uint8","internalType":"enum FeeType"}]},{"type":"error","name":"NO_PROPOSED_MERKLE_ROOT","inputs":[]},{"type":"error","name":"NO_PROPOSED_MIN_STALENESS","inputs":[]},{"type":"error","name":"NO_PROPOSED_PPS_ORACLE","inputs":[]},{"type":"error","name":"NO_PROPOSED_UPKEEP_COST","inputs":[]},{"type":"error","name":"ONLY_GOVERNOR","inputs":[]},{"type":"error","name":"RELAYER_ALREADY_REGISTERED","inputs":[]},{"type":"error","name":"RELAYER_NOT_REGISTERED","inputs":[]},{"type":"error","name":"TIMELOCK_NOT_EXPIRED","inputs":[]},{"type":"error","name":"TOKEN_ALREADY_WHITELISTED","inputs":[]},{"type":"error","name":"VALIDATOR_ALREADY_REGISTERED","inputs":[]},{"type":"error","name":"VALIDATOR_NOT_REGISTERED","inputs":[]},{"type":"error","name":"ZERO_PROPOSED_MERKLE_ROOT","inputs":[]}],"bytecode":{"object":"0x608060405234801561000f575f5ffd5b50604051614c6a380380614c6a83398101604081905261002e91610478565b6001600160a01b038516158061004b57506001600160a01b038216155b8061005d57506001600160a01b038416155b8061006f57506001600160a01b038316155b8061008157506001600160a01b038116155b1561009f57604051635963709b60e01b815260040160405180910390fd5b6100a95f8661036a565b506100c15f516020614c0a5f395f51905f528661036a565b506100d95f516020614bea5f395f51905f528561036a565b506100f15f516020614baa5f395f51905f528461036a565b5061011c7f55435dd261a4b9b3364963f7738a7a662ad9c84396d64be3365284bb7f0a50415f610413565b6101335f516020614bea5f395f51905f525f610413565b61014a5f516020614c0a5f395f51905f525f610413565b6101615f516020614baa5f395f51905f525f610413565b60208080526107d07f29ab76e7ca72530a8284597fb76b039d796325740b21528d71ade454c6f2dbe98190555f516020614c2a5f395f51905f52819055610fa05f516020614bca5f395f51905f52555f808052604080519283525190925f516020614c4a5f395f51905f52928290030190a260015f81905260208080525f516020614c2a5f395f51905f52546040519081525f516020614c4a5f395f51905f52910160405180910390a260025f81905260208080525f516020614bca5f395f51905f52546040519081525f516020614c4a5f395f51905f52910160405180910390a27f06aa03964db1f7257357ef09714a5f0ca3633723df419e97015e0c7a3e83edb75f81815260016020527f5b4d914e7897397f20529357e1685df1796ccbbb6223ead0f42bdf02603eba0a80546001600160a01b0319166001600160a01b0386169081179091556040519092917fb37614c7d254ea8d16eb81fa11dddaeb266aa8ba4917980859c7740aff30c69191a3670de0b6b3a764000060238190556040519081527f1ab7e1c2577ef2ff1ab808b28915a8fb8371717c6e45797badd8053ec79a83199060200160405180910390a161012c602a55601880546001600160a01b0319166001600160a01b0383169081179091556040517fc881e48d34a3dc6ca8b8ab38320d54f4972a7ade617113524dc2c2bf44984c8a905f90a250505050506104d9565b5f828152602081815260408083206001600160a01b038516845290915281205460ff1661040a575f838152602081815260408083206001600160a01b03861684529091529020805460ff191660011790556103c23390565b6001600160a01b0316826001600160a01b0316847f2f8788117e7eff1d82e926ec794901d17c78024a50270940304540a733656f0d60405160405180910390a450600161040d565b505f5b92915050565b5f82815260208190526040808220600101805490849055905190918391839186917fbd79b86ffe0ab8e8776151514217cd7cacd52c909f66475c3af44e129f0b00ff9190a4505050565b80516001600160a01b0381168114610473575f5ffd5b919050565b5f5f5f5f5f60a0868803121561048c575f5ffd5b6104958661045d565b94506104a36020870161045d565b93506104b16040870161045d565b92506104bf6060870161045d565b91506104cd6080870161045d565b90509295509295909350565b6146c4806104e65f395ff3fe608060405234801561000f575f5ffd5b50600436106106be575f3560e01c80638be48ce611610375578063d070909e116101d4578063ec63a69411610109578063f7536506116100a9578063f9a83be711610084578063f9a83be714610f34578063facd743b14610f45578063fd6f0fc214610f58578063ffdb520014610f7a575f5ffd5b8063f753650614610efb578063f76f48cb14610f0e578063f9525fb714610f21575f5ffd5b8063f1031b4e116100e4578063f1031b4e14610ea7578063f215705214610eaf578063f43526f414610ed5578063f5297a4714610ee8575f5ffd5b8063ec63a69414610e84578063ecc3d96714610e97578063ef09e78f14610e9f575f5ffd5b8063df6aaf9611610174578063e5cc79701161014f578063e5cc797014610e4b578063e778f63214610e53578063e842243214610e66578063ec45ad5314610e71575f5ffd5b8063df6aaf9614610e28578063df767d1314610e30578063dfebb1c214610e38575f5ffd5b8063d6a8bf3a116101af578063d6a8bf3a14610de7578063dc97280114610dfa578063dd39f00d14610e02578063debfda3014610e15575f5ffd5b8063d070909e14610dae578063d547741f14610dc1578063d5f3cd8614610dd4575f5ffd5b8063b4e111ca116102aa578063c98388191161024a578063cb53603e11610225578063cb53603e14610d6d578063cbda299214610d80578063cc8bb5e414610d93578063ccc5749014610d9b575f5ffd5b8063c983881914610d3e578063ca446dd914610d52578063ca774c1214610d65575f5ffd5b8063ba96fb6711610285578063ba96fb6714610ce4578063be5edae514610cf7578063becbf72914610d18578063c0c1094314610d2b575f5ffd5b8063b4e111ca14610cc1578063b7ab4db514610cc9578063ba1f073c14610cd1575f5ffd5b8063a217fddf11610315578063ae4d256e116102f0578063ae4d256e14610c80578063b0e5173b14610c93578063b1c0374d14610ca6578063b291fdf314610cae575f5ffd5b8063a217fddf14610c30578063a390ad1e14610c37578063a86ed38814610c4a575f5ffd5b806391d148541161035057806391d1485414610bdb57806395c0bf6914610bee5780639649933b14610c15578063a1d1ab4314610c28575f5ffd5b80638be48ce614610ba9578063906811e014610bb457806390d4a56d14610bc7575f5ffd5b806336568abe116105215780635721145f116104565780637045af80116103f65780637ee185c1116103d15780637ee185c114610b73578063841b017514610b8657806384570ebf14610b8e5780638481643b14610b96575f5ffd5b80637045af8014610b22578063778f8a9314610b4d5780637d3e649e14610b60575f5ffd5b806360f0a5ac1161043157806360f0a5ac14610aae5780636490305f14610ac157806367e2112314610ad45780636f2140c114610afb575f5ffd5b80635721145f14610a6957806357b8b13d14610a745780635e46e8b914610a9b575f5ffd5b806343844de6116104c1578063515976721161049c5780635159767214610a1d57806352ad8b0014610a3057806352da1de314610a43578063541d554814610a56575f5ffd5b806343844de6146109cf5780634d238c8e146109f75780635015149214610a0a575f5ffd5b80633e099f30116104fc5780633e099f301461096d5780633ef150591461099e5780633fa9fe64146109a957806340a141ff146109bc575f5ffd5b806336568abe14610920578063365d6bf31461093357806339e0739e14610946575f5ffd5b80631f5a0bbe116105f7578063275f0f2b116105975780632d2c5565116105725780632d2c5565146108c05780632f2ff15d146108e75780633202ac23146108fa578063324341ed1461090d575f5ffd5b8063275f0f2b1461089d578063290c49a1146108a557806329f05976146108b8575f5ffd5b8063248a9ca3116105d2578063248a9ca31461082e57806324ea54f41461085057806324f4ec5114610863578063256b71a01461088a575f5ffd5b80631f5a0bbe146107dd57806321f8a721146107f0578063247884291461081b575f5ffd5b80630cbad00c1161066257806317a79fa61161063d57806317a79fa6146107915780631c70d542146107a45780631de73a40146107b75780631e1c3d38146107ca575f5ffd5b80630cbad00c146107635780631551c6c014610776578063179ff4b214610789575f5ffd5b8063045b4bdf1161069d578063045b4bdf14610712578063046c74181461071a578063083132c41461072f5780630c68ba2114610750575f5ffd5b8062f1131f146106c257806301ffc9a7146106d7578063022e38cf146106ff575b5f5ffd5b6106d56106d0366004613e76565b610fa1565b005b6106ea6106e5366004613ee0565b61106a565b60405190151581526020015b60405180910390f35b6106d561070d366004613f1a565b6110a0565b6106d56111e0565b610722611270565b6040516106f69190613f85565b61074261073d366004613f97565b611281565b6040519081526020016106f6565b6106ea61075e366004613fc6565b6112bd565b6106ea610771366004613fc6565b6112d5565b6106d5610784366004613fc6565b6112e1565b61072261138e565b6106d561079f366004613fdf565b61139a565b6106d56107b2366004613fc6565b6114aa565b6106d56107c5366004613fc6565b611520565b6106ea6107d8366004613fc6565b6115f2565b6106d56107eb366004613fc6565b6115fe565b6108036107fe366004613ff9565b61169b565b6040516001600160a01b0390911681526020016106f6565b6106d5610829366004613fc6565b6116d0565b61074261083c366004613ff9565b5f9081526020819052604090206001015490565b5f5160206146985f395f51905f52610742565b6107427f4e032641b2359d2aee4735b258178cf8694c625beddec1e44ff8ca4e2cf01ccc81565b6106d5610898366004613fc6565b611746565b610803611813565b6106d56108b3366004613fc6565b61184e565b602a54610742565b6107427f06aa03964db1f7257357ef09714a5f0ca3633723df419e97015e0c7a3e83edb781565b6106d56108f5366004614010565b611920565b6106d5610908366004613ff9565b61194a565b6106d561091b366004613ff9565b611a07565b6106d561092e366004614010565b611ab9565b6106d5610941366004613f97565b611af1565b6107427f6128658d1c5dd8c36a698b5ff50fdc528540f9f16faa567f383237dc1236a63681565b61080361097b366004614050565b6001600160401b03165f908152600d60205260409020546001600160a01b031690565b60265460ff166106ea565b6106d56109b7366004613e76565b611cc1565b6106d56109ca366004613fc6565b611da3565b6109e26109dd366004613fc6565b611e19565b604080519283526020830191909152016106f6565b6106d5610a05366004613fc6565b611e6a565b6106d5610a18366004613fc6565b611f07565b6106d5610a2b36600461407d565b611fb1565b6106d5610a3e366004614145565b6120ad565b6106d5610a51366004613ff9565b61217c565b6106ea610a64366004613fc6565b6121e8565b600f5460ff166106ea565b60265460275461010090910460ff16906040805192151583526020830191909152016106f6565b6106d5610aa9366004613fdf565b6121f4565b6106d5610abc366004613fc6565b6122c9565b6106d5610acf3660046141e1565b61233f565b6107427f99a4fb9e0cd3c68cdaa38ecbc250f050a682e21c7dbd734f38af8ac05da2902c81565b6107427fc544fbaa7b4057e5c1d97a73d1b1ddbc994fedcc3db79cee7185cf0584af8b5181565b6106ea610b30366004613fc6565b6001600160a01b03165f9081526019602052604090205460ff1690565b6106d5610b5b36600461422e565b6123cf565b6106ea610b6e366004613fc6565b612444565b6106d5610b81366004613fdf565b612450565b6107226124e7565b6107226124f3565b6106d5610ba4366004614247565b6124ff565b6024546025546109e2565b6106d5610bc236600461426f565b6125d1565b6107425f5160206146585f395f51905f5281565b6106ea610be9366004614010565b61268d565b6107427fad8bdf47e182a0f0be18b2835ad9c8539d4f7d767b5652641c27e0f1449ddada81565b6106d5610c23366004613ff9565b6126b5565b610722612744565b6107425f81565b6106d5610c45366004613fc6565b612750565b610c616004546005546001600160a01b0390911691565b604080516001600160a01b0390931683526020830191909152016106f6565b6106ea610c8e366004613fc6565b6127d2565b6106d5610ca1366004613ff9565b6127de565b61074261286d565b6106d5610cbc366004613fc6565b612878565b602354610742565b610722612915565b6106d5610cdf366004614297565b612921565b6106d5610cf2366004613fdf565b6129f6565b610d0a610d05366004614361565b612ac0565b6040516106f6929190614381565b6106d5610d263660046143a2565b612bce565b6106d5610d39366004613ff9565b612cf7565b6107425f5160206146785f395f51905f5281565b6106d5610d60366004614010565b612d5c565b6106d5612df3565b6106d5610d7b36600461407d565b612e66565b6106d5610d8e366004613fc6565b612fae565b610742613036565b5f5160206145f85f395f51905f52610742565b6106d5610dbc366004613fc6565b613041565b6106d5610dcf366004614010565b61310e565b6106d5610de236600461422e565b613132565b6106d5610df5366004613ff9565b6131c2565b6106d5613227565b6106d5610e10366004613fc6565b613327565b6106ea610e23366004613fc6565b6133c4565b600254610742565b6106d56133d0565b610742610e46366004613fc6565b613459565b6106d561349d565b6106d5610e6136600461426f565b61357e565b602b54602c546109e2565b5f5160206146185f395f51905f52610742565b5f5160206145b85f395f51905f52610742565b6106d5613696565b61072261373b565b6106d5613747565b7f2d95a8186db49da8bd2356c70cf02038f7de0d6ed39f6766fe2d93d5e7785616610742565b610742610ee3366004613fc6565b6137f6565b6106d5610ef6366004614247565b61383a565b6109e2610f09366004613fc6565b6138f9565b6106d5610f1c366004613fc6565b61394a565b6106d5610f2f366004613fc6565b613a24565b6018546001600160a01b0316610803565b6106ea610f53366004613fc6565b613ad5565b6106ea610f66366004613fc6565b6003546001600160a01b0391821691161490565b6107427feedf4efa79fc226bcd92608fa739417faae7683bbd82820b98afc617a1751ee181565b5f5160206145f85f395f51905f52610fb881613ae1565b5f5160206146585f395f51905f525f5260016020525f5160206146385f395f51905f52546001600160a01b0316806110035760405163c0815d8160e01b815260040160405180910390fd5b604051630a8209b760e01b81526001600160a01b03821690630a8209b790611035908990899089908990600401614428565b5f604051808303815f87803b15801561104c575f5ffd5b505af115801561105e573d5f5f3e3d5ffd5b50505050505050505050565b5f6001600160e01b03198216637965db0b60e01b148061109a57506301ffc9a760e01b6001600160e01b03198316145b92915050565b5f5160206146185f395f51905f526110b781613ae1565b6127108211156110da57604051630236095d60e11b815260040160405180910390fd5b8160215f8560028111156110f0576110f0614459565b600281111561110157611101614459565b815260208101919091526040015f205561111e62093a8042614481565b60225f85600281111561113357611133614459565b600281111561114457611144614459565b815260208101919091526040015f205582600281111561116657611166614459565b7f79548367f12987b3f5043ed1f421f89ebc84ab67cdaa9ee1e4d2a9e76b58ba0b8360225f87600281111561119d5761119d614459565b60028111156111ae576111ae614459565b81526020019081526020015f20546040516111d3929190918252602082015260400190565b60405180910390a2505050565b6025545f8190036112045760405163d5e6063d60e01b815260040160405180910390fd5b804210156112255760405163089cf88f60e21b815260040160405180910390fd5b6024805460238190555f918290556025919091556040519081527f1ab7e1c2577ef2ff1ab808b28915a8fb8371717c6e45797badd8053ec79a8319906020015b60405180910390a150565b606061127c6008613aee565b905090565b5f60205f83600281111561129757611297614459565b60028111156112a8576112a8614459565b81526020019081526020015f20549050919050565b5f61109a5f5160206146985f395f51905f528361268d565b5f61109a600683613b01565b5f5160206146185f395f51905f526112f881613ae1565b6001600160a01b03821661131f57604051635963709b60e01b815260040160405180910390fd5b600480546001600160a01b0319166001600160a01b03841617905561134762093a8042614481565b60058190556040519081526001600160a01b038316907e81013d01b2d41dec72c3449ec25ce9dda2847a6e11ad584836ab3589efe675906020015b60405180910390a25050565b606061127c6012613aee565b5f5160206145f85f395f51905f526113b181613ae1565b6001600160a01b0383166113d857604051635963709b60e01b815260040160405180910390fd5b602a548210156113fb57604051633c04450760e21b815260040160405180910390fd5b5f5160206146585f395f51905f525f5260016020525f5160206146385f395f51905f52546001600160a01b0316806114465760405163c0815d8160e01b815260040160405180910390fd5b6040516365c61e0960e01b81526001600160a01b038581166004830152602482018590528216906365c61e09906044015b5f604051808303815f87803b15801561148e575f5ffd5b505af11580156114a0573d5f5f3e3d5ffd5b5050505050505050565b5f5160206145f85f395f51905f526114c181613ae1565b6114cc602883613b22565b6114e95760405163013195ed60e51b815260040160405180910390fd5b6040516001600160a01b038316907f9ea6376bcd095bc346ab7f5c534391c1a6ba1bb5153caf5e068742acd4f55162905f90a25050565b61152b600682613b01565b6115485760405163fd52f5d960e01b815260040160405180910390fd5b6001600160a01b0381165f908152600e6020526040902060018101548061158257604051636e90290960e01b815260040160405180910390fd5b81600201544210156115a75760405163089cf88f60e21b815260040160405180910390fd5b8082555f6001830181905560028301556040518181526001600160a01b038416907f86b54825d63e1f082661065387182da51e6eb5a1ae1e63e1b0fd8a99aaf7e11f906020016111d3565b5f61109a601483613b01565b5f5160206145f85f395f51905f5261161581613ae1565b6001600160a01b03821661163c57604051635963709b60e01b815260040160405180910390fd5b611647601683613b36565b6116645760405163f3f2a17960e01b815260040160405180910390fd5b6040516001600160a01b038316907fae5b7c3b000f575c241001dc9bcb3d8778376889353b07121115574eceff78c5905f90a25050565b5f818152600160205260408120546001600160a01b03168061109a5760405163c0815d8160e01b815260040160405180910390fd5b5f5160206145f85f395f51905f526116e781613ae1565b6116f2601683613b22565b61170f5760405163576418bf60e11b815260040160405180910390fd5b6040516001600160a01b038316907f4a2cf608bfb427f53279ec7f0eadf48913b9346ccefc3af138dbdec14ea0907d905f90a25050565b5f5160206146185f395f51905f5261175d81613ae1565b6001600160a01b03821661178457604051635963709b60e01b815260040160405180910390fd5b5f5160206145b85f395f51905f525f5260016020527f67c4f7ec829d6b6bf6cc94e456f9d5f6ebc36647e62c611850f830a987899d32546001600160a01b0316806117e25760405163c0815d8160e01b815260040160405180910390fd5b60405163012b5b8d60e51b81526001600160a01b03848116600483015282919082169063256b71a090602401611477565b6003545f906001600160a01b031661183e57604051630aa323a560e01b815260040160405180910390fd5b506003546001600160a01b031690565b611859600682613b01565b6118765760405163fd52f5d960e01b815260040160405180910390fd5b6001600160a01b0381165f908152600a602052604090206001810154806118b057604051636e90290960e01b815260040160405180910390fd5b81600201544210156118d55760405163089cf88f60e21b815260040160405180910390fd5b8082555f6001830181905560028301556040518181526001600160a01b038416907fac299fc62dbe9994754db34d3374ec4eb38e185895e08b5bbffa75e98bf2a53f906020016111d3565b5f8281526020819052604090206001015461193a81613ae1565b6119448383613b4a565b50505050565b5f5160206145f85f395f51905f5261196181613ae1565b5f5160206146785f395f51905f525f5260016020525f5160206145d85f395f51905f52546001600160a01b0316806119ac5760405163c0815d8160e01b815260040160405180910390fd5b60405163d4eb908360e01b8152600481018490526001600160a01b0382169063d4eb9083906024015b5f604051808303815f87803b1580156119ec575f5ffd5b505af11580156119fe573d5f5f3e3d5ffd5b50505050505050565b5f5160206145f85f395f51905f52611a1e81613ae1565b602a54821015611a4157604051633c04450760e21b815260040160405180910390fd5b5f5160206146585f395f51905f525f5260016020525f5160206146385f395f51905f52546001600160a01b031680611a8c5760405163c0815d8160e01b815260040160405180910390fd5b60405163100bc9e160e01b8152600481018490526001600160a01b0382169063100bc9e1906024016119d5565b6001600160a01b0381163314611ae25760405163334bd91960e11b815260040160405180910390fd5b611aec8282613bd9565b505050565b5f60225f836002811115611b0757611b07614459565b6002811115611b1857611b18614459565b81526020019081526020015f20549050805f03611b53578160405163c49cc7c360e01b8152600401611b4a9190614494565b60405180910390fd5b80421015611b745760405163089cf88f60e21b815260040160405180910390fd5b60215f836002811115611b8957611b89614459565b6002811115611b9a57611b9a614459565b81526020019081526020015f205460205f846002811115611bbd57611bbd614459565b6002811115611bce57611bce614459565b81526020019081526020015f208190555060215f836002811115611bf457611bf4614459565b6002811115611c0557611c05614459565b81526020019081526020015f205f905560225f836002811115611c2a57611c2a614459565b6002811115611c3b57611c3b614459565b81526020019081526020015f205f9055816002811115611c5d57611c5d614459565b7f53b82d85cd75c3f353186408e2e619ae5f01c371100dc061ee0423d12acb750860205f856002811115611c9357611c93614459565b6002811115611ca457611ca4614459565b81526020019081526020015f205460405161138291815260200190565b5f5160206145f85f395f51905f52611cd881613ae1565b5f5b82811015611d2557602a54848483818110611cf757611cf76144ba565b905060200201351015611d1d57604051633c04450760e21b815260040160405180910390fd5b600101611cda565b505f5160206146585f395f51905f525f5260016020525f5160206146385f395f51905f52546001600160a01b031680611d715760405163c0815d8160e01b815260040160405180910390fd5b60405163f7aad93960e01b81526001600160a01b0382169063f7aad93990611035908990899089908990600401614428565b5f5160206145f85f395f51905f52611dba81613ae1565b611dc5601083613b22565b611de25760405163416628c960e11b815260040160405180910390fd5b6040516001600160a01b038316907fe1434e25d6611e0db941968fdc97811c982ac1602e951637d206f5fdda9dd8f1905f90a25050565b5f80611e26600684613b01565b611e435760405163fd52f5d960e01b815260040160405180910390fd5b50506001600160a01b03165f908152600a6020526040902060018101546002909101549091565b5f5160206145f85f395f51905f52611e8181613ae1565b6001600160a01b038216611ea857604051635963709b60e01b815260040160405180910390fd5b611eb3601083613b36565b611ed05760405163d5e24a3360e01b815260040160405180910390fd5b6040516001600160a01b038316907fe366c1c0452ed8eec96861e9e54141ebff23c9ec89fe27b996b45f5ec3884987905f90a25050565b5f5160206145f85f395f51905f52611f1e81613ae1565b6001600160a01b038216611f4557604051635963709b60e01b815260040160405180910390fd5b611f50601483613b01565b15611f6e5760405163c551217160e01b815260040160405180910390fd5b611f79601483613b36565b506040516001600160a01b038316907f5a17551f8f59aacc175aed9daecc2461b2161d1ca643c75612710502de9d57b1905f90a25050565b5f5160206145f85f395f51905f52611fc881613ae1565b5f5b8251811015612054575f6001600160a01b0316838281518110611fef57611fef6144ba565b60200260200101516001600160a01b03160361201e57604051635963709b60e01b815260040160405180910390fd5b61204b838281518110612033576120336144ba565b6020026020010151601a613b3690919063ffffffff16565b50600101611fca565b5061206262093a8042614481565b601e557fdc25fd6bdd21f8da9b5b76d30960d45120a708e1f91ae912871da0fc21454979612090601a613aee565b601e546040516120a1929190614381565b60405180910390a15050565b5f5160206145f85f395f51905f526120c481613ae1565b5f5160206146585f395f51905f525f5260016020525f5160206146385f395f51905f52546001600160a01b03168061210f5760405163c0815d8160e01b815260040160405180910390fd5b60405163ae42457f60e01b81526001600160a01b0382169063ae42457f90612145908b908b908b908b908b908b906004016144ce565b5f604051808303815f87803b15801561215c575f5ffd5b505af115801561216e573d5f5f3e3d5ffd5b505050505050505050505050565b5f5160206145f85f395f51905f5261219381613ae1565b815f036121b357604051637ce8a95b60e01b815260040160405180910390fd5b60028290556040518281527ff957b69cfa930a437fa0211ed212fe9b40bfbf99f4e5734d9d6068834d33a928906020016120a1565b5f61109a601283613b01565b5f5160206145f85f395f51905f5261220b81613ae1565b612216600684613b01565b6122335760405163fd52f5d960e01b815260040160405180910390fd5b816122515760405163b0a5eb2960e01b815260040160405180910390fd5b5f61225f62093a8042614481565b6001600160a01b0385165f818152600a6020908152604091829020600181018890556002810185905582518881529182018590529394507f2f45381bbf8fc39bccf5516ecef3bec5e43aed86711ddaa35c12ab2d6073fd3691015b60405180910390a25050505050565b5f5160206145f85f395f51905f526122e081613ae1565b6122eb601283613b22565b61230857604051636b6fec7560e01b815260040160405180910390fd5b6040516001600160a01b038316907f10e1f7ce9fd7d1b90a66d13a2ab3cb8dd7f29f3f8d520b143b063ccfbab6906b905f90a25050565b5f5160206145f85f395f51905f5261235681613ae1565b5f5160206146585f395f51905f525f5260016020525f5160206146385f395f51905f52546001600160a01b0316806123a15760405163c0815d8160e01b815260040160405180910390fd5b604051631746bb2560e11b81526001600160a01b03821690632e8d764a906114779087908790600401614516565b5f5160206146185f395f51905f526123e681613ae1565b6026805461ff0019166101008415150217905561240662093a8042614481565b602781905560408051841515815260208101929092527f3ccaf2442d2b29874fd84ceba9675d97d4dde7d521be650f67faab29a9afb10a91016120a1565b5f61109a600883613b01565b5f5160206145f85f395f51905f5261246781613ae1565b5f5160206146585f395f51905f525f5260016020525f5160206146385f395f51905f52546001600160a01b0316806124b25760405163c0815d8160e01b815260040160405180910390fd5b604051637ee185c160e01b81526001600160a01b03858116600483015260248201859052821690637ee185c190604401611477565b606061127c6006613aee565b606061127c6014613aee565b5f5160206145f85f395f51905f5261251681613ae1565b6001600160a01b03831661253d57604051635963709b60e01b815260040160405180910390fd5b8180156125505750612550600884613b36565b15612589576040516001600160a01b038416907f11764f0d0c3db8483b5aa057c1f5266bac770010886dc97e83bec7f34f315807905f90a25b612594600684613b36565b15611aec576040516001600160a01b038416907f6b2d5736790b4cdb325004b8784c7b94dc55a32af9d82d1f6ceb5bd8c7c8573e905f90a2505050565b5f5160206146185f395f51905f526125e881613ae1565b600f5460ff161561260c5760405163392bb4b160e11b815260040160405180910390fd5b5f5160206146785f395f51905f525f5260016020525f5160206145d85f395f51905f52546001600160a01b0316806126575760405163c0815d8160e01b815260040160405180910390fd5b604051630483408f60e51b81526001600160a01b038581166004830152848116602483015282169063906811e090604401611477565b5f918252602082815260408084206001600160a01b0393909316845291905290205460ff1690565b5f5160206146185f395f51905f526126cc81613ae1565b5f5160206146785f395f51905f525f5260016020525f5160206145d85f395f51905f52546001600160a01b0316806127175760405163c0815d8160e01b815260040160405180910390fd5b60405163272b7add60e01b8152600481018490526001600160a01b0382169063272b7add906024016119d5565b606061127c6028613aee565b5f5160206145f85f395f51905f5261276781613ae1565b612772601483613b01565b61278f5760405163f9d1ad0760e01b815260040160405180910390fd5b61279a601483613b22565b506040516001600160a01b038316907fd5f663a5782ccd5e7465e8419aa75f38fdc175262978753ee490757f48d7318b905f90a25050565b5f61109a602883613b01565b5f5160206145f85f395f51905f526127f581613ae1565b5f5160206146785f395f51905f525f5260016020525f5160206145d85f395f51905f52546001600160a01b0316806128405760405163c0815d8160e01b815260040160405180910390fd5b60405163b0e5173b60e01b8152600481018490526001600160a01b0382169063b0e5173b906024016119d5565b5f61127c6014613c42565b5f5160206145f85f395f51905f5261288f81613ae1565b6001600160a01b0382166128b657604051635963709b60e01b815260040160405180910390fd5b6128c1602883613b36565b6128de57604051633bb4c20960e11b815260040160405180910390fd5b6040516001600160a01b038316907f12c16151d1e0db8865cc79e38b297dcc5b372789b7efc7cc4460df4e3a4afbd6905f90a25050565b606061127c6010613aee565b5f5160206145f85f395f51905f5261293881613ae1565b5f5160206146585f395f51905f525f5260016020525f5160206146385f395f51905f52546001600160a01b0316806129835760405163c0815d8160e01b815260040160405180910390fd5b604051632e87c1cf60e21b81526001600160a01b0382169063ba1f073c906129bd908d908d908d908d908d908d908d908d90600401614531565b5f604051808303815f87803b1580156129d4575f5ffd5b505af11580156129e6573d5f5f3e3d5ffd5b5050505050505050505050505050565b5f5160206145f85f395f51905f52612a0d81613ae1565b612a18600684613b01565b612a355760405163fd52f5d960e01b815260040160405180910390fd5b81612a535760405163b0a5eb2960e01b815260040160405180910390fd5b5f612a6162093a8042614481565b6001600160a01b0385165f818152600e6020908152604091829020600181018890556002810185905582518881529182018590529394507ffed894aa6018dfdc5cdaaa43cc8ab59cadae93a82571bdcf49f5219065a366dd91016122ba565b60605f5f612ace6028613c42565b905083818610612af2575050604080515f8082526020820190925292509050612bc7565b5f612afd8784614590565b905080821115612b0b578091505b816001600160401b03811115612b2357612b23614069565b604051908082528060200260200182016040528015612b4c578160200160208202803683370190505b5094505f5b82811015612ba057612b6e612b66828a614481565b602890613c4b565b868281518110612b8057612b806144ba565b6001600160a01b0390921660209283029190910190910152600101612b51565b5082612bac8389614481565b10612bb7575f612bc1565b612bc18288614481565b93505050505b9250929050565b5f5160206145f85f395f51905f52612be581613ae1565b826001600160401b03165f03612c0e5760405163030042b760e01b815260040160405180910390fd5b6001600160a01b038216612c3557604051635963709b60e01b815260040160405180910390fd5b6001600160401b0383165f908152600d60205260409020546001600160a01b031615612c8a576001600160401b0383165f908152600d6020526040902054612c8890600b906001600160a01b0316613b22565b505b612c95600b83613b36565b506001600160401b0383165f818152600d602052604080822080546001600160a01b0319166001600160a01b03871690811790915590519092917f5cb45d0d54e4695b28909810784917d1e30ad097489dc83bfc62abac3097f16991a3505050565b5f5160206146185f395f51905f52612d0e81613ae1565b602b829055612d2062093a8042614481565b602c8190556040805184815260208101929092527fae30e7c9277d9f36ab2ab07d353aa93dcc567106b5d571ebead929f12ebcd7ad91016120a1565b5f5160206146185f395f51905f52612d7381613ae1565b6001600160a01b038216612d9a57604051635963709b60e01b815260040160405180910390fd5b5f8381526001602052604080822080546001600160a01b0319166001600160a01b0386169081179091559051909185917fb37614c7d254ea8d16eb81fa11dddaeb266aa8ba4917980859c7740aff30c6919190a3505050565b5f5160206146185f395f51905f52612e0a81613ae1565b600f5460ff1615612e2e5760405163392bb4b160e11b815260040160405180910390fd5b600f805460ff191660011790556040517f0cfbf370e135d688f4de1107bfa980d42fe9e0884277d500e4a5262e207df76d905f90a150565b5f5160206145f85f395f51905f52612e7d81613ae1565b5f5b8251811015612f61575f6001600160a01b0316838281518110612ea457612ea46144ba565b60200260200101516001600160a01b031603612ed357604051635963709b60e01b815260040160405180910390fd5b60195f848381518110612ee857612ee86144ba565b6020908102919091018101516001600160a01b031682528101919091526040015f205460ff16612f2b57604051632ee42fdd60e01b815260040160405180910390fd5b612f58838281518110612f4057612f406144ba565b6020026020010151601c613b3690919063ffffffff16565b50600101612e7f565b50612f6f62093a8042614481565b601f557fdc25fd6bdd21f8da9b5b76d30960d45120a708e1f91ae912871da0fc21454979612f9d601c613aee565b601f546040516120a1929190614381565b5f5160206146185f395f51905f52612fc581613ae1565b6001600160a01b038216612fec57604051635963709b60e01b815260040160405180910390fd5b601880546001600160a01b0319166001600160a01b0384169081179091556040517fc881e48d34a3dc6ca8b8ab38320d54f4972a7ade617113524dc2c2bf44984c8a905f90a25050565b5f61127c6028613c42565b5f5160206146185f395f51905f5261305881613ae1565b6001600160a01b03821661307f57604051635963709b60e01b815260040160405180910390fd5b5f5160206145b85f395f51905f525f5260016020527f67c4f7ec829d6b6bf6cc94e456f9d5f6ebc36647e62c611850f830a987899d32546001600160a01b0316806130dd5760405163c0815d8160e01b815260040160405180910390fd5b604051636838484f60e11b81526001600160a01b03848116600483015282919082169063d070909e90602401611477565b5f8281526020819052604090206001015461312881613ae1565b6119448383613bd9565b5f5160206146985f395f51905f5261314981613ae1565b5f5160206146785f395f51905f525f5260016020525f5160206145d85f395f51905f52546001600160a01b0316806131945760405163c0815d8160e01b815260040160405180910390fd5b604051636af9e6c360e11b815283151560048201526001600160a01b0382169063d5f3cd86906024016119d5565b5f5160206146185f395f51905f526131d981613ae1565b60248290556131eb62093a8042614481565b60258190556040805184815260208101929092527f9ef1e125d24f54271ecd16a06b5e5dfe9b7f92809186ab8a23afa3c9f482067391016120a1565b601f5415806132375750601f5442105b156132555760405163089cf88f60e21b815260040160405180910390fd5b5f613260601c613aee565b80519091505f805b828110156132e657838181518110613282576132826144ba565b6020908102919091018101516001600160a01b0381165f908152601990925260409091205490925060ff16156132d2576001600160a01b0382165f908152601960205260409020805460ff191690555b6132dd601c83613b22565b50600101613268565b507f592ccb66164159ca890f72fc24cdab8c5fcfcfe35f7455b88e594060568ce011836040516133169190613f85565b60405180910390a150505f601f5550565b5f5160206145f85f395f51905f5261333e81613ae1565b6001600160a01b03821661336557604051635963709b60e01b815260040160405180910390fd5b613370601283613b36565b61338d57604051635ce1ae6160e11b815260040160405180910390fd5b6040516001600160a01b038316907f03580ee9f53a62b7cb409a2cb56f9be87747dd15017afc5cef6eef321e4fb2c5905f90a25050565b5f61109a601683613b01565b602c545f8190036133f457604051631849655b60e21b815260040160405180910390fd5b804210156134155760405163089cf88f60e21b815260040160405180910390fd5b602b8054602a8190555f91829055602c919091556040519081527f5ef721aefae68d3af172090ad589f1eb72736af265747458daf734c5c60d7daa90602001611265565b5f613465600683613b01565b6134825760405163fd52f5d960e01b815260040160405180910390fd5b506001600160a01b03165f908152600e602052604090205490565b601e5415806134ad5750601e5442105b156134cb5760405163089cf88f60e21b815260040160405180910390fd5b5f6134d6601a613aee565b80519091505f805b8281101561353d578381815181106134f8576134f86144ba565b6020908102919091018101516001600160a01b0381165f90815260199092526040909120805460ff191660011790559150613534601a83613b22565b506001016134de565b507ffcea9a0a0943a560b6065073054ea3e19aa43e137d7e753876775ad1179847c68360405161356d9190613f85565b60405180910390a150505f601e5550565b5f5160206145f85f395f51905f5261359581613ae1565b6001600160a01b03831615806135b257506001600160a01b038216155b156135d057604051635963709b60e01b815260040160405180910390fd5b5f5160206145b85f395f51905f525f5260016020527f67c4f7ec829d6b6bf6cc94e456f9d5f6ebc36647e62c611850f830a987899d32546001600160a01b03168061362e5760405163c0815d8160e01b815260040160405180910390fd5b6040516373bc7b1960e11b81526001600160a01b038581166004830152848116602483015282919082169063e778f632906044015f604051808303815f87803b158015613679575f5ffd5b505af115801561368b573d5f5f3e3d5ffd5b505050505050505050565b6027545f036136b85760405163ad7134db60e01b815260040160405180910390fd5b6027544210156136db5760405163089cf88f60e21b815260040160405180910390fd5b602680545f60275561ffff19811661010090910460ff908116151561ff00198116929092179092556040519116151581527f434397fd19989030741a6dd038e45b209af876fb83cafbd750fc5ad51be91ce99060200160405180910390a1565b606061127c6016613aee565b6004546001600160a01b0316613770576040516336a8ae3b60e21b815260040160405180910390fd5b6005544210156137935760405163089cf88f60e21b815260040160405180910390fd5b60038054600480546001600160a01b03198084166001600160a01b0383811691821790965591169091555f60058190556040519390921692909183917f6f32d4a08b9b9b8ee365ed09addde1536e0cc6a14a46e120923bafef349131e49190a350565b5f613802600683613b01565b61381f5760405163fd52f5d960e01b815260040160405180910390fd5b506001600160a01b03165f908152600a602052604090205490565b5f5160206146985f395f51905f5261385181613ae1565b6001600160a01b03831661387857604051635963709b60e01b815260040160405180910390fd5b5f5160206146785f395f51905f525f5260016020525f5160206145d85f395f51905f52546001600160a01b0316806138c35760405163c0815d8160e01b815260040160405180910390fd5b60405163f5297a4760e01b81526001600160a01b038581166004830152841515602483015282169063f5297a4790604401611477565b5f80613906600684613b01565b6139235760405163fd52f5d960e01b815260040160405180910390fd5b50506001600160a01b03165f908152600e6020526040902060018101546002909101549091565b5f5160206145f85f395f51905f5261396181613ae1565b61396c600883613b22565b156139a5576040516001600160a01b038316907f305fc42e276ebac0666dd3b0dbe7bd4014ce8a289b4078026176e821c4b5ef1d905f90a25b6139b0600683613b22565b15613a20576001600160a01b0382165f818152600a6020908152604080832083815560018082018590556002918201859055600e90935281842084815592830184905591909101829055517f47d0871e905ac6550f54ba266e0d90d2dc8ed67a957c064ca3438eddf4e3fd899190a25b5050565b5f5160206146185f395f51905f52613a3b81613ae1565b6001600160a01b038216613a6257604051635963709b60e01b815260040160405180910390fd5b6003546001600160a01b0316613abc57600380546001600160a01b0319166001600160a01b0384169081179091556040517f4f8ebeedbe3d26fd9e31b446c8da12464fc23cd6ce8c45510c211175190d62fa905f90a25050565b604051634d2159a560e01b815260040160405180910390fd5b5f61109a601083613b01565b613aeb8133613c56565b50565b60605f613afa83613c8f565b9392505050565b6001600160a01b0381165f9081526001830160205260408120541515613afa565b5f613afa836001600160a01b038416613ce8565b5f613afa836001600160a01b038416613dcb565b5f613b55838361268d565b613bd2575f838152602081815260408083206001600160a01b03861684529091529020805460ff19166001179055613b8a3390565b6001600160a01b0316826001600160a01b0316847f2f8788117e7eff1d82e926ec794901d17c78024a50270940304540a733656f0d60405160405180910390a450600161109a565b505f61109a565b5f613be4838361268d565b15613bd2575f838152602081815260408083206001600160a01b0386168085529252808320805460ff1916905551339286917ff6391f5c32d9c69d2a47ea670b442974b53935d1edc7fd64eb21e047a839171b9190a450600161109a565b5f61109a825490565b5f613afa8383613e10565b613c60828261268d565b613a205760405163e2517d3f60e01b81526001600160a01b038216600482015260248101839052604401611b4a565b6060815f01805480602002602001604051908101604052809291908181526020018280548015613cdc57602002820191905f5260205f20905b815481526020019060010190808311613cc8575b50505050509050919050565b5f8181526001830160205260408120548015613dc2575f613d0a600183614590565b85549091505f90613d1d90600190614590565b9050808214613d7c575f865f018281548110613d3b57613d3b6144ba565b905f5260205f200154905080875f018481548110613d5b57613d5b6144ba565b5f918252602080832090910192909255918252600188019052604090208390555b8554869080613d8d57613d8d6145a3565b600190038181905f5260205f20015f90559055856001015f8681526020019081526020015f205f90556001935050505061109a565b5f91505061109a565b5f818152600183016020526040812054613bd257508154600181810184555f84815260208082209093018490558454848252828601909352604090209190915561109a565b5f825f018281548110613e2557613e256144ba565b905f5260205f200154905092915050565b5f5f83601f840112613e46575f5ffd5b5081356001600160401b03811115613e5c575f5ffd5b6020830191508360208260051b8501011115612bc7575f5ffd5b5f5f5f5f60408587031215613e89575f5ffd5b84356001600160401b03811115613e9e575f5ffd5b613eaa87828801613e36565b90955093505060208501356001600160401b03811115613ec8575f5ffd5b613ed487828801613e36565b95989497509550505050565b5f60208284031215613ef0575f5ffd5b81356001600160e01b031981168114613afa575f5ffd5b803560038110613f15575f5ffd5b919050565b5f5f60408385031215613f2b575f5ffd5b613f3483613f07565b946020939093013593505050565b5f8151808452602084019350602083015f5b82811015613f7b5781516001600160a01b0316865260209586019590910190600101613f54565b5093949350505050565b602081525f613afa6020830184613f42565b5f60208284031215613fa7575f5ffd5b613afa82613f07565b80356001600160a01b0381168114613f15575f5ffd5b5f60208284031215613fd6575f5ffd5b613afa82613fb0565b5f5f60408385031215613ff0575f5ffd5b613f3483613fb0565b5f60208284031215614009575f5ffd5b5035919050565b5f5f60408385031215614021575f5ffd5b8235915061403160208401613fb0565b90509250929050565b80356001600160401b0381168114613f15575f5ffd5b5f60208284031215614060575f5ffd5b613afa8261403a565b634e487b7160e01b5f52604160045260245ffd5b5f6020828403121561408d575f5ffd5b81356001600160401b038111156140a2575f5ffd5b8201601f810184136140b2575f5ffd5b80356001600160401b038111156140cb576140cb614069565b8060051b604051601f19603f83011681018181106001600160401b03821117156140f7576140f7614069565b604052918252602081840181019290810187841115614114575f5ffd5b6020850194505b8385101561413a5761412c85613fb0565b81526020948501940161411b565b509695505050505050565b5f5f5f5f5f5f6060878903121561415a575f5ffd5b86356001600160401b0381111561416f575f5ffd5b61417b89828a01613e36565b90975095505060208701356001600160401b03811115614199575f5ffd5b6141a589828a01613e36565b90955093505060408701356001600160401b038111156141c3575f5ffd5b6141cf89828a01613e36565b979a9699509497509295939492505050565b5f5f602083850312156141f2575f5ffd5b82356001600160401b03811115614207575f5ffd5b61421385828601613e36565b90969095509350505050565b80358015158114613f15575f5ffd5b5f6020828403121561423e575f5ffd5b613afa8261421f565b5f5f60408385031215614258575f5ffd5b61426183613fb0565b91506140316020840161421f565b5f5f60408385031215614280575f5ffd5b61428983613fb0565b915061403160208401613fb0565b5f5f5f5f5f5f5f5f6080898b0312156142ae575f5ffd5b88356001600160401b038111156142c3575f5ffd5b6142cf8b828c01613e36565b90995097505060208901356001600160401b038111156142ed575f5ffd5b6142f98b828c01613e36565b90975095505060408901356001600160401b03811115614317575f5ffd5b6143238b828c01613e36565b90955093505060608901356001600160401b03811115614341575f5ffd5b61434d8b828c01613e36565b999c989b5096995094979396929594505050565b5f5f60408385031215614372575f5ffd5b50508035926020909101359150565b604081525f6143936040830185613f42565b90508260208301529392505050565b5f5f604083850312156143b3575f5ffd5b6142898361403a565b8183526020830192505f815f5b84811015613f7b576001600160a01b036143e283613fb0565b16865260209586019591909101906001016143c9565b8183525f6001600160fb1b0383111561440f575f5ffd5b8260051b80836020870137939093016020019392505050565b604081525f61443b6040830186886143bc565b828103602084015261444e8185876143f8565b979650505050505050565b634e487b7160e01b5f52602160045260245ffd5b634e487b7160e01b5f52601160045260245ffd5b8082018082111561109a5761109a61446d565b60208101600383106144b457634e487b7160e01b5f52602160045260245ffd5b91905290565b634e487b7160e01b5f52603260045260245ffd5b606081525f6144e160608301888a6143bc565b82810360208401526144f48187896143bc565b905082810360408401526145098185876143f8565b9998505050505050505050565b602081525f6145296020830184866143f8565b949350505050565b608081525f614544608083018a8c6143bc565b828103602084015261455781898b6143bc565b9050828103604084015261456c8187896143f8565b905082810360608401526145818185876143bc565b9b9a5050505050505050505050565b8181038181111561109a5761109a61446d565b634e487b7160e01b5f52603160045260245ffdfe10a6d3423ebeddf46f8c77b7e249d313351d9fda850f4f4dc4a539ffa813f84ea41fc095864a7cc7f7ccf6f6047d80fc8b4b7a42ef4d4564fbd9289f6d1326ea7935bd0ae54bc31f548c14dba4d37c5c64b3f8ca900cb468fb8abd54d5894f55c0ee60805b8bd4d4959485089d4c7d3c591c8a613b4b48cd7c138db075c78a8571ea3596c4462b9523385407b9078f838cb4810fa4a357281465717a36794ccda250b26a989142b18839ac243bc5322a67be795b1255e91f64802e3b601bc7fa8e28a5743fae4fd410640cf08d6397e5a9f93fa166f00abff1df87d842b3092855435dd261a4b9b3364963f7738a7a662ad9c84396d64be3365284bb7f0a5041a164736f6c634300081e000a2d95a8186db49da8bd2356c70cf02038f7de0d6ed39f6766fe2d93d5e77856162c5f9a2e204d4db70ad0f9037679e33061b4c51a386497019bee969e16be28d77935bd0ae54bc31f548c14dba4d37c5c64b3f8ca900cb468fb8abd54d5894f55c0ee60805b8bd4d4959485089d4c7d3c591c8a613b4b48cd7c138db075c78a85156774b33c8bc7cb83eda4cbc43b36c7c9490ff8913c488ccd5132cfc71344ea53b82d85cd75c3f353186408e2e619ae5f01c371100dc061ee0423d12acb7508","linkReferences":{}},"methodIdentifiers":{"BANK_MANAGER()":"67e21123","BANK_MANAGER_ROLE()":"f2157052","DEFAULT_ADMIN_ROLE()":"a217fddf","ECDSAPPSORACLE()":"ffdb5200","GOVERNOR_ROLE()":"ccc57490","GUARDIAN_ROLE()":"24ea54f4","SUP()":"95c0bf69","SUPER_ASSET_FACTORY()":"ec63a694","SUPER_BANK()":"6f2140c1","SUPER_GOVERNOR_ROLE()":"ec45ad53","SUPER_ORACLE()":"90d4a56d","SUPER_VAULT_AGGREGATOR()":"c9838819","TREASURY()":"2d2c5565","UP()":"24f4ec51","VAULT_BANK()":"39e0739e","addExecutor(address)":"1f5a0bbe","addICCToWhitelist(address)":"d070909e","addRelayer(address)":"dd39f00d","addSuperformManager(address)":"b291fdf3","addValidator(address)":"4d238c8e","addVaultBank(uint64,address)":"becbf729","batchSetEmergencyPrices(address[],uint256[])":"00f1131f","batchSetOracleUptimeFeed(address[],address[],uint256[])":"52ad8b00","changeHooksRootUpdateTimelock(uint256)":"9649933b","changePrimaryManager(address,address)":"906811e0","executeActivePPSOracleChange()":"f1031b4e","executeAddIncentiveTokens()":"e5cc7970","executeFeeUpdate(uint8)":"365d6bf3","executeMinStalenesChange()":"df767d13","executeRemoveIncentiveTokens()":"dc972801","executeSuperBankHookMerkleRootUpdate(address)":"290c49a1","executeUpkeepClaim(uint256)":"3202ac23","executeUpkeepCostPerUpdateChange()":"045b4bdf","executeUpkeepPaymentsChange()":"ecc3d967","executeVaultBankHookMerkleRootUpdate(address)":"1de73a40","freezeManagerTakeover()":"ca774c12","getActivePPSOracle()":"275f0f2b","getAddress(bytes32)":"21f8a721","getAllSuperformManagers()":"a1d1ab43","getExecutors()":"ef09e78f","getFee(uint8)":"083132c4","getManagersPaginated(uint256,uint256)":"be5edae5","getMinStaleness()":"29f05976","getPPSOracleQuorum()":"df6aaf96","getProposedActivePPSOracle()":"a86ed388","getProposedMinStaleness()":"e8422432","getProposedSuperBankHookMerkleRoot(address)":"43844de6","getProposedUpkeepCostPerUpdate()":"8be48ce6","getProposedUpkeepPaymentsStatus()":"57b8b13d","getProposedVaultBankHookMerkleRoot(address)":"f7536506","getProtectedKeepers()":"84570ebf","getProtectedKeepersCount()":"b1c0374d","getProver()":"f9a83be7","getRegisteredFulfillRequestsHooks()":"046c7418","getRegisteredHooks()":"841b0175","getRelayers()":"179ff4b2","getRoleAdmin(bytes32)":"248a9ca3","getSuperBankHookMerkleRoot(address)":"f43526f4","getSuperformManagersCount()":"cc8bb5e4","getUpkeepCostPerUpdate()":"b4e111ca","getValidators()":"b7ab4db5","getVaultBank(uint64)":"3e099f30","getVaultBankHookMerkleRoot(address)":"dfebb1c2","grantRole(bytes32,address)":"2f2ff15d","hasRole(bytes32,address)":"91d14854","isActivePPSOracle(address)":"fd6f0fc2","isExecutor(address)":"debfda30","isFulfillRequestsHookRegistered(address)":"7d3e649e","isGuardian(address)":"0c68ba21","isHookRegistered(address)":"0cbad00c","isManagerTakeoverFrozen()":"5721145f","isProtectedKeeper(address)":"1e1c3d38","isRelayer(address)":"541d5548","isSuperformManager(address)":"ae4d256e","isUpkeepPaymentsEnabled()":"3ef15059","isValidator(address)":"facd743b","isWhitelistedIncentiveToken(address)":"7045af80","proposeActivePPSOracle(address)":"1551c6c0","proposeAddIncentiveTokens(address[])":"51597672","proposeFee(uint8,uint256)":"022e38cf","proposeGlobalHooksRoot(bytes32)":"b0e5173b","proposeMinStaleness(uint256)":"c0c10943","proposeRemoveIncentiveTokens(address[])":"cb53603e","proposeSuperBankHookMerkleRoot(address,bytes32)":"5e46e8b9","proposeUpkeepCostPerUpdate(uint256)":"d6a8bf3a","proposeUpkeepPaymentsChange(bool)":"778f8a93","proposeVaultBankHookMerkleRoot(address,bytes32)":"ba96fb67","queueOracleProviderRemoval(bytes32[])":"6490305f","queueOracleUpdate(address[],address[],bytes32[],address[])":"ba1f073c","registerHook(address,bool)":"8481643b","registerProtectedKeeper(address)":"50151492","removeExecutor(address)":"24788429","removeICCFromWhitelist(address)":"256b71a0","removeRelayer(address)":"60f0a5ac","removeSuperformManager(address)":"1c70d542","removeValidator(address)":"40a141ff","renounceRole(bytes32,address)":"36568abe","revokeRole(bytes32,address)":"d547741f","setActivePPSOracle(address)":"f9525fb7","setAddress(bytes32,address)":"ca446dd9","setEmergencyPrice(address,uint256)":"7ee185c1","setGlobalHooksRootVetoStatus(bool)":"d5f3cd86","setOracleFeedMaxStaleness(address,uint256)":"17a79fa6","setOracleFeedMaxStalenessBatch(address[],uint256[])":"3fa9fe64","setOracleMaxStaleness(uint256)":"324341ed","setPPSOracleQuorum(uint256)":"52da1de3","setProver(address)":"cbda2992","setStrategyHooksRootVetoStatus(address,bool)":"f5297a47","setSuperAssetManager(address,address)":"e778f632","supportsInterface(bytes4)":"01ffc9a7","unregisterHook(address)":"f76f48cb","unregisterProtectedKeeper(address)":"a390ad1e"},"id":459}