{"abi":[{"type":"constructor","inputs":[{"name":"superGovernor_","type":"address","internalType":"address"}],"stateMutability":"nonpayable"},{"type":"function","name":"AUTHORIZE_OPERATOR_TYPEHASH","inputs":[],"outputs":[{"name":"","type":"bytes32","internalType":"bytes32"}],"stateMutability":"view"},{"type":"function","name":"DOMAIN_SEPARATOR","inputs":[],"outputs":[{"name":"","type":"bytes32","internalType":"bytes32"}],"stateMutability":"view"},{"type":"function","name":"PRECISION","inputs":[],"outputs":[{"name":"","type":"uint256","internalType":"uint256"}],"stateMutability":"view"},{"type":"function","name":"allowance","inputs":[{"name":"owner","type":"address","internalType":"address"},{"name":"spender","type":"address","internalType":"address"}],"outputs":[{"name":"","type":"uint256","internalType":"uint256"}],"stateMutability":"view"},{"type":"function","name":"approve","inputs":[{"name":"spender","type":"address","internalType":"address"},{"name":"value","type":"uint256","internalType":"uint256"}],"outputs":[{"name":"","type":"bool","internalType":"bool"}],"stateMutability":"nonpayable"},{"type":"function","name":"asset","inputs":[],"outputs":[{"name":"","type":"address","internalType":"address"}],"stateMutability":"view"},{"type":"function","name":"authorizations","inputs":[{"name":"controller","type":"address","internalType":"address"},{"name":"nonce","type":"bytes32","internalType":"bytes32"}],"outputs":[{"name":"used","type":"bool","internalType":"bool"}],"stateMutability":"view"},{"type":"function","name":"authorizeOperator","inputs":[{"name":"controller","type":"address","internalType":"address"},{"name":"operator","type":"address","internalType":"address"},{"name":"approved","type":"bool","internalType":"bool"},{"name":"nonce","type":"bytes32","internalType":"bytes32"},{"name":"deadline","type":"uint256","internalType":"uint256"},{"name":"signature","type":"bytes","internalType":"bytes"}],"outputs":[{"name":"","type":"bool","internalType":"bool"}],"stateMutability":"nonpayable"},{"type":"function","name":"balanceOf","inputs":[{"name":"account","type":"address","internalType":"address"}],"outputs":[{"name":"","type":"uint256","internalType":"uint256"}],"stateMutability":"view"},{"type":"function","name":"burnShares","inputs":[{"name":"amount","type":"uint256","internalType":"uint256"}],"outputs":[],"stateMutability":"nonpayable"},{"type":"function","name":"cancelRedeem","inputs":[{"name":"controller","type":"address","internalType":"address"}],"outputs":[],"stateMutability":"nonpayable"},{"type":"function","name":"claimableRedeemRequest","inputs":[{"name":"","type":"uint256","internalType":"uint256"},{"name":"controller","type":"address","internalType":"address"}],"outputs":[{"name":"claimableShares","type":"uint256","internalType":"uint256"}],"stateMutability":"view"},{"type":"function","name":"convertToAssets","inputs":[{"name":"shares","type":"uint256","internalType":"uint256"}],"outputs":[{"name":"","type":"uint256","internalType":"uint256"}],"stateMutability":"view"},{"type":"function","name":"convertToShares","inputs":[{"name":"assets","type":"uint256","internalType":"uint256"}],"outputs":[{"name":"","type":"uint256","internalType":"uint256"}],"stateMutability":"view"},{"type":"function","name":"decimals","inputs":[],"outputs":[{"name":"","type":"uint8","internalType":"uint8"}],"stateMutability":"view"},{"type":"function","name":"deposit","inputs":[{"name":"assets","type":"uint256","internalType":"uint256"},{"name":"receiver","type":"address","internalType":"address"}],"outputs":[{"name":"shares","type":"uint256","internalType":"uint256"}],"stateMutability":"nonpayable"},{"type":"function","name":"eip712Domain","inputs":[],"outputs":[{"name":"fields","type":"bytes1","internalType":"bytes1"},{"name":"name","type":"string","internalType":"string"},{"name":"version","type":"string","internalType":"string"},{"name":"chainId","type":"uint256","internalType":"uint256"},{"name":"verifyingContract","type":"address","internalType":"address"},{"name":"salt","type":"bytes32","internalType":"bytes32"},{"name":"extensions","type":"uint256[]","internalType":"uint256[]"}],"stateMutability":"view"},{"type":"function","name":"escrow","inputs":[],"outputs":[{"name":"","type":"address","internalType":"address"}],"stateMutability":"view"},{"type":"function","name":"initialize","inputs":[{"name":"asset_","type":"address","internalType":"address"},{"name":"name_","type":"string","internalType":"string"},{"name":"symbol_","type":"string","internalType":"string"},{"name":"strategy_","type":"address","internalType":"address"},{"name":"escrow_","type":"address","internalType":"address"}],"outputs":[],"stateMutability":"nonpayable"},{"type":"function","name":"invalidateNonce","inputs":[{"name":"nonce","type":"bytes32","internalType":"bytes32"}],"outputs":[],"stateMutability":"nonpayable"},{"type":"function","name":"isOperator","inputs":[{"name":"owner","type":"address","internalType":"address"},{"name":"operator","type":"address","internalType":"address"}],"outputs":[{"name":"","type":"bool","internalType":"bool"}],"stateMutability":"view"},{"type":"function","name":"maxDeposit","inputs":[{"name":"","type":"address","internalType":"address"}],"outputs":[{"name":"","type":"uint256","internalType":"uint256"}],"stateMutability":"view"},{"type":"function","name":"maxMint","inputs":[{"name":"","type":"address","internalType":"address"}],"outputs":[{"name":"","type":"uint256","internalType":"uint256"}],"stateMutability":"view"},{"type":"function","name":"maxRedeem","inputs":[{"name":"owner","type":"address","internalType":"address"}],"outputs":[{"name":"","type":"uint256","internalType":"uint256"}],"stateMutability":"view"},{"type":"function","name":"maxWithdraw","inputs":[{"name":"owner","type":"address","internalType":"address"}],"outputs":[{"name":"","type":"uint256","internalType":"uint256"}],"stateMutability":"view"},{"type":"function","name":"mint","inputs":[{"name":"shares","type":"uint256","internalType":"uint256"},{"name":"receiver","type":"address","internalType":"address"}],"outputs":[{"name":"assets","type":"uint256","internalType":"uint256"}],"stateMutability":"nonpayable"},{"type":"function","name":"name","inputs":[],"outputs":[{"name":"","type":"string","internalType":"string"}],"stateMutability":"view"},{"type":"function","name":"onRedeemClaimable","inputs":[{"name":"user","type":"address","internalType":"address"},{"name":"assets","type":"uint256","internalType":"uint256"},{"name":"shares","type":"uint256","internalType":"uint256"},{"name":"averageWithdrawPrice","type":"uint256","internalType":"uint256"},{"name":"accumulatorShares","type":"uint256","internalType":"uint256"},{"name":"accumulatorCostBasis","type":"uint256","internalType":"uint256"}],"outputs":[],"stateMutability":"nonpayable"},{"type":"function","name":"pendingRedeemRequest","inputs":[{"name":"","type":"uint256","internalType":"uint256"},{"name":"controller","type":"address","internalType":"address"}],"outputs":[{"name":"pendingShares","type":"uint256","internalType":"uint256"}],"stateMutability":"view"},{"type":"function","name":"previewDeposit","inputs":[{"name":"assets","type":"uint256","internalType":"uint256"}],"outputs":[{"name":"","type":"uint256","internalType":"uint256"}],"stateMutability":"view"},{"type":"function","name":"previewMint","inputs":[{"name":"shares","type":"uint256","internalType":"uint256"}],"outputs":[{"name":"","type":"uint256","internalType":"uint256"}],"stateMutability":"view"},{"type":"function","name":"previewRedeem","inputs":[{"name":"","type":"uint256","internalType":"uint256"}],"outputs":[{"name":"","type":"uint256","internalType":"uint256"}],"stateMutability":"pure"},{"type":"function","name":"previewWithdraw","inputs":[{"name":"","type":"uint256","internalType":"uint256"}],"outputs":[{"name":"","type":"uint256","internalType":"uint256"}],"stateMutability":"pure"},{"type":"function","name":"redeem","inputs":[{"name":"shares","type":"uint256","internalType":"uint256"},{"name":"receiver","type":"address","internalType":"address"},{"name":"controller","type":"address","internalType":"address"}],"outputs":[{"name":"assets","type":"uint256","internalType":"uint256"}],"stateMutability":"nonpayable"},{"type":"function","name":"requestRedeem","inputs":[{"name":"shares","type":"uint256","internalType":"uint256"},{"name":"controller","type":"address","internalType":"address"},{"name":"owner","type":"address","internalType":"address"}],"outputs":[{"name":"","type":"uint256","internalType":"uint256"}],"stateMutability":"nonpayable"},{"type":"function","name":"setOperator","inputs":[{"name":"operator","type":"address","internalType":"address"},{"name":"approved","type":"bool","internalType":"bool"}],"outputs":[{"name":"success","type":"bool","internalType":"bool"}],"stateMutability":"nonpayable"},{"type":"function","name":"share","inputs":[],"outputs":[{"name":"","type":"address","internalType":"address"}],"stateMutability":"view"},{"type":"function","name":"strategy","inputs":[],"outputs":[{"name":"","type":"address","internalType":"contract ISuperVaultStrategy"}],"stateMutability":"view"},{"type":"function","name":"superGovernor","inputs":[],"outputs":[{"name":"","type":"address","internalType":"contract ISuperGovernor"}],"stateMutability":"view"},{"type":"function","name":"supportsInterface","inputs":[{"name":"interfaceId","type":"bytes4","internalType":"bytes4"}],"outputs":[{"name":"","type":"bool","internalType":"bool"}],"stateMutability":"pure"},{"type":"function","name":"symbol","inputs":[],"outputs":[{"name":"","type":"string","internalType":"string"}],"stateMutability":"view"},{"type":"function","name":"totalAssets","inputs":[],"outputs":[{"name":"","type":"uint256","internalType":"uint256"}],"stateMutability":"view"},{"type":"function","name":"totalSupply","inputs":[],"outputs":[{"name":"","type":"uint256","internalType":"uint256"}],"stateMutability":"view"},{"type":"function","name":"transfer","inputs":[{"name":"to","type":"address","internalType":"address"},{"name":"value","type":"uint256","internalType":"uint256"}],"outputs":[{"name":"","type":"bool","internalType":"bool"}],"stateMutability":"nonpayable"},{"type":"function","name":"transferFrom","inputs":[{"name":"from","type":"address","internalType":"address"},{"name":"to","type":"address","internalType":"address"},{"name":"value","type":"uint256","internalType":"uint256"}],"outputs":[{"name":"","type":"bool","internalType":"bool"}],"stateMutability":"nonpayable"},{"type":"function","name":"withdraw","inputs":[{"name":"assets","type":"uint256","internalType":"uint256"},{"name":"receiver","type":"address","internalType":"address"},{"name":"controller","type":"address","internalType":"address"}],"outputs":[{"name":"shares","type":"uint256","internalType":"uint256"}],"stateMutability":"nonpayable"},{"type":"event","name":"Approval","inputs":[{"name":"owner","type":"address","indexed":true,"internalType":"address"},{"name":"spender","type":"address","indexed":true,"internalType":"address"},{"name":"value","type":"uint256","indexed":false,"internalType":"uint256"}],"anonymous":false},{"type":"event","name":"Deposit","inputs":[{"name":"sender","type":"address","indexed":true,"internalType":"address"},{"name":"owner","type":"address","indexed":true,"internalType":"address"},{"name":"assets","type":"uint256","indexed":false,"internalType":"uint256"},{"name":"shares","type":"uint256","indexed":false,"internalType":"uint256"}],"anonymous":false},{"type":"event","name":"EIP712DomainChanged","inputs":[],"anonymous":false},{"type":"event","name":"Initialized","inputs":[{"name":"version","type":"uint64","indexed":false,"internalType":"uint64"}],"anonymous":false},{"type":"event","name":"NonceInvalidated","inputs":[{"name":"sender","type":"address","indexed":true,"internalType":"address"},{"name":"nonce","type":"bytes32","indexed":true,"internalType":"bytes32"}],"anonymous":false},{"type":"event","name":"OperatorSet","inputs":[{"name":"controller","type":"address","indexed":true,"internalType":"address"},{"name":"operator","type":"address","indexed":true,"internalType":"address"},{"name":"approved","type":"bool","indexed":false,"internalType":"bool"}],"anonymous":false},{"type":"event","name":"RedeemClaimable","inputs":[{"name":"user","type":"address","indexed":true,"internalType":"address"},{"name":"requestId","type":"uint256","indexed":true,"internalType":"uint256"},{"name":"assets","type":"uint256","indexed":false,"internalType":"uint256"},{"name":"shares","type":"uint256","indexed":false,"internalType":"uint256"},{"name":"averageWithdrawPrice","type":"uint256","indexed":false,"internalType":"uint256"},{"name":"accumulatorShares","type":"uint256","indexed":false,"internalType":"uint256"},{"name":"accumulatorCostBasis","type":"uint256","indexed":false,"internalType":"uint256"}],"anonymous":false},{"type":"event","name":"RedeemRequest","inputs":[{"name":"controller","type":"address","indexed":true,"internalType":"address"},{"name":"owner","type":"address","indexed":true,"internalType":"address"},{"name":"requestId","type":"uint256","indexed":true,"internalType":"uint256"},{"name":"sender","type":"address","indexed":false,"internalType":"address"},{"name":"assets","type":"uint256","indexed":false,"internalType":"uint256"}],"anonymous":false},{"type":"event","name":"RedeemRequestCancelled","inputs":[{"name":"controller","type":"address","indexed":true,"internalType":"address"},{"name":"sender","type":"address","indexed":true,"internalType":"address"}],"anonymous":false},{"type":"event","name":"SuperGovernorSet","inputs":[{"name":"superGovernor","type":"address","indexed":true,"internalType":"address"}],"anonymous":false},{"type":"event","name":"Transfer","inputs":[{"name":"from","type":"address","indexed":true,"internalType":"address"},{"name":"to","type":"address","indexed":true,"internalType":"address"},{"name":"value","type":"uint256","indexed":false,"internalType":"uint256"}],"anonymous":false},{"type":"event","name":"Withdraw","inputs":[{"name":"sender","type":"address","indexed":true,"internalType":"address"},{"name":"receiver","type":"address","indexed":true,"internalType":"address"},{"name":"owner","type":"address","indexed":true,"internalType":"address"},{"name":"assets","type":"uint256","indexed":false,"internalType":"uint256"},{"name":"shares","type":"uint256","indexed":false,"internalType":"uint256"}],"anonymous":false},{"type":"error","name":"CAP_EXCEEDED","inputs":[]},{"type":"error","name":"CONTROLLER_MUST_EQUAL_OWNER","inputs":[]},{"type":"error","name":"DEADLINE_PASSED","inputs":[]},{"type":"error","name":"ECDSAInvalidSignature","inputs":[]},{"type":"error","name":"ECDSAInvalidSignatureLength","inputs":[{"name":"length","type":"uint256","internalType":"uint256"}]},{"type":"error","name":"ECDSAInvalidSignatureS","inputs":[{"name":"s","type":"bytes32","internalType":"bytes32"}]},{"type":"error","name":"ERC20InsufficientAllowance","inputs":[{"name":"spender","type":"address","internalType":"address"},{"name":"allowance","type":"uint256","internalType":"uint256"},{"name":"needed","type":"uint256","internalType":"uint256"}]},{"type":"error","name":"ERC20InsufficientBalance","inputs":[{"name":"sender","type":"address","internalType":"address"},{"name":"balance","type":"uint256","internalType":"uint256"},{"name":"needed","type":"uint256","internalType":"uint256"}]},{"type":"error","name":"ERC20InvalidApprover","inputs":[{"name":"approver","type":"address","internalType":"address"}]},{"type":"error","name":"ERC20InvalidReceiver","inputs":[{"name":"receiver","type":"address","internalType":"address"}]},{"type":"error","name":"ERC20InvalidSender","inputs":[{"name":"sender","type":"address","internalType":"address"}]},{"type":"error","name":"ERC20InvalidSpender","inputs":[{"name":"spender","type":"address","internalType":"address"}]},{"type":"error","name":"INVALID_AMOUNT","inputs":[]},{"type":"error","name":"INVALID_ASSET","inputs":[]},{"type":"error","name":"INVALID_ASSET","inputs":[]},{"type":"error","name":"INVALID_CONTROLLER","inputs":[]},{"type":"error","name":"INVALID_ESCROW","inputs":[]},{"type":"error","name":"INVALID_NONCE","inputs":[]},{"type":"error","name":"INVALID_OWNER_OR_OPERATOR","inputs":[]},{"type":"error","name":"INVALID_PPS","inputs":[]},{"type":"error","name":"INVALID_SIGNATURE","inputs":[]},{"type":"error","name":"INVALID_STRATEGY","inputs":[]},{"type":"error","name":"INVALID_WITHDRAW_PRICE","inputs":[]},{"type":"error","name":"InvalidInitialization","inputs":[]},{"type":"error","name":"NOT_IMPLEMENTED","inputs":[]},{"type":"error","name":"NotInitializing","inputs":[]},{"type":"error","name":"REQUEST_NOT_FOUND","inputs":[]},{"type":"error","name":"ReentrancyGuardReentrantCall","inputs":[]},{"type":"error","name":"SafeERC20FailedOperation","inputs":[{"name":"token","type":"address","internalType":"address"}]},{"type":"error","name":"TRANSFER_FAILED","inputs":[]},{"type":"error","name":"UNAUTHORIZED","inputs":[]},{"type":"error","name":"ZERO_ADDRESS","inputs":[]},{"type":"error","name":"ZERO_AMOUNT","inputs":[]}],"bytecode":{"object":"0x60a060405234801561000f575f5ffd5b5060405161373d38038061373d83398101604081905261002e9161014c565b6001600160a01b0381166100555760405163538ba4f960e01b815260040160405180910390fd5b6001600160a01b03811660808190526040517f0da0926ffeff398fc5913fba71778c90421d4af535e207f385a39e335cbfa692905f90a261009461009a565b50610179565b7ff0c57e16840df040f15088dc2f81fe391c3923bec73e23a9662efc9c229c6a00805468010000000000000000900460ff16156100ea5760405163f92ee8a960e01b815260040160405180910390fd5b80546001600160401b03908116146101495780546001600160401b0319166001600160401b0390811782556040519081527fc7f505b2f371ae2175ee4913f4499e1f2633a7b5936321eed1cdaeb6115181d29060200160405180910390a15b50565b5f6020828403121561015c575f5ffd5b81516001600160a01b0381168114610172575f5ffd5b9392505050565b60805161359e61019f5f395f81816103be01528181611f190152611f48015261359e5ff3fe608060405234801561000f575f5ffd5b5060043610610281575f3560e01c80637d41c86e11610156578063b6363cf2116100ca578063d905777e11610084578063d905777e146105f7578063dd62ed3e1461060a578063e2fdcc171461061d578063eaed1d0714610630578063ef8b30f714610643578063f5a23d8d14610656575f5ffd5b8063b6363cf214610559578063ba08765214610586578063c63d75b614610424578063c6e6f59214610599578063cdf5bba3146105ac578063ce96cb77146105e4575f5ffd5b8063a8c62e761161011b578063a8c62e76146104f2578063a8d5fd6514610505578063a9059cbb14610517578063aaf5eb681461052a578063b3d7f6b914610533578063b460af9414610546575f5ffd5b80637d41c86e1461049657806384b0196e146104a9578063853c637d146104c457806394bf804d146104d757806395d89b41146104ea575f5ffd5b8063313ce567116101f85780634cdad506116101b25780634cdad506146102fe578063558a7297146104375780636cf1dbed1461044a5780636e553f651461045d57806370a0823114610470578063711b58ff14610483575f5ffd5b8063313ce5671461039a5780633289cbfb146103b95780633644e515146103f857806338401c431461040057806338d52e0f14610413578063402d267d14610424575f5ffd5b80630a28a477116102495780630a28a477146102fe5780630c0b4309146103115780630d62c3321461032657806318160ddd1461034d578063234f0e3b1461037457806323b872dd14610387575f5ffd5b806301e1d1141461028557806301ffc9a7146102a057806306fdde03146102c357806307a2d13a146102d8578063095ea7b3146102eb575b5f5ffd5b61028d610669565b6040519081526020015b60405180910390f35b6102b36102ae366004612ca0565b6106c3565b6040519015158152602001610297565b6102cb610765565b6040516102979190612cf5565b61028d6102e6366004612d07565b61080a565b6102b36102f9366004612d32565b61083a565b61028d61030c366004612d07565b610851565b61032461031f366004612d5c565b61086b565b005b61028d7fa3efcf8cb518126a85cdfd1c1102ee539e0700189f80926e1ac37144450473fa81565b7f52c63247e1f47db19d5ce0460030c497f067ca4cebf71ba98eeadabe20bace025461028d565b610324610382366004612d07565b6108fa565b6102b3610395366004612da4565b610984565b600154600160a01b900460ff1660405160ff9091168152602001610297565b6103e07f000000000000000000000000000000000000000000000000000000000000000081565b6040516001600160a01b039091168152602001610297565b61028d6109a7565b61032461040e366004612de2565b6109b5565b6001546001600160a01b03166103e0565b61028d610432366004612de2565b610b27565b6102b3610445366004612e0a565b610b44565b610324610458366004612eea565b610bde565b61028d61046b366004612f87565b610e33565b61028d61047e366004612de2565b610f9e565b6102b3610491366004612faa565b610fc4565b61028d6104a436600461303f565b61119d565b6104b16113de565b604051610297979695949392919061307e565b6103246104d2366004612d07565b61148c565b61028d6104e5366004612f87565b6114d0565b6102cb611685565b6002546103e0906001600160a01b031681565b5f546103e0906001600160a01b031681565b6102b3610525366004612d32565b6116c3565b61028d60045481565b61028d610541366004612d07565b6116d0565b61028d61055436600461303f565b61174c565b6102b3610567366004613114565b600560209081525f928352604080842090915290825290205460ff1681565b61028d61059436600461303f565b611918565b61028d6105a7366004612d07565b611aca565b6102b36105ba366004612d32565b6001600160a01b03919091165f908152600660209081526040808320938352929052205460ff1690565b61028d6105f2366004612de2565b611af3565b61028d610605366004612de2565b611b5f565b61028d610618366004613114565b611bf8565b6003546103e0906001600160a01b031681565b61028d61063e366004612f87565b611c41565b61028d610651366004612d07565b611c4b565b61028d610664366004612f87565b611cc6565b5f5f6106937f52c63247e1f47db19d5ce0460030c497f067ca4cebf71ba98eeadabe20bace025490565b9050805f036106a3575f91505090565b5f6106ac611d32565b90506106bc82826004545f611d9d565b9250505090565b5f6001600160e01b03198216631883ba3960e21b14806106f357506001600160e01b031982166301ffc9a760e01b145b8061070e57506001600160e01b031982166354f2843960e11b145b8061072957506001600160e01b0319821663043eff2d60e51b145b8061074457506001600160e01b03198216632f0a18c560e01b145b8061075f57506001600160e01b0319821663e3bc4e6560e01b145b92915050565b60605f5f5160206135325f395f51905f525b905080600301805461078890613140565b80601f01602080910402602001604051908101604052809291908181526020018280546107b490613140565b80156107ff5780601f106107d6576101008083540402835291602001916107ff565b820191905f5260205f20905b8154815290600101906020018083116107e257829003601f168201915b505050505091505090565b5f5f610814611d32565b9050805f0361082557505f92915050565b61083383826004545f611d9d565b9392505050565b5f33610847818585611ddf565b5060019392505050565b5f6040516343f6e4ab60e01b815260040160405180910390fd5b6002546001600160a01b031633146108965760405163075fd2b160e01b815260040160405180910390fd5b604080518681526020810186905290810184905260608101839052608081018290525f906001600160a01b038816907f3332e869907c9f558ba9c2a486c1630cc80b7fcdeaf5483e45db5e25ae91ae899060a00160405180910390a3505050505050565b335f90815260066020908152604080832084845290915290205460ff161561093557604051631b88d71d60e11b815260040160405180910390fd5b335f818152600660209081526040808320858452909152808220805460ff19166001179055518392917fe4cac50121bc4e1c58579b5c01be6a4a4ed489837c5adf24124b08bc08f2a58a91a350565b5f33610991858285611df1565b61099c858585611e55565b506001949350505050565b5f6109b0611eb2565b905090565b6109be81611ebb565b6002546040516353dc1dd360e01b81526001600160a01b0383811660048301525f9216906353dc1dd390602401602060405180830381865afa158015610a06573d5f5f3e3d5ffd5b505050506040513d601f19601f82011682018060405250810190610a2a9190613178565b600280546040516390b386ef60e01b81529293506001600160a01b0316916390b386ef91610a609186905f9081906004016131c3565b5f604051808303815f87803b158015610a77575f5ffd5b505af1158015610a89573d5f5f3e3d5ffd5b5050600354604051638b19802560e01b81526001600160a01b038681166004830152602482018690529091169250638b19802591506044015f604051808303815f87803b158015610ad8575f5ffd5b505af1158015610aea573d5f5f3e3d5ffd5b50506040513392506001600160a01b03851691507fdf02d7a8b2be691f5cf6b3bd02b2cef02fc24adc8470b6fdef5e7f05184943a2905f90a35050565b5f610b30611f15565b15610b3c57505f919050565b505f19919050565b5f6001600160a01b0383163303610b6e5760405163075fd2b160e01b815260040160405180910390fd5b335f8181526005602090815260408083206001600160a01b03881680855290835292819020805460ff191687151590811790915590519081529192917fceb576d9f15e4e200fdb5096d64d5dfd667e16def20c1eefd14256d8e3faa267910160405180910390a350600192915050565b5f610be7612097565b805490915060ff600160401b820416159067ffffffffffffffff165f81158015610c0e5750825b90505f8267ffffffffffffffff166001148015610c2a5750303b155b905081158015610c38575080155b15610c565760405163f92ee8a960e01b815260040160405180910390fd5b845467ffffffffffffffff191660011785558315610c8057845460ff60401b1916600160401b1785555b6001600160a01b038a16610ca7576040516333bb44cb60e21b815260040160405180910390fd5b6001600160a01b038716610cce5760405163084e779960e41b815260040160405180910390fd5b6001600160a01b038616610cf557604051636b27b9d760e11b815260040160405180910390fd5b610cff89896120bf565b610d076120d5565b610d2a89604051806040016040528060018152602001603160f81b8152506120e7565b600180546001600160a01b0319166001600160a01b038c169081179091555f908190610d55906120f9565b9150915081610d77576040516333bb44cb60e21b815260040160405180910390fd5b6001805460ff60a01b1916600160a01b60ff84811682029290921792839055610da3920416600a6132ef565b60045550505f8054306001600160a01b0319918216179091556002805482166001600160a01b038a811691909117909155600380549092169088161790558315610e2757845460ff60401b19168555604051600181527fc7f505b2f371ae2175ee4913f4499e1f2633a7b5936321eed1cdaeb6115181d29060200160405180910390a15b50505050505050505050565b5f610e3c6121f7565b6001600160a01b038216610e635760405163538ba4f960e01b815260040160405180910390fd5b825f03610e8357604051630f6fa54560e41b815260040160405180910390fd5b600254600154610ea2916001600160a01b03918216913391168661222e565b600254604051630ba2380560e11b81526001600160a01b0384811660048301526024820186905290911690631744700a906044016020604051808303815f875af1158015610ef2573d5f5f3e3d5ffd5b505050506040513d601f19601f82011682018060405250810190610f169190613178565b9050805f03610f3857604051630f6fa54560e41b815260040160405180910390fd5b610f428282612288565b60408051848152602081018390526001600160a01b0384169133917fdcbc1c05240f31ff3ad067ef1ee35ce4997762752e3a095284754544f4c709d7910160405180910390a361075f60015f5160206135725f395f51905f5255565b6001600160a01b03165f9081525f5160206135325f395f51905f52602052604090205490565b5f856001600160a01b0316876001600160a01b031603610ff75760405163075fd2b160e01b815260040160405180910390fd5b8242111561101857604051635d702ee160e01b815260040160405180910390fd5b6001600160a01b0387165f90815260066020908152604080832087845290915290205460ff161561105c5760405163075fd2b160e01b815260040160405180910390fd5b6001600160a01b038781165f8181526006602090815260408083208984528252808320805460ff1916600117905580517fa3efcf8cb518126a85cdfd1c1102ee539e0700189f80926e1ac37144450473fa928101929092528101929092529188166060820152861515608082015260a0810186905260c0810185905260e0016040516020818303038152906040528051906020012090505f6110fd826122cf565b905061110a8982866122fb565b61112757604051631468054760e31b815260040160405180910390fd5b6001600160a01b038981165f818152600560209081526040808320948d1680845294825291829020805460ff19168c151590811790915591519182527fceb576d9f15e4e200fdb5096d64d5dfd667e16def20c1eefd14256d8e3faa267910160405180910390a350600198975050505050505050565b5f835f036111be57604051630f6fa54560e41b815260040160405180910390fd5b6001600160a01b03821615806111db57506001600160a01b038316155b156111f95760405163538ba4f960e01b815260040160405180910390fd5b6001600160a01b038216331480159061123557506001600160a01b0382165f90815260056020908152604080832033845290915290205460ff16155b1561125357604051635710be5560e01b815260040160405180910390fd5b8361125d83610f9e565b101561127c5760405163fae8279160e01b815260040160405180910390fd5b816001600160a01b0316836001600160a01b0316146112ae57604051630b90aeb560e11b815260040160405180910390fd5b6003546112c69083906001600160a01b031686611ddf565b600354604051633aad4a4f60e01b81526001600160a01b0384811660048301526024820187905290911690633aad4a4f906044015f604051808303815f87803b158015611311575f5ffd5b505af1158015611323573d5f5f3e3d5ffd5b50506002546040516390b386ef60e01b81526001600160a01b0390911692506390b386ef915061135e9060019087905f908a906004016131c3565b5f604051808303815f87803b158015611375575f5ffd5b505af1158015611387573d5f5f3e3d5ffd5b505060408051338152602081018890525f93506001600160a01b0380871693508716917f1fdc681a13d8c5da54e301c7ce6542dcde4581e4725043fdab2db12ddc574506910160405180910390a4505f9392505050565b5f60608082808083815f5160206135525f395f51905f52805490915015801561140957506001810154155b6114525760405162461bcd60e51b81526020600482015260156024820152741152540dcc4c8e88155b9a5b9a5d1a585b1a5e9959605a1b60448201526064015b60405180910390fd5b61145a612320565b61146261235e565b604080515f80825260208201909252600f60f81b9c939b5091995046985030975095509350915050565b6002546001600160a01b031633146114b75760405163075fd2b160e01b815260040160405180910390fd5b6003546114cd906001600160a01b031682612374565b50565b5f6114d96121f7565b6001600160a01b0382166115005760405163538ba4f960e01b815260040160405180910390fd5b825f0361152057604051630f6fa54560e41b815260040160405180910390fd5b6002546040516349de7afb60e01b8152600481018590525f916001600160a01b0316906349de7afb906024016040805180830381865afa158015611566573d5f5f3e3d5ffd5b505050506040513d601f19601f8201168201806040525081019061158a91906132fd565b6002546001549294509092506115af916001600160a01b03908116913391168561222e565b6002546040516373d2df7d60e11b81526001600160a01b0385811660048301526024820187905260448201859052606482018490529091169063e7a5befa906084015f604051808303815f87803b158015611608575f5ffd5b505af115801561161a573d5f5f3e3d5ffd5b505050506116288385612288565b60408051838152602081018690526001600160a01b0385169133917fdcbc1c05240f31ff3ad067ef1ee35ce4997762752e3a095284754544f4c709d7910160405180910390a35061075f60015f5160206135725f395f51905f5255565b7f52c63247e1f47db19d5ce0460030c497f067ca4cebf71ba98eeadabe20bace0480546060915f5160206135325f395f51905f529161078890613140565b5f33610847818585611e55565b5f5f6116da611d32565b9050805f036116eb57505f92915050565b5f6116fb84836004546001611d9d565b90505f6117066123a8565b509050805f0361171857509392505050565b612710811061172b57505f949350505050565b6117438261271061173c848261331f565b6001611d9d565b95945050505050565b5f6117556121f7565b6001600160a01b03831661177c5760405163538ba4f960e01b815260040160405180910390fd5b61178582611ebb565b60025460405163335dce1160e21b81526001600160a01b0384811660048301525f92169063cd77384490602401602060405180830381865afa1580156117cd573d5f5f3e3d5ffd5b505050506040513d601f19601f820116820180604052508101906117f19190613178565b9050805f03611813576040516313a37fc960e31b815260040160405180910390fd5b5f61181d84611af3565b9050808611156118405760405163fae8279160e01b815260040160405180910390fd5b600454611850908790845f611d9d565b6002546040516390b386ef60e01b81529194506001600160a01b0316906390b386ef906118889060039088908a908c906004016131c3565b5f604051808303815f87803b15801561189f575f5ffd5b505af11580156118b1573d5f5f3e3d5ffd5b505060408051898152602081018790526001600160a01b0380891694508916925033917ffbde797d201c681b91056529119e0b02407c7bb96a4a2c75c01fc9667232c8db91015b60405180910390a4505061083360015f5160206135725f395f51905f5255565b5f6119216121f7565b6001600160a01b0383166119485760405163538ba4f960e01b815260040160405180910390fd5b61195182611ebb565b60025460405163335dce1160e21b81526001600160a01b0384811660048301525f92169063cd77384490602401602060405180830381865afa158015611999573d5f5f3e3d5ffd5b505050506040513d601f19601f820116820180604052508101906119bd9190613178565b9050805f036119df576040516313a37fc960e31b815260040160405180910390fd5b6004546119f090869083905f611d9d565b91505f6119fc84611af3565b905080831115611a1f5760405163fae8279160e01b815260040160405180910390fd5b6002546040516390b386ef60e01b81526001600160a01b03909116906390b386ef90611a569060039088908a9089906004016131c3565b5f604051808303815f87803b158015611a6d575f5ffd5b505af1158015611a7f573d5f5f3e3d5ffd5b505060408051868152602081018a90526001600160a01b0380891694508916925033917ffbde797d201c681b91056529119e0b02407c7bb96a4a2c75c01fc9667232c8db91016118f8565b5f5f611ad4611d32565b9050805f03611ae557505f92915050565b61083383600454835f611d9d565b600254604051631b8d2f0360e31b81526001600160a01b0383811660048301525f92169063dc69781890602401602060405180830381865afa158015611b3b573d5f5f3e3d5ffd5b505050506040513d601f19601f8201168201806040525081019061075f9190613178565b60025460405163335dce1160e21b81526001600160a01b0383811660048301525f92839291169063cd77384490602401602060405180830381865afa158015611baa573d5f5f3e3d5ffd5b505050506040513d601f19601f82011682018060405250810190611bce9190613178565b9050805f03611bdf57505f92915050565b610833600454825f611bf087611af3565b929190611d9d565b6001600160a01b039182165f9081527f52c63247e1f47db19d5ce0460030c497f067ca4cebf71ba98eeadabe20bace016020908152604080832093909416825291909152205490565b5f61083382611b5f565b5f5f611c55611d32565b9050805f03611c6657505f92915050565b5f611c6f6123a8565b509050805f03611c8f57611c8784600454845f611d9d565b949350505050565b5f611c9f85836127106001611d9d565b90505f611cac828761331f565b9050611cbc81600454865f611d9d565b9695505050505050565b6002546040516353dc1dd360e01b81526001600160a01b0383811660048301525f9216906353dc1dd390602401602060405180830381865afa158015611d0e573d5f5f3e3d5ffd5b505050506040513d601f19601f820116820180604052508101906108339190613178565b60025460408051632653517d60e01b815290515f926001600160a01b031691632653517d9160048083019260209291908290030181865afa158015611d79573d5f5f3e3d5ffd5b505050506040513d601f19601f820116820180604052508101906109b09190613178565b5f611dca611daa83612434565b8015611dc557505f8480611dc057611dc0613332565b868809115b151590565b611dd5868686612460565b6117439190613346565b611dec8383836001612510565b505050565b5f611dfc8484611bf8565b90505f19811015611e4f5781811015611e4157604051637dc7a0d960e11b81526001600160a01b03841660048201526024810182905260448101839052606401611449565b611e4f84848484035f612510565b50505050565b6001600160a01b038316611e7e57604051634b637e8f60e11b81525f6004820152602401611449565b6001600160a01b038216611ea75760405163ec442f0560e01b81525f6004820152602401611449565b611dec8383836125f4565b5f6109b06126cb565b6001600160a01b0381163314801590611ef757506001600160a01b0381165f90815260056020908152604080832033845290915290205460ff16155b156114cd5760405163e86374b760e01b815260040160405180910390fd5b5f5f7f00000000000000000000000000000000000000000000000000000000000000006001600160a01b03166321f8a7217f00000000000000000000000000000000000000000000000000000000000000006001600160a01b031663c98388196040518163ffffffff1660e01b8152600401602060405180830381865afa158015611fa2573d5f5f3e3d5ffd5b505050506040513d601f19601f82011682018060405250810190611fc69190613178565b6040518263ffffffff1660e01b8152600401611fe491815260200190565b602060405180830381865afa158015611fff573d5f5f3e3d5ffd5b505050506040513d601f19601f820116820180604052508101906120239190613359565b60025460405163180d405d60e31b81526001600160a01b03918216600482015291925082169063c06a02e890602401602060405180830381865afa15801561206d573d5f5f3e3d5ffd5b505050506040513d601f19601f820116820180604052508101906120919190613374565b91505090565b5f807ff0c57e16840df040f15088dc2f81fe391c3923bec73e23a9662efc9c229c6a0061075f565b6120c761273e565b6120d18282612763565b5050565b6120dd61273e565b6120e56127b3565b565b6120ef61273e565b6120d182826127bb565b5f5f826001600160a01b03163b5f03612125576040516333bb44cb60e21b815260040160405180910390fd5b60408051600481526024810182526020810180516001600160e01b031663313ce56760e01b17905290515f9182916001600160a01b038716916121679161338f565b5f60405180830381855afa9150503d805f811461219f576040519150601f19603f3d011682016040523d82523d5f602084013e6121a4565b606091505b50915091508180156121b857506020815110155b156121eb575f818060200190518101906121d29190613178565b905060ff81116121e9576001969095509350505050565b505b505f9485945092505050565b5f5160206135725f395f51905f5280546001190161222857604051633ee5aeb560e01b815260040160405180910390fd5b60029055565b604080516001600160a01b0385811660248301528416604482015260648082018490528251808303909101815260849091019091526020810180516001600160e01b03166323b872dd60e01b179052611e4f90859061281a565b6001600160a01b0382166122b15760405163ec442f0560e01b81525f6004820152602401611449565b6120d15f83836125f4565b60015f5160206135725f395f51905f5255565b5f61075f6122db611eb2565b8360405161190160f01b8152600281019290925260228201526042902090565b5f5f6123078484612886565b6001600160a01b03908116908616149150509392505050565b7fa16a46d94261c7517cc8ff89f61c0ce93598e3c849801011dee649a6a557d10280546060915f5160206135525f395f51905f529161078890613140565b60605f5f5160206135525f395f51905f52610777565b6001600160a01b03821661239d57604051634b637e8f60e11b81525f6004820152602401611449565b6120d1825f836125f4565b5f5f5f60025f9054906101000a90046001600160a01b03166001600160a01b03166378a1bf056040518163ffffffff1660e01b8152600401606060405180830381865afa1580156123fb573d5f5f3e3d5ffd5b505050506040513d601f19601f8201168201806040525081019061241f91906133a5565b90508060200151816040015192509250509091565b5f60028260038111156124495761244961318f565b6124539190613405565b60ff166001149050919050565b5f5f5f61246d86866128ae565b91509150815f036124915783818161248757612487613332565b0492505050610833565b8184116124a8576124a860038515026011186128ca565b5f848688095f868103871696879004966002600389028118808a02820302808a02820302808a02820302808a02820302808a02820302808a02909103029181900381900460010185841190960395909502919093039390930492909217029150509392505050565b5f5160206135325f395f51905f526001600160a01b0385166125475760405163e602df0560e01b81525f6004820152602401611449565b6001600160a01b03841661257057604051634a1406b160e11b81525f6004820152602401611449565b6001600160a01b038086165f908152600183016020908152604080832093881683529290522083905581156125ed57836001600160a01b0316856001600160a01b03167f8c5be1e5ebec7d5bd14f71427d1e84f3dd0314c0f7b2291e5b200ac8c7c3b925856040516125e491815260200190565b60405180910390a35b5050505050565b6001600160a01b0383161580159061261457506001600160a01b03821615155b801561262e57506003546001600160a01b03838116911614155b801561264857506003546001600160a01b03848116911614155b156126c0578080156126be576002546040516340f0e2f960e01b81526001600160a01b038681166004830152858116602483015260448201849052909116906340f0e2f9906064015f604051808303815f87803b1580156126a7575f5ffd5b505af11580156126b9573d5f5f3e3d5ffd5b505050505b505b611dec8383836128db565b5f7f8b73c3c69bb8fe3d512ecc4cf759cc79239f7b179b0ffacaa9a75d522b39400f6126f5612a14565b6126fd612a7c565b60408051602081019490945283019190915260608201524660808201523060a082015260c00160405160208183030381529060405280519060200120905090565b612746612abe565b6120e557604051631afcd79f60e31b815260040160405180910390fd5b61276b61273e565b5f5160206135325f395f51905f527f52c63247e1f47db19d5ce0460030c497f067ca4cebf71ba98eeadabe20bace036127a48482613476565b5060048101611e4f8382613476565b6122bc61273e565b6127c361273e565b5f5160206135525f395f51905f527fa16a46d94261c7517cc8ff89f61c0ce93598e3c849801011dee649a6a557d1026127fc8482613476565b506003810161280b8382613476565b505f8082556001909101555050565b5f5f60205f8451602086015f885af180612839576040513d5f823e3d81fd5b50505f513d9150811561285057806001141561285d565b6001600160a01b0384163b155b15611e4f57604051635274afe760e01b81526001600160a01b0385166004820152602401611449565b5f5f5f5f6128948686612ad7565b9250925092506128a48282612b20565b5090949350505050565b5f805f1983850993909202808410938190039390930393915050565b634e487b715f52806020526024601cfd5b5f5160206135325f395f51905f526001600160a01b0384166129155781816002015f82825461290a9190613346565b909155506129859050565b6001600160a01b0384165f90815260208290526040902054828110156129675760405163391434e360e21b81526001600160a01b03861660048201526024810182905260448101849052606401611449565b6001600160a01b0385165f9081526020839052604090209083900390555b6001600160a01b0383166129a35760028101805483900390556129c1565b6001600160a01b0383165f9081526020829052604090208054830190555b826001600160a01b0316846001600160a01b03167fddf252ad1be2c89b69c2b068fc378daa952ba7f163c4a11628f55a4df523b3ef84604051612a0691815260200190565b60405180910390a350505050565b5f5f5160206135525f395f51905f5281612a2c612320565b805190915015612a4457805160209091012092915050565b81548015612a53579392505050565b7fc5d2460186f7233c927e7db2dcc703c0e500b653ca82273b7bfad8045d85a470935050505090565b5f5f5160206135525f395f51905f5281612a9461235e565b805190915015612aac57805160209091012092915050565b60018201548015612a53579392505050565b5f612ac7612097565b54600160401b900460ff16919050565b5f5f5f8351604103612b0e576020840151604085015160608601515f1a612b0088828585612bd8565b955095509550505050612b19565b505081515f91506002905b9250925092565b5f826003811115612b3357612b3361318f565b03612b3c575050565b6001826003811115612b5057612b5061318f565b03612b6e5760405163f645eedf60e01b815260040160405180910390fd5b6002826003811115612b8257612b8261318f565b03612ba35760405163fce698f760e01b815260048101829052602401611449565b6003826003811115612bb757612bb761318f565b036120d1576040516335e2f38360e21b815260048101829052602401611449565b5f80807f7fffffffffffffffffffffffffffffff5d576e7357a4501ddfe92f46681b20a0841115612c1157505f91506003905082612c96565b604080515f808252602082018084528a905260ff891692820192909252606081018790526080810186905260019060a0016020604051602081039080840390855afa158015612c62573d5f5f3e3d5ffd5b5050604051601f1901519150506001600160a01b038116612c8d57505f925060019150829050612c96565b92505f91508190505b9450945094915050565b5f60208284031215612cb0575f5ffd5b81356001600160e01b031981168114610833575f5ffd5b5f81518084528060208401602086015e5f602082860101526020601f19601f83011685010191505092915050565b602081525f6108336020830184612cc7565b5f60208284031215612d17575f5ffd5b5035919050565b6001600160a01b03811681146114cd575f5ffd5b5f5f60408385031215612d43575f5ffd5b8235612d4e81612d1e565b946020939093013593505050565b5f5f5f5f5f5f60c08789031215612d71575f5ffd5b8635612d7c81612d1e565b9860208801359850604088013597606081013597506080810135965060a00135945092505050565b5f5f5f60608486031215612db6575f5ffd5b8335612dc181612d1e565b92506020840135612dd181612d1e565b929592945050506040919091013590565b5f60208284031215612df2575f5ffd5b813561083381612d1e565b80151581146114cd575f5ffd5b5f5f60408385031215612e1b575f5ffd5b8235612e2681612d1e565b91506020830135612e3681612dfd565b809150509250929050565b634e487b7160e01b5f52604160045260245ffd5b5f5f67ffffffffffffffff841115612e6f57612e6f612e41565b50604051601f19601f85018116603f0116810181811067ffffffffffffffff82111715612e9e57612e9e612e41565b604052838152905080828401851015612eb5575f5ffd5b838360208301375f60208583010152509392505050565b5f82601f830112612edb575f5ffd5b61083383833560208501612e55565b5f5f5f5f5f60a08688031215612efe575f5ffd5b8535612f0981612d1e565b9450602086013567ffffffffffffffff811115612f24575f5ffd5b612f3088828901612ecc565b945050604086013567ffffffffffffffff811115612f4c575f5ffd5b612f5888828901612ecc565b9350506060860135612f6981612d1e565b91506080860135612f7981612d1e565b809150509295509295909350565b5f5f60408385031215612f98575f5ffd5b823591506020830135612e3681612d1e565b5f5f5f5f5f5f60c08789031215612fbf575f5ffd5b8635612fca81612d1e565b95506020870135612fda81612d1e565b94506040870135612fea81612dfd565b9350606087013592506080870135915060a087013567ffffffffffffffff811115613013575f5ffd5b8701601f81018913613023575f5ffd5b61303289823560208401612e55565b9150509295509295509295565b5f5f5f60608486031215613051575f5ffd5b83359250602084013561306381612d1e565b9150604084013561307381612d1e565b809150509250925092565b60ff60f81b8816815260e060208201525f61309c60e0830189612cc7565b82810360408401526130ae8189612cc7565b606084018890526001600160a01b038716608085015260a0840186905283810360c0850152845180825260208087019350909101905f5b818110156131035783518352602093840193909201916001016130e5565b50909b9a5050505050505050505050565b5f5f60408385031215613125575f5ffd5b823561313081612d1e565b91506020830135612e3681612d1e565b600181811c9082168061315457607f821691505b60208210810361317257634e487b7160e01b5f52602260045260245ffd5b50919050565b5f60208284031215613188575f5ffd5b5051919050565b634e487b7160e01b5f52602160045260245ffd5b600681106131bf57634e487b7160e01b5f52602160045260245ffd5b9052565b608081016131d182876131a3565b6001600160a01b039485166020830152929093166040840152606090920191909152919050565b634e487b7160e01b5f52601160045260245ffd5b6001815b60018411156132475780850481111561322b5761322b6131f8565b600184161561323957908102905b60019390931c928002613210565b935093915050565b5f8261325d5750600161075f565b8161326957505f61075f565b816001811461327f5760028114613289576132a5565b600191505061075f565b60ff84111561329a5761329a6131f8565b50506001821b61075f565b5060208310610133831016604e8410600b84101617156132c8575081810a61075f565b6132d45f19848461320c565b805f19048211156132e7576132e76131f8565b029392505050565b5f61083360ff84168361324f565b5f5f6040838503121561330e575f5ffd5b505080516020909101519092909150565b8181038181111561075f5761075f6131f8565b634e487b7160e01b5f52601260045260245ffd5b8082018082111561075f5761075f6131f8565b5f60208284031215613369575f5ffd5b815161083381612d1e565b5f60208284031215613384575f5ffd5b815161083381612dfd565b5f82518060208501845e5f920191825250919050565b5f60608284031280156133b6575f5ffd5b506040516060810167ffffffffffffffff811182821017156133da576133da612e41565b604090815283518252602080850151908301528301516133f981612d1e565b60408201529392505050565b5f60ff83168061342357634e487b7160e01b5f52601260045260245ffd5b8060ff84160691505092915050565b601f821115611dec57805f5260205f20601f840160051c810160208510156134575750805b601f840160051c820191505b818110156125ed575f8155600101613463565b815167ffffffffffffffff81111561349057613490612e41565b6134a48161349e8454613140565b84613432565b6020601f8211600181146134d6575f83156134bf5750848201515b5f19600385901b1c1916600184901b1784556125ed565b5f84815260208120601f198516915b8281101561350557878501518255602094850194600190920191016134e5565b508482101561352257868401515f19600387901b60f8161c191681555b50505050600190811b0190555056fe52c63247e1f47db19d5ce0460030c497f067ca4cebf71ba98eeadabe20bace00a16a46d94261c7517cc8ff89f61c0ce93598e3c849801011dee649a6a557d1009b779b17422d0df92223018b32b4d1fa46e071723d6817e2486d003becc55f00a164736f6c634300081e000a","linkReferences":{}},"methodIdentifiers":{"AUTHORIZE_OPERATOR_TYPEHASH()":"0d62c332","DOMAIN_SEPARATOR()":"3644e515","PRECISION()":"aaf5eb68","allowance(address,address)":"dd62ed3e","approve(address,uint256)":"095ea7b3","asset()":"38d52e0f","authorizations(address,bytes32)":"cdf5bba3","authorizeOperator(address,address,bool,bytes32,uint256,bytes)":"711b58ff","balanceOf(address)":"70a08231","burnShares(uint256)":"853c637d","cancelRedeem(address)":"38401c43","claimableRedeemRequest(uint256,address)":"eaed1d07","convertToAssets(uint256)":"07a2d13a","convertToShares(uint256)":"c6e6f592","decimals()":"313ce567","deposit(uint256,address)":"6e553f65","eip712Domain()":"84b0196e","escrow()":"e2fdcc17","initialize(address,string,string,address,address)":"6cf1dbed","invalidateNonce(bytes32)":"234f0e3b","isOperator(address,address)":"b6363cf2","maxDeposit(address)":"402d267d","maxMint(address)":"c63d75b6","maxRedeem(address)":"d905777e","maxWithdraw(address)":"ce96cb77","mint(uint256,address)":"94bf804d","name()":"06fdde03","onRedeemClaimable(address,uint256,uint256,uint256,uint256,uint256)":"0c0b4309","pendingRedeemRequest(uint256,address)":"f5a23d8d","previewDeposit(uint256)":"ef8b30f7","previewMint(uint256)":"b3d7f6b9","previewRedeem(uint256)":"4cdad506","previewWithdraw(uint256)":"0a28a477","redeem(uint256,address,address)":"ba087652","requestRedeem(uint256,address,address)":"7d41c86e","setOperator(address,bool)":"558a7297","share()":"a8d5fd65","strategy()":"a8c62e76","superGovernor()":"3289cbfb","supportsInterface(bytes4)":"01ffc9a7","symbol()":"95d89b41","totalAssets()":"01e1d114","totalSupply()":"18160ddd","transfer(address,uint256)":"a9059cbb","transferFrom(address,address,uint256)":"23b872dd","withdraw(uint256,address,address)":"b460af94"},"id":460}