{"abi":[{"type":"constructor","inputs":[{"name":"superGovernor_","type":"address","internalType":"address"},{"name":"vaultImpl_","type":"address","internalType":"address"},{"name":"strategyImpl_","type":"address","internalType":"address"},{"name":"escrowImpl_","type":"address","internalType":"address"}],"stateMutability":"nonpayable"},{"type":"function","name":"ESCROW_IMPLEMENTATION","inputs":[],"outputs":[{"name":"","type":"address","internalType":"address"}],"stateMutability":"view"},{"type":"function","name":"PPS_DECIMALS","inputs":[],"outputs":[{"name":"","type":"uint256","internalType":"uint256"}],"stateMutability":"view"},{"type":"function","name":"STRATEGY_IMPLEMENTATION","inputs":[],"outputs":[{"name":"","type":"address","internalType":"address"}],"stateMutability":"view"},{"type":"function","name":"SUPER_GOVERNOR","inputs":[],"outputs":[{"name":"","type":"address","internalType":"contract ISuperGovernor"}],"stateMutability":"view"},{"type":"function","name":"VAULT_IMPLEMENTATION","inputs":[],"outputs":[{"name":"","type":"address","internalType":"address"}],"stateMutability":"view"},{"type":"function","name":"addAuthorizedCaller","inputs":[{"name":"strategy","type":"address","internalType":"address"},{"name":"caller","type":"address","internalType":"address"}],"outputs":[],"stateMutability":"nonpayable"},{"type":"function","name":"addSecondaryManager","inputs":[{"name":"strategy","type":"address","internalType":"address"},{"name":"manager","type":"address","internalType":"address"}],"outputs":[],"stateMutability":"nonpayable"},{"type":"function","name":"batchForwardPPS","inputs":[{"name":"args","type":"tuple","internalType":"struct ISuperVaultAggregator.BatchForwardPPSArgs","components":[{"name":"strategies","type":"address[]","internalType":"address[]"},{"name":"ppss","type":"uint256[]","internalType":"uint256[]"},{"name":"ppsStdevs","type":"uint256[]","internalType":"uint256[]"},{"name":"validatorSets","type":"uint256[]","internalType":"uint256[]"},{"name":"totalValidators","type":"uint256[]","internalType":"uint256[]"},{"name":"timestamps","type":"uint256[]","internalType":"uint256[]"}]}],"outputs":[],"stateMutability":"nonpayable"},{"type":"function","name":"changeGlobalLeavesStatus","inputs":[{"name":"leaves","type":"bytes32[]","internalType":"bytes32[]"},{"name":"statuses","type":"bool[]","internalType":"bool[]"},{"name":"strategy","type":"address","internalType":"address"}],"outputs":[],"stateMutability":"nonpayable"},{"type":"function","name":"changePrimaryManager","inputs":[{"name":"strategy","type":"address","internalType":"address"},{"name":"newManager","type":"address","internalType":"address"}],"outputs":[],"stateMutability":"nonpayable"},{"type":"function","name":"claimUpkeep","inputs":[{"name":"amount","type":"uint256","internalType":"uint256"}],"outputs":[],"stateMutability":"nonpayable"},{"type":"function","name":"claimableUpkeep","inputs":[],"outputs":[{"name":"","type":"uint256","internalType":"uint256"}],"stateMutability":"view"},{"type":"function","name":"createVault","inputs":[{"name":"params","type":"tuple","internalType":"struct ISuperVaultAggregator.VaultCreationParams","components":[{"name":"asset","type":"address","internalType":"address"},{"name":"name","type":"string","internalType":"string"},{"name":"symbol","type":"string","internalType":"string"},{"name":"mainManager","type":"address","internalType":"address"},{"name":"secondaryManagers","type":"address[]","internalType":"address[]"},{"name":"minUpdateInterval","type":"uint256","internalType":"uint256"},{"name":"maxStaleness","type":"uint256","internalType":"uint256"},{"name":"feeConfig","type":"tuple","internalType":"struct ISuperVaultStrategy.FeeConfig","components":[{"name":"performanceFeeBps","type":"uint256","internalType":"uint256"},{"name":"managementFeeBps","type":"uint256","internalType":"uint256"},{"name":"recipient","type":"address","internalType":"address"}]}]}],"outputs":[{"name":"superVault","type":"address","internalType":"address"},{"name":"strategy","type":"address","internalType":"address"},{"name":"escrow","type":"address","internalType":"address"}],"stateMutability":"nonpayable"},{"type":"function","name":"depositStake","inputs":[{"name":"manager","type":"address","internalType":"address"},{"name":"amount","type":"uint256","internalType":"uint256"}],"outputs":[],"stateMutability":"nonpayable"},{"type":"function","name":"depositUpkeep","inputs":[{"name":"manager","type":"address","internalType":"address"},{"name":"amount","type":"uint256","internalType":"uint256"}],"outputs":[],"stateMutability":"nonpayable"},{"type":"function","name":"executeChangePrimaryManager","inputs":[{"name":"strategy","type":"address","internalType":"address"}],"outputs":[],"stateMutability":"nonpayable"},{"type":"function","name":"executeGlobalHooksRootUpdate","inputs":[],"outputs":[],"stateMutability":"nonpayable"},{"type":"function","name":"executeStrategyHooksRootUpdate","inputs":[{"name":"strategy","type":"address","internalType":"address"}],"outputs":[],"stateMutability":"nonpayable"},{"type":"function","name":"forwardPPS","inputs":[{"name":"updateAuthority","type":"address","internalType":"address"},{"name":"args","type":"tuple","internalType":"struct ISuperVaultAggregator.ForwardPPSArgs","components":[{"name":"strategy","type":"address","internalType":"address"},{"name":"isExempt","type":"bool","internalType":"bool"},{"name":"pps","type":"uint256","internalType":"uint256"},{"name":"ppsStdev","type":"uint256","internalType":"uint256"},{"name":"validatorSet","type":"uint256","internalType":"uint256"},{"name":"totalValidators","type":"uint256","internalType":"uint256"},{"name":"timestamp","type":"uint256","internalType":"uint256"},{"name":"upkeepCost","type":"uint256","internalType":"uint256"}]}],"outputs":[],"stateMutability":"nonpayable"},{"type":"function","name":"getAllSuperVaultEscrows","inputs":[],"outputs":[{"name":"","type":"address[]","internalType":"address[]"}],"stateMutability":"view"},{"type":"function","name":"getAllSuperVaultStrategies","inputs":[],"outputs":[{"name":"","type":"address[]","internalType":"address[]"}],"stateMutability":"view"},{"type":"function","name":"getAllSuperVaults","inputs":[],"outputs":[{"name":"","type":"address[]","internalType":"address[]"}],"stateMutability":"view"},{"type":"function","name":"getAuthorizedCallers","inputs":[{"name":"strategy","type":"address","internalType":"address"}],"outputs":[{"name":"callers","type":"address[]","internalType":"address[]"}],"stateMutability":"view"},{"type":"function","name":"getCurrentNonce","inputs":[],"outputs":[{"name":"","type":"uint256","internalType":"uint256"}],"stateMutability":"view"},{"type":"function","name":"getGlobalHooksRoot","inputs":[],"outputs":[{"name":"root","type":"bytes32","internalType":"bytes32"}],"stateMutability":"view"},{"type":"function","name":"getHooksRootUpdateTimelock","inputs":[],"outputs":[{"name":"","type":"uint256","internalType":"uint256"}],"stateMutability":"view"},{"type":"function","name":"getLastUpdateTimestamp","inputs":[{"name":"strategy","type":"address","internalType":"address"}],"outputs":[{"name":"timestamp","type":"uint256","internalType":"uint256"}],"stateMutability":"view"},{"type":"function","name":"getMainManager","inputs":[{"name":"strategy","type":"address","internalType":"address"}],"outputs":[{"name":"manager","type":"address","internalType":"address"}],"stateMutability":"view"},{"type":"function","name":"getMaxStaleness","inputs":[{"name":"strategy","type":"address","internalType":"address"}],"outputs":[{"name":"staleness","type":"uint256","internalType":"uint256"}],"stateMutability":"view"},{"type":"function","name":"getMinUpdateInterval","inputs":[{"name":"strategy","type":"address","internalType":"address"}],"outputs":[{"name":"interval","type":"uint256","internalType":"uint256"}],"stateMutability":"view"},{"type":"function","name":"getPPS","inputs":[{"name":"strategy","type":"address","internalType":"address"}],"outputs":[{"name":"pps","type":"uint256","internalType":"uint256"}],"stateMutability":"view"},{"type":"function","name":"getPPSVerificationThresholds","inputs":[{"name":"strategy","type":"address","internalType":"address"}],"outputs":[{"name":"dispersionThreshold","type":"uint256","internalType":"uint256"},{"name":"deviationThreshold","type":"uint256","internalType":"uint256"},{"name":"mnThreshold","type":"uint256","internalType":"uint256"}],"stateMutability":"view"},{"type":"function","name":"getPPSWithStdDev","inputs":[{"name":"strategy","type":"address","internalType":"address"}],"outputs":[{"name":"pps","type":"uint256","internalType":"uint256"},{"name":"ppsStdev","type":"uint256","internalType":"uint256"}],"stateMutability":"view"},{"type":"function","name":"getProposedGlobalHooksRoot","inputs":[],"outputs":[{"name":"root","type":"bytes32","internalType":"bytes32"},{"name":"effectiveTime","type":"uint256","internalType":"uint256"}],"stateMutability":"view"},{"type":"function","name":"getProposedStrategyHooksRoot","inputs":[{"name":"strategy","type":"address","internalType":"address"}],"outputs":[{"name":"root","type":"bytes32","internalType":"bytes32"},{"name":"effectiveTime","type":"uint256","internalType":"uint256"}],"stateMutability":"view"},{"type":"function","name":"getSecondaryManagers","inputs":[{"name":"strategy","type":"address","internalType":"address"}],"outputs":[{"name":"","type":"address[]","internalType":"address[]"}],"stateMutability":"view"},{"type":"function","name":"getStakeBalance","inputs":[{"name":"manager","type":"address","internalType":"address"}],"outputs":[{"name":"balance","type":"uint256","internalType":"uint256"}],"stateMutability":"view"},{"type":"function","name":"getStrategyHooksRoot","inputs":[{"name":"strategy","type":"address","internalType":"address"}],"outputs":[{"name":"root","type":"bytes32","internalType":"bytes32"}],"stateMutability":"view"},{"type":"function","name":"getUpkeepBalance","inputs":[{"name":"manager","type":"address","internalType":"address"}],"outputs":[{"name":"balance","type":"uint256","internalType":"uint256"}],"stateMutability":"view"},{"type":"function","name":"isAnyManager","inputs":[{"name":"manager","type":"address","internalType":"address"},{"name":"strategy","type":"address","internalType":"address"}],"outputs":[{"name":"","type":"bool","internalType":"bool"}],"stateMutability":"view"},{"type":"function","name":"isGlobalHooksRootActive","inputs":[],"outputs":[{"name":"","type":"bool","internalType":"bool"}],"stateMutability":"view"},{"type":"function","name":"isGlobalHooksRootVetoed","inputs":[],"outputs":[{"name":"vetoed","type":"bool","internalType":"bool"}],"stateMutability":"view"},{"type":"function","name":"isMainManager","inputs":[{"name":"manager","type":"address","internalType":"address"},{"name":"strategy","type":"address","internalType":"address"}],"outputs":[{"name":"","type":"bool","internalType":"bool"}],"stateMutability":"view"},{"type":"function","name":"isSecondaryManager","inputs":[{"name":"manager","type":"address","internalType":"address"},{"name":"strategy","type":"address","internalType":"address"}],"outputs":[{"name":"","type":"bool","internalType":"bool"}],"stateMutability":"view"},{"type":"function","name":"isStrategyHooksRootVetoed","inputs":[{"name":"strategy","type":"address","internalType":"address"}],"outputs":[{"name":"vetoed","type":"bool","internalType":"bool"}],"stateMutability":"view"},{"type":"function","name":"isStrategyPaused","inputs":[{"name":"strategy","type":"address","internalType":"address"}],"outputs":[{"name":"isPaused","type":"bool","internalType":"bool"}],"stateMutability":"view"},{"type":"function","name":"proposeChangePrimaryManager","inputs":[{"name":"strategy","type":"address","internalType":"address"},{"name":"newManager","type":"address","internalType":"address"}],"outputs":[],"stateMutability":"nonpayable"},{"type":"function","name":"proposeGlobalHooksRoot","inputs":[{"name":"newRoot","type":"bytes32","internalType":"bytes32"}],"outputs":[],"stateMutability":"nonpayable"},{"type":"function","name":"proposeStrategyHooksRoot","inputs":[{"name":"strategy","type":"address","internalType":"address"},{"name":"newRoot","type":"bytes32","internalType":"bytes32"}],"outputs":[],"stateMutability":"nonpayable"},{"type":"function","name":"removeAuthorizedCaller","inputs":[{"name":"strategy","type":"address","internalType":"address"},{"name":"caller","type":"address","internalType":"address"}],"outputs":[],"stateMutability":"nonpayable"},{"type":"function","name":"removeSecondaryManager","inputs":[{"name":"strategy","type":"address","internalType":"address"},{"name":"manager","type":"address","internalType":"address"}],"outputs":[],"stateMutability":"nonpayable"},{"type":"function","name":"setGlobalHooksRootVetoStatus","inputs":[{"name":"vetoed","type":"bool","internalType":"bool"}],"outputs":[],"stateMutability":"nonpayable"},{"type":"function","name":"setHooksRootUpdateTimelock","inputs":[{"name":"newTimelock","type":"uint256","internalType":"uint256"}],"outputs":[],"stateMutability":"nonpayable"},{"type":"function","name":"setStrategyHooksRootVetoStatus","inputs":[{"name":"strategy","type":"address","internalType":"address"},{"name":"vetoed","type":"bool","internalType":"bool"}],"outputs":[],"stateMutability":"nonpayable"},{"type":"function","name":"slashStake","inputs":[{"name":"manager","type":"address","internalType":"address"},{"name":"amount","type":"uint256","internalType":"uint256"}],"outputs":[],"stateMutability":"nonpayable"},{"type":"function","name":"superVaultEscrows","inputs":[{"name":"index","type":"uint256","internalType":"uint256"}],"outputs":[{"name":"","type":"address","internalType":"address"}],"stateMutability":"view"},{"type":"function","name":"superVaultStrategies","inputs":[{"name":"index","type":"uint256","internalType":"uint256"}],"outputs":[{"name":"","type":"address","internalType":"address"}],"stateMutability":"view"},{"type":"function","name":"superVaults","inputs":[{"name":"index","type":"uint256","internalType":"uint256"}],"outputs":[{"name":"","type":"address","internalType":"address"}],"stateMutability":"view"},{"type":"function","name":"updatePPSVerificationThresholds","inputs":[{"name":"strategy","type":"address","internalType":"address"},{"name":"dispersionThreshold_","type":"uint256","internalType":"uint256"},{"name":"deviationThreshold_","type":"uint256","internalType":"uint256"},{"name":"mnThreshold_","type":"uint256","internalType":"uint256"}],"outputs":[],"stateMutability":"nonpayable"},{"type":"function","name":"validateHook","inputs":[{"name":"strategy","type":"address","internalType":"address"},{"name":"args","type":"tuple","internalType":"struct ISuperVaultAggregator.ValidateHookArgs","components":[{"name":"hookAddress","type":"address","internalType":"address"},{"name":"hookArgs","type":"bytes","internalType":"bytes"},{"name":"globalProof","type":"bytes32[]","internalType":"bytes32[]"},{"name":"strategyProof","type":"bytes32[]","internalType":"bytes32[]"}]}],"outputs":[{"name":"isValid","type":"bool","internalType":"bool"}],"stateMutability":"view"},{"type":"function","name":"validateHooks","inputs":[{"name":"strategy","type":"address","internalType":"address"},{"name":"argsArray","type":"tuple[]","internalType":"struct ISuperVaultAggregator.ValidateHookArgs[]","components":[{"name":"hookAddress","type":"address","internalType":"address"},{"name":"hookArgs","type":"bytes","internalType":"bytes"},{"name":"globalProof","type":"bytes32[]","internalType":"bytes32[]"},{"name":"strategyProof","type":"bytes32[]","internalType":"bytes32[]"}]}],"outputs":[{"name":"validHooks","type":"bool[]","internalType":"bool[]"}],"stateMutability":"view"},{"type":"function","name":"withdrawStake","inputs":[{"name":"amount","type":"uint256","internalType":"uint256"}],"outputs":[],"stateMutability":"nonpayable"},{"type":"function","name":"withdrawUpkeep","inputs":[{"name":"amount","type":"uint256","internalType":"uint256"}],"outputs":[],"stateMutability":"nonpayable"},{"type":"event","name":"AuthorizedCallerAdded","inputs":[{"name":"strategy","type":"address","indexed":true,"internalType":"address"},{"name":"caller","type":"address","indexed":true,"internalType":"address"}],"anonymous":false},{"type":"event","name":"AuthorizedCallerRemoved","inputs":[{"name":"strategy","type":"address","indexed":true,"internalType":"address"},{"name":"caller","type":"address","indexed":true,"internalType":"address"}],"anonymous":false},{"type":"event","name":"GlobalHooksRootUpdateProposed","inputs":[{"name":"root","type":"bytes32","indexed":true,"internalType":"bytes32"},{"name":"effectiveTime","type":"uint256","indexed":false,"internalType":"uint256"}],"anonymous":false},{"type":"event","name":"GlobalHooksRootUpdated","inputs":[{"name":"oldRoot","type":"bytes32","indexed":true,"internalType":"bytes32"},{"name":"newRoot","type":"bytes32","indexed":false,"internalType":"bytes32"}],"anonymous":false},{"type":"event","name":"GlobalHooksRootVetoStatusChanged","inputs":[{"name":"vetoed","type":"bool","indexed":false,"internalType":"bool"},{"name":"root","type":"bytes32","indexed":true,"internalType":"bytes32"}],"anonymous":false},{"type":"event","name":"GlobalHooksRootVetoed","inputs":[{"name":"guardian","type":"address","indexed":true,"internalType":"address"},{"name":"root","type":"bytes32","indexed":true,"internalType":"bytes32"}],"anonymous":false},{"type":"event","name":"GlobalLeavesStatusChanged","inputs":[{"name":"strategy","type":"address","indexed":true,"internalType":"address"},{"name":"leaves","type":"bytes32[]","indexed":false,"internalType":"bytes32[]"},{"name":"statuses","type":"bool[]","indexed":false,"internalType":"bool[]"}],"anonymous":false},{"type":"event","name":"HooksRootUpdateTimelockChanged","inputs":[{"name":"newTimelock","type":"uint256","indexed":false,"internalType":"uint256"}],"anonymous":false},{"type":"event","name":"PPSUpdated","inputs":[{"name":"strategy","type":"address","indexed":true,"internalType":"address"},{"name":"pps","type":"uint256","indexed":false,"internalType":"uint256"},{"name":"ppsStdev","type":"uint256","indexed":false,"internalType":"uint256"},{"name":"validatorSet","type":"uint256","indexed":false,"internalType":"uint256"},{"name":"totalValidators","type":"uint256","indexed":false,"internalType":"uint256"},{"name":"timestamp","type":"uint256","indexed":false,"internalType":"uint256"}],"anonymous":false},{"type":"event","name":"PPSVerificationThresholdsUpdated","inputs":[{"name":"strategy","type":"address","indexed":true,"internalType":"address"},{"name":"dispersionThreshold","type":"uint256","indexed":false,"internalType":"uint256"},{"name":"deviationThreshold","type":"uint256","indexed":false,"internalType":"uint256"},{"name":"mnThreshold","type":"uint256","indexed":false,"internalType":"uint256"}],"anonymous":false},{"type":"event","name":"PrimaryManagerChangeProposed","inputs":[{"name":"strategy","type":"address","indexed":true,"internalType":"address"},{"name":"proposer","type":"address","indexed":true,"internalType":"address"},{"name":"newManager","type":"address","indexed":true,"internalType":"address"},{"name":"effectiveTime","type":"uint256","indexed":false,"internalType":"uint256"}],"anonymous":false},{"type":"event","name":"PrimaryManagerChanged","inputs":[{"name":"strategy","type":"address","indexed":true,"internalType":"address"},{"name":"oldManager","type":"address","indexed":true,"internalType":"address"},{"name":"newManager","type":"address","indexed":true,"internalType":"address"}],"anonymous":false},{"type":"event","name":"PrimaryManagerChangedToSuperform","inputs":[{"name":"strategy","type":"address","indexed":true,"internalType":"address"},{"name":"oldManager","type":"address","indexed":true,"internalType":"address"},{"name":"newManager","type":"address","indexed":true,"internalType":"address"}],"anonymous":false},{"type":"event","name":"SecondaryManagerAdded","inputs":[{"name":"strategy","type":"address","indexed":true,"internalType":"address"},{"name":"manager","type":"address","indexed":true,"internalType":"address"}],"anonymous":false},{"type":"event","name":"SecondaryManagerRemoved","inputs":[{"name":"strategy","type":"address","indexed":true,"internalType":"address"},{"name":"manager","type":"address","indexed":true,"internalType":"address"}],"anonymous":false},{"type":"event","name":"StakeDeposited","inputs":[{"name":"manager","type":"address","indexed":true,"internalType":"address"},{"name":"amount","type":"uint256","indexed":false,"internalType":"uint256"}],"anonymous":false},{"type":"event","name":"StakeSlashed","inputs":[{"name":"manager","type":"address","indexed":true,"internalType":"address"},{"name":"amount","type":"uint256","indexed":false,"internalType":"uint256"}],"anonymous":false},{"type":"event","name":"StakeWithdrawn","inputs":[{"name":"manager","type":"address","indexed":true,"internalType":"address"},{"name":"amount","type":"uint256","indexed":false,"internalType":"uint256"}],"anonymous":false},{"type":"event","name":"StaleUpdate","inputs":[{"name":"strategy","type":"address","indexed":true,"internalType":"address"},{"name":"updateAuthority","type":"address","indexed":true,"internalType":"address"},{"name":"timestamp","type":"uint256","indexed":false,"internalType":"uint256"}],"anonymous":false},{"type":"event","name":"StrategyCheckFailed","inputs":[{"name":"strategy","type":"address","indexed":true,"internalType":"address"},{"name":"reason","type":"string","indexed":false,"internalType":"string"}],"anonymous":false},{"type":"event","name":"StrategyHooksRootUpdateProposed","inputs":[{"name":"strategy","type":"address","indexed":true,"internalType":"address"},{"name":"proposer","type":"address","indexed":true,"internalType":"address"},{"name":"root","type":"bytes32","indexed":false,"internalType":"bytes32"},{"name":"effectiveTime","type":"uint256","indexed":false,"internalType":"uint256"}],"anonymous":false},{"type":"event","name":"StrategyHooksRootUpdated","inputs":[{"name":"strategy","type":"address","indexed":true,"internalType":"address"},{"name":"oldRoot","type":"bytes32","indexed":false,"internalType":"bytes32"},{"name":"newRoot","type":"bytes32","indexed":false,"internalType":"bytes32"}],"anonymous":false},{"type":"event","name":"StrategyHooksRootVetoStatusChanged","inputs":[{"name":"strategy","type":"address","indexed":true,"internalType":"address"},{"name":"vetoed","type":"bool","indexed":false,"internalType":"bool"},{"name":"root","type":"bytes32","indexed":true,"internalType":"bytes32"}],"anonymous":false},{"type":"event","name":"StrategyHooksRootVetoed","inputs":[{"name":"guardian","type":"address","indexed":true,"internalType":"address"},{"name":"strategy","type":"address","indexed":true,"internalType":"address"},{"name":"root","type":"bytes32","indexed":true,"internalType":"bytes32"}],"anonymous":false},{"type":"event","name":"StrategyPaused","inputs":[{"name":"strategy","type":"address","indexed":true,"internalType":"address"}],"anonymous":false},{"type":"event","name":"StrategyUnpaused","inputs":[{"name":"strategy","type":"address","indexed":true,"internalType":"address"}],"anonymous":false},{"type":"event","name":"UpkeepClaimed","inputs":[{"name":"superBank","type":"address","indexed":true,"internalType":"address"},{"name":"amount","type":"uint256","indexed":false,"internalType":"uint256"}],"anonymous":false},{"type":"event","name":"UpkeepCostUpdated","inputs":[{"name":"oldCost","type":"uint256","indexed":false,"internalType":"uint256"},{"name":"newCost","type":"uint256","indexed":false,"internalType":"uint256"}],"anonymous":false},{"type":"event","name":"UpkeepDeposited","inputs":[{"name":"manager","type":"address","indexed":true,"internalType":"address"},{"name":"amount","type":"uint256","indexed":false,"internalType":"uint256"}],"anonymous":false},{"type":"event","name":"UpkeepSpent","inputs":[{"name":"manager","type":"address","indexed":true,"internalType":"address"},{"name":"amount","type":"uint256","indexed":false,"internalType":"uint256"}],"anonymous":false},{"type":"event","name":"UpkeepWithdrawn","inputs":[{"name":"manager","type":"address","indexed":true,"internalType":"address"},{"name":"amount","type":"uint256","indexed":false,"internalType":"uint256"}],"anonymous":false},{"type":"event","name":"VaultDeployed","inputs":[{"name":"vault","type":"address","indexed":true,"internalType":"address"},{"name":"strategy","type":"address","indexed":true,"internalType":"address"},{"name":"escrow","type":"address","indexed":false,"internalType":"address"},{"name":"asset","type":"address","indexed":false,"internalType":"address"},{"name":"name","type":"string","indexed":false,"internalType":"string"},{"name":"symbol","type":"string","indexed":false,"internalType":"string"},{"name":"nonce","type":"uint256","indexed":true,"internalType":"uint256"}],"anonymous":false},{"type":"error","name":"ARRAY_LENGTH_MISMATCH","inputs":[]},{"type":"error","name":"CALLER_ALREADY_AUTHORIZED","inputs":[]},{"type":"error","name":"CALLER_NOT_AUTHORIZED","inputs":[]},{"type":"error","name":"CANNOT_ADD_PROTECTED_KEEPER","inputs":[]},{"type":"error","name":"CANNOT_REMOVE_LAST_MANAGER","inputs":[]},{"type":"error","name":"FailedDeployment","inputs":[]},{"type":"error","name":"HOOK_VALIDATION_FAILED","inputs":[]},{"type":"error","name":"INDEX_OUT_OF_BOUNDS","inputs":[]},{"type":"error","name":"INSUFFICIENT_STAKE_BALANCE","inputs":[]},{"type":"error","name":"INSUFFICIENT_UPKEEP","inputs":[]},{"type":"error","name":"INSUFFICIENT_UPKEEP_BALANCE","inputs":[]},{"type":"error","name":"INVALID_ARRAY_LENGTH","inputs":[]},{"type":"error","name":"INVALID_ASSET","inputs":[]},{"type":"error","name":"INVALID_ASSET","inputs":[]},{"type":"error","name":"InsufficientBalance","inputs":[{"name":"balance","type":"uint256","internalType":"uint256"},{"name":"needed","type":"uint256","internalType":"uint256"}]},{"type":"error","name":"MANAGER_ALREADY_EXISTS","inputs":[]},{"type":"error","name":"MANAGER_CHANGE_NOT_READY","inputs":[]},{"type":"error","name":"MANAGER_NOT_FOUND","inputs":[]},{"type":"error","name":"MAX_STALENESS_TOO_LOW","inputs":[]},{"type":"error","name":"MISMATCHED_ARRAY_LENGTHS","inputs":[]},{"type":"error","name":"NOT_A_GUARDIAN","inputs":[]},{"type":"error","name":"NO_PENDING_GLOBAL_ROOT_CHANGE","inputs":[]},{"type":"error","name":"NO_PENDING_MANAGER_CHANGE","inputs":[]},{"type":"error","name":"NO_PENDING_ROOT_UPDATE","inputs":[]},{"type":"error","name":"ROOT_UPDATE_NOT_READY","inputs":[]},{"type":"error","name":"SafeERC20FailedOperation","inputs":[{"name":"token","type":"address","internalType":"address"}]},{"type":"error","name":"TIMELOCK_NOT_EXPIRED","inputs":[]},{"type":"error","name":"TIMESTAMP_NOT_MONOTONIC","inputs":[]},{"type":"error","name":"UNAUTHORIZED_CALLER","inputs":[]},{"type":"error","name":"UNAUTHORIZED_PPS_ORACLE","inputs":[]},{"type":"error","name":"UNAUTHORIZED_UPDATE_AUTHORITY","inputs":[]},{"type":"error","name":"UNKNOWN_STRATEGY","inputs":[]},{"type":"error","name":"UPDATE_TOO_FREQUENT","inputs":[]},{"type":"error","name":"UPDATE_TOO_STALE","inputs":[]},{"type":"error","name":"VAULT_PAUSED","inputs":[]},{"type":"error","name":"ZERO_ADDRESS","inputs":[]},{"type":"error","name":"ZERO_ARRAY_LENGTH","inputs":[]}],"bytecode":{"object":"0x610100604052610384600a55348015610016575f5ffd5b506040516156db3803806156db8339810160408190526100359161010e565b6001600160a01b03841661005c5760405163538ba4f960e01b815260040160405180910390fd5b6001600160a01b0383166100835760405163538ba4f960e01b815260040160405180910390fd5b6001600160a01b0382166100aa5760405163538ba4f960e01b815260040160405180910390fd5b6001600160a01b0381166100d15760405163538ba4f960e01b815260040160405180910390fd5b6001600160a01b0393841660e052918316608052821660a0521660c05261015f565b80516001600160a01b0381168114610109575f5ffd5b919050565b5f5f5f5f60808587031215610121575f5ffd5b61012a856100f3565b9350610138602086016100f3565b9250610146604086016100f3565b9150610154606086016100f3565b905092959194509250565b60805160a05160c05160e0516154626102795f395f818161059a01528181610bf701528181610c2601528181610d6b01528181611101015281816111300152818161138a015281816113b9015281816116cd01528181611ab101528181611ae001528181612112015281816123de01528181612536015281816125bc0152818161294901528181612ce201528181612dd001528181612dff015281816130d50152818161321f015281816132b50152818161358f01528181613609015281816136380152818161377a015281816139a20152818161442b0152818161445a01528181614538015261467e01525f81816104520152611ed001525f81816109a40152611f1201525f81816104910152611e9e01526154625ff3fe608060405234801561000f575f5ffd5b50600436106103b4575f3560e01c80637be3d10f116101f5578063b0e5173b11610114578063ceb7b7a3116100a9578063ef86977311610079578063ef86977314610977578063f301061d1461099f578063f430b328146109c6578063f5297a47146109d9575f5ffd5b8063ceb7b7a314610907578063d4eb90831461091a578063d5f3cd861461092d578063eb91a9b214610940575f5ffd5b8063c0c3bbd8116100e4578063c0c3bbd81461088b578063c25b784f1461089e578063c99d2c89146108c9578063ceb18ce4146108f4575f5ffd5b8063b0e5173b14610824578063bda262d714610837578063bef02b8c1461084a578063c06a02e81461085d575f5ffd5b806398d1c5a81161018a5780639e87cb3f1161015a5780639e87cb3f146107c8578063a5256bf2146107db578063a8485b73146107e3578063a895a59414610811575f5ffd5b806398d1c5a8146107845780639ab4e37b146107975780639dc0ad84146107a25780639e7b8c3a146107b5575f5ffd5b80638e813db5116101c55780638e813db5146107435780638e9615c914610756578063906811e01461075e5780639249c39214610771575f5ffd5b80637be3d10f146106e057806381ed8df4146106e857806383aa6836146106f357806386853dfd14610706575f5ffd5b8063322ae311116102e15780634e179bce116102765780636a279bb6116102465780636a279bb6146106875780636cbd57961461069a5780636fe79652146106ba5780637825784b146106cd575f5ffd5b80634e179bce1461063b5780635410f3651461064e5780635e12b2db146106615780635f853d4014610674575f5ffd5b80633c248029116102b15780633c248029146105ef57806344648c7614610602578063473e031c146106155780634b0b8aa614610628575f5ffd5b8063322ae3111461056757806339c7d246146105955780633a60c386146105bc5780633ab973a3146105c4575f5ffd5b80631f9b5aaf1161035757806328f36ff01161032757806328f36ff0146104ec5780632a90a055146105045780632b4bb8411461050c5780632e79802f14610554575f5ffd5b80631f9b5aaf1461048c57806320b64b64146104b357806325d5971f146104c6578063272b7add146104d9575f5ffd5b8063154fd23f11610392578063154fd23f146103e55780631a351d62146103fa5780631aef3510146104255780631de18ae61461044d575f5ffd5b806305027eee146103b85780630a48d243146103d357806313b56ce7146103dd575b5f5ffd5b6103c05f5481565b6040519081526020015b60405180910390f35b6103db6109ec565b005b6103c0601281565b6103ed610a7e565b6040516103ca9190614abc565b6103c0610408366004614b29565b6001600160a01b03165f9081526001602052604090206002015490565b6103c0610433366004614b29565b6001600160a01b03165f9081526002602052604090205490565b6104747f000000000000000000000000000000000000000000000000000000000000000081565b6040516001600160a01b0390911681526020016103ca565b6104747f000000000000000000000000000000000000000000000000000000000000000081565b6103db6104c1366004614b44565b610a8f565b6103db6104d4366004614b7b565b610ba5565b6103db6104e7366004614b7b565b610d60565b6104f4610de4565b60405190151581526020016103ca565b600b546103c0565b61053f61051a366004614b29565b6001600160a01b03165f908152600160205260409020600d810154600e909101549091565b604080519283526020830191909152016103ca565b61053f610562366004614b29565b610dfb565b61057a610575366004614b29565b610e4b565b604080519384526020840192909252908201526060016103ca565b6104747f000000000000000000000000000000000000000000000000000000000000000081565b600f546103c0565b6103c06105d2366004614b29565b6001600160a01b03165f9081526001602052604090206003015490565b6103db6105fd366004614b44565b610ea5565b610474610610366004614b7b565b610f95565b6103db610623366004614b92565b610fd0565b6103db610636366004614b7b565b6110af565b6103db610649366004614b44565b61126a565b6103db61065c366004614bca565b611340565b6103db61066f366004614bca565b61151b565b6103ed610682366004614b29565b611611565b6103db610695366004614b44565b611637565b6106ad6106a8366004614bf4565b6117da565b6040516103ca9190614cb1565b6103db6106c8366004614bca565b611a8e565b6103db6106db366004614b29565b611c39565b600a546103c0565b600e5460ff166104f4565b6104f4610701366004614b44565b611d4a565b610719610714366004614cc3565b611d6e565b604080516001600160a01b03948516815292841660208401529216918101919091526060016103ca565b6103db610751366004614cfa565b6123c9565b6103ed612909565b6103db61076c366004614b44565b612915565b6103db61077f366004614b29565b612b5a565b6103db610792366004614bca565b612cd7565b600c54600d5461053f565b6104746107b0366004614b7b565b612f36565b6104f46107c3366004614d30565b612f6b565b6104f46107d6366004614b44565b61305b565b6103ed6130b4565b6104f46107f1366004614b29565b6001600160a01b03165f908152600160205260409020600f015460ff1690565b6103db61081f366004614d77565b6130c0565b6103db610832366004614b7b565b6132aa565b610474610845366004614b7b565b613341565b6103c0610858366004614b29565b613376565b6104f461086b366004614b29565b6001600160a01b03165f9081526001602052604090206005015460ff1690565b6103db610899366004614b44565b6133bc565b6103c06108ac366004614b29565b6001600160a01b03165f9081526001602052604090206004015490565b6103c06108d7366004614b29565b6001600160a01b03165f908152600160205260409020600c015490565b6103ed610902366004614b29565b613519565b610474610915366004614b29565b61353f565b6103db610928366004614b7b565b613584565b6103db61093b366004614dc4565b61376f565b6104f461094e366004614b44565b6001600160a01b039081165f908152600160205260409020600501546101009004811691161490565b6103c0610985366004614b29565b6001600160a01b03165f9081526003602052604090205490565b6104747f000000000000000000000000000000000000000000000000000000000000000081565b6103db6109d4366004614eb8565b613818565b6103db6109e7366004614f81565b61396e565b600c5480610a0d5760405163041887bd60e51b815260040160405180910390fd5b600d54421015610a305760405163a09190e160e01b815260040160405180910390fd5b600b8054600c80549092555f600d81905590915560405182815281907f0360da73fad480d9a31212f8337d4a576e6b9749d68fc663acf171bb07f950ba906020015b60405180910390a25050565b6060610a8a6008613a7b565b905090565b81610a9b600682613a87565b610ab857604051638a525cdd60e01b815260040160405180910390fd5b6001600160a01b0383165f908152600160205260409020610adc9060060133613a87565b610af95760405163177c8a7760e21b815260040160405180910390fd5b6001600160a01b038216610b205760405163538ba4f960e01b815260040160405180910390fd5b5f610b2e62093a8042614fc1565b6001600160a01b038581165f81815260016020908152604091829020600a810180546001600160a01b031916958a169586179055600b018590559051848152939450919233927f4ee609fb141edc43691a25b420b8584e6ed4fb79e4d8f2063a40872160375883910160405180910390a450505050565b805f03610bc55760405163538ba4f960e01b815260040160405180910390fd5b335f90815260036020526040902054811115610bf457604051634bfcf22160e11b815260040160405180910390fd5b5f7f00000000000000000000000000000000000000000000000000000000000000006001600160a01b03166321f8a7217f00000000000000000000000000000000000000000000000000000000000000006001600160a01b03166324f4ec516040518163ffffffff1660e01b8152600401602060405180830381865afa158015610c80573d5f5f3e3d5ffd5b505050506040513d601f19601f82011682018060405250810190610ca49190614fd4565b6040518263ffffffff1660e01b8152600401610cc291815260200190565b602060405180830381865afa158015610cdd573d5f5f3e3d5ffd5b505050506040513d601f19601f82011682018060405250810190610d019190614feb565b335f81815260036020526040902080548590039055909150610d2e906001600160a01b0383169084613aa8565b60405182815233907f8108595eb6bad3acefa9da467d90cc2217686d5c5ac85460f8b7849c840645fc90602001610a72565b336001600160a01b037f00000000000000000000000000000000000000000000000000000000000000001614610da95760405163177c8a7760e21b815260040160405180910390fd5b600a8190556040518181527f132309f91d275ae9cafe2088eea8945ed3b52dac1012d3be4a6e44622488a4f69060200160405180910390a150565b5f600d544210158015610a8a575050600b54151590565b5f8082610e09600682613a87565b610e2657604051638a525cdd60e01b815260040160405180910390fd5b5050506001600160a01b03165f90815260016020819052604090912080549101549091565b5f808083610e5a600682613a87565b610e7757604051638a525cdd60e01b815260040160405180910390fd5b505050506001600160a01b03165f908152600160205260409020601081015460118201546012909201549092565b81610eb1600682613a87565b610ece57604051638a525cdd60e01b815260040160405180910390fd5b6001600160a01b038381165f908152600160205260409020600501546101009004163314610f0f5760405163177c8a7760e21b815260040160405180910390fd5b6001600160a01b0383165f908152600160205260409020610f339060060183613b07565b610f50576040516307f75fd560e11b815260040160405180910390fd5b816001600160a01b0316836001600160a01b03167f466dd5513a82de99caf12b8d5176cd2174dec8013f9c3ec7be7254e54b2c417c60405160405180910390a3505050565b5f610fa06004613b1b565b8210610fbf57604051632f8e260760e11b815260040160405180910390fd5b610fca600483613b24565b92915050565b83610fdc600682613a87565b610ff957604051638a525cdd60e01b815260040160405180910390fd5b6001600160a01b038581165f90815260016020526040902060050154610100900416331461103a5760405163177c8a7760e21b815260040160405180910390fd5b6001600160a01b0385165f81815260016020908152604091829020601081018890556011810187905560120185905581518781529081018690529081018490527f74bc5feac9403f697b1540399145c807469b19844f79f96c5b544c9c0d90124f906060015b60405180910390a25050505050565b805f036110cf5760405163538ba4f960e01b815260040160405180910390fd5b335f908152600260205260409020548111156110fe5760405163a2c52fdd60e01b815260040160405180910390fd5b5f7f00000000000000000000000000000000000000000000000000000000000000006001600160a01b03166321f8a7217f00000000000000000000000000000000000000000000000000000000000000006001600160a01b03166324f4ec516040518163ffffffff1660e01b8152600401602060405180830381865afa15801561118a573d5f5f3e3d5ffd5b505050506040513d601f19601f820116820180604052508101906111ae9190614fd4565b6040518263ffffffff1660e01b81526004016111cc91815260200190565b602060405180830381865afa1580156111e7573d5f5f3e3d5ffd5b505050506040513d601f19601f8201168201806040525081019061120b9190614feb565b335f81815260026020526040902080548590039055909150611238906001600160a01b0383169084613aa8565b60405182815233907f4a588cb81e6e407560dfbf48e566f684e0b6b791bd8ced912e4f9c58aa99e3d290602001610a72565b81611276600682613a87565b61129357604051638a525cdd60e01b815260040160405180910390fd5b61129d338461305b565b6112ba5760405163177c8a7760e21b815260040160405180910390fd5b6001600160a01b0383165f9081526001602052604090206112de9060080183613b07565b6112fb576040516365bc1f8360e11b815260040160405180910390fd5b816001600160a01b0316836001600160a01b03167fd175903e18897b59f1dec5589010cd32eb1cb6d795239d0d79159089bfd4f52a60405160405180910390a3505050565b805f036113605760405163538ba4f960e01b815260040160405180910390fd5b6001600160a01b0382166113875760405163538ba4f960e01b815260040160405180910390fd5b5f7f00000000000000000000000000000000000000000000000000000000000000006001600160a01b03166321f8a7217f00000000000000000000000000000000000000000000000000000000000000006001600160a01b03166324f4ec516040518163ffffffff1660e01b8152600401602060405180830381865afa158015611413573d5f5f3e3d5ffd5b505050506040513d601f19601f820116820180604052508101906114379190614fd4565b6040518263ffffffff1660e01b815260040161145591815260200190565b602060405180830381865afa158015611470573d5f5f3e3d5ffd5b505050506040513d601f19601f820116820180604052508101906114949190614feb565b90506114ab6001600160a01b038216333085613b2f565b6001600160a01b0383165f90815260036020526040812080548492906114d2908490614fc1565b90915550506040518281526001600160a01b038416907f0a7bb2e28cc4698aac06db79cf9163bfcc20719286cf59fa7d492ceda1b8edc2906020015b60405180910390a2505050565b81611527600682613a87565b61154457604051638a525cdd60e01b815260040160405180910390fd5b6001600160a01b038381165f9081526001602052604090206005015461010090041633146115855760405163177c8a7760e21b815260040160405180910390fd5b6001600160a01b0383165f908152600160205260408120600d01839055600a546115af9042614fc1565b6001600160a01b0385165f81815260016020908152604091829020600e01849055815187815290810184905292935033927f3c67f914ba911b08519fae976b442675afa7d36b96bab1276ca2ab142c1b1714910160405180910390a350505050565b6001600160a01b0381165f908152600160205260409020606090610fca90600601613a7b565b81611643600682613a87565b61166057604051638a525cdd60e01b815260040160405180910390fd5b61166a338461305b565b6116875760405163177c8a7760e21b815260040160405180910390fd5b6001600160a01b0382166116ae5760405163538ba4f960e01b815260040160405180910390fd5b6040516303c387a760e31b81526001600160a01b0383811660048301527f00000000000000000000000000000000000000000000000000000000000000001690631e1c3d3890602401602060405180830381865afa158015611712573d5f5f3e3d5ffd5b505050506040513d601f19601f820116820180604052508101906117369190615006565b1561175457604051635f35b55760e11b815260040160405180910390fd5b6001600160a01b0383165f9081526001602052604090206117789060080183613b68565b61179557604051630774f0b760e51b815260040160405180910390fd5b816001600160a01b0316836001600160a01b03167fde6b6315e31236a6504cb4a4fa3ccc32947e648ce1f188687e0711f55ec418b060405160405180910390a3505050565b60408051608081018252600e5460ff90811615158252600b546020808401919091526001600160a01b0387165f8181526001808452868220600f8101549095161515968601969096525292909252600c9091015460608281019190915281519091839180611849575080604001515b1561189957816001600160401b0381111561186657611866614ddf565b60405190808252806020026020018201604052801561188f578160200160208202803683370190505b5092505050611a87565b816001600160401b038111156118b1576118b1614ddf565b6040519080825280602002602001820160405280156118da578160200160208202803683370190505b5092505f5b82811015611a83576119898686838181106118fc576118fc615021565b905060200281019061190e9190615035565b61191c906020810190614b29565b87878481811061192e5761192e615021565b90506020028101906119409190615035565b61194e906020810190615053565b89898681811061196057611960615021565b90506020028101906119729190615035565b61198090604081019061509c565b6001888e613b7c565b156119b75760018482815181106119a2576119a2615021565b91151560209283029190910190910152611a7b565b611a588686838181106119cc576119cc615021565b90506020028101906119de9190615035565b6119ec906020810190614b29565b8787848181106119fe576119fe615021565b9050602002810190611a109190615035565b611a1e906020810190615053565b898986818110611a3057611a30615021565b9050602002810190611a429190615035565b611a5090606081019061509c565b5f888e613b7c565b848281518110611a6a57611a6a615021565b911515602092830291909101909101525b6001016118df565b5050505b9392505050565b805f03611aae5760405163538ba4f960e01b815260040160405180910390fd5b5f7f00000000000000000000000000000000000000000000000000000000000000006001600160a01b03166321f8a7217f00000000000000000000000000000000000000000000000000000000000000006001600160a01b03166324f4ec516040518163ffffffff1660e01b8152600401602060405180830381865afa158015611b3a573d5f5f3e3d5ffd5b505050506040513d601f19601f82011682018060405250810190611b5e9190614fd4565b6040518263ffffffff1660e01b8152600401611b7c91815260200190565b602060405180830381865afa158015611b97573d5f5f3e3d5ffd5b505050506040513d601f19601f82011682018060405250810190611bbb9190614feb565b9050611bd26001600160a01b038216333085613b2f565b6001600160a01b0383165f9081526002602052604081208054849290611bf9908490614fc1565b90915550506040518281526001600160a01b038416907ff0616af70d35af23c32610a6397a036a898c088ade99b972a26dc56e547988659060200161150e565b80611c45600682613a87565b611c6257604051638a525cdd60e01b815260040160405180910390fd5b6001600160a01b0382165f908152600160205260409020600d015480611c9b57604051633b330f3760e11b815260040160405180910390fd5b6001600160a01b0383165f908152600160205260409020600e0154421015611cd65760405163a09190e160e01b815260040160405180910390fd5b6001600160a01b0383165f818152600160209081526040808320600c8101805490879055600d8201859055600e9091019390935580518381529182018590529192917f50db1dc8f2cc634e637edbe632acec34656994c29a699c817c89e8de694035f691015b60405180910390a250505050565b6001600160a01b0381165f908152600160205260408120611a879060060184613a87565b5f808080611d7f6020860186614b29565b6001600160a01b03161480611dab57505f611da06080860160608701614b29565b6001600160a01b0316145b80611dcf57505f611dc461014086016101208701614b29565b6001600160a01b0316145b15611ded5760405163538ba4f960e01b815260040160405180910390fd5b6040805160c0810182525f80825260208201819052918101829052606081018290526080810182905260a08101829052600f80549192611e2c836150e1565b90915550815233611e406020870187614b29565b611e4d6020880188615053565b611e5a60408a018a615053565b8651604051611e729796959493929190602001615121565b60408051601f198184030181529190528051602091820120908201819052611ec4906001600160a01b037f00000000000000000000000000000000000000000000000000000000000000001690613cc3565b9350611f0681602001517f00000000000000000000000000000000000000000000000000000000000000006001600160a01b0316613cc390919063ffffffff16565b9150611f4881602001517f00000000000000000000000000000000000000000000000000000000000000006001600160a01b0316613cc390919063ffffffff16565b92506001600160a01b038416636cf1dbed611f666020880188614b29565b611f736020890189615053565b611f8060408b018b615053565b89896040518863ffffffff1660e01b8152600401611fa49796959493929190615175565b5f604051808303815f87803b158015611fbb575f5ffd5b505af1158015611fcd573d5f5f3e3d5ffd5b505060405163485cc95560e01b81526001600160a01b03878116600483015286811660248301528516925063485cc95591506044015f604051808303815f87803b158015612019575f5ffd5b505af115801561202b573d5f5f3e3d5ffd5b50506040516364ee8c0f60e11b81526001600160a01b038616925063c9dd181e915061206090879060e08a01906004016151d4565b5f604051808303815f87803b158015612077575f5ffd5b505af1158015612089573d5f5f3e3d5ffd5b505050506120a1846004613b6890919063ffffffff16565b506120ad600684613b68565b506120b9600883613b68565b505f806120da6120cc6020890189614b29565b6001600160a01b0316613ccf565b91509150816120fc576040516333bb44cb60e21b815260040160405180910390fd5b61210781600a615304565b8360a00181815250507f00000000000000000000000000000000000000000000000000000000000000006001600160a01b03166329f059766040518163ffffffff1660e01b8152600401602060405180830381865afa15801561216c573d5f5f3e3d5ffd5b505050506040513d601f19601f820116820180604052508101906121909190614fd4565b8760c0013510156121b457604051633c04450760e21b815260040160405180910390fd5b60a0808401516001600160a01b0387165f90815260016020526040902090815542600282015590880135600382015560c08801356004820155600501805460ff191690556122086080880160608901614b29565b6001600160a01b038087165f90815260016020526040812060050180549390921661010002610100600160a81b031990931692909217905561224d608089018961509c565b905090505f5b818110156122b9576122b061226b60808b018b61509c565b8381811061227b5761227b615021565b90506020020160208101906122909190614b29565b6001600160a01b0389165f90815260016020526040902060060190613b68565b50600101612253565b506001600160a01b038087165f8181526001602090815260409091205f19601082018190556011909101558651928a16907fb71e4c3b886bfa372037021505c466d28e41fc077044f0f8be29eeff1371334790899061231a908e018e614b29565b61232760208f018f615053565b8f80604001906123379190615053565b60405161234996959493929190615312565b60405180910390a460a0848101516001600160a01b0388165f818152600160209081526040808320600201548151958652918501839052840182905260608401919091526080830152917fd9c8c2dea3061ff41ebdd1d1b16209a1d11761d3b4709874c68172c2d23dadcf910160405180910390a2505050509193909250565b604051637eb787e160e11b81523360048201527f00000000000000000000000000000000000000000000000000000000000000006001600160a01b03169063fd6f0fc290602401602060405180830381865afa15801561242b573d5f5f3e3d5ffd5b505050506040513d601f19601f8201168201806040525081019061244f9190615006565b61246c5760405163d4ab126760e01b815260040160405180910390fd5b5f612477828061509c565b91506124889050602083018361509c565b9050811415806124a657506124a0604083018361509c565b90508114155b806124bf57506124b9606083018361509c565b90508114155b806124d857506124d260a083018361509c565b90508114155b806124f157506124eb608083018361509c565b90508114155b1561250f57604051634456f5e960e11b815260040160405180910390fd5b805f0361252f5760405163ec86100360e01b815260040160405180910390fd5b5f5f90505f7f00000000000000000000000000000000000000000000000000000000000000006001600160a01b0316633ef150596040518163ffffffff1660e01b8152600401602060405180830381865afa158015612590573d5f5f3e3d5ffd5b505050506040513d601f19601f820116820180604052508101906125b49190615006565b1561264b57827f00000000000000000000000000000000000000000000000000000000000000006001600160a01b031663b4e111ca6040518163ffffffff1660e01b8152600401602060405180830381865afa158015612616573d5f5f3e3d5ffd5b505050506040513d601f19601f8201168201806040525081019061263a9190614fd4565b612644919061535e565b9050612652565b50600190505f5b5f5b8381101561290257612696612669868061509c565b8381811061267957612679615021565b905060200201602081019061268e9190614b29565b600690613a87565b156128fa578180156127bd5760015f6126af888061509c565b858181106126bf576126bf615021565b90506020020160208101906126d49190614b29565b6001600160a01b0316815260208101919091526040015f20600401546126fd60a088018861509c565b8481811061270d5761270d615021565b905060200201354261271f919061537d565b11156127bd57505f80612732878061509c565b8481811061274257612742615021565b90506020020160208101906127579190614b29565b6001600160a01b03167f5413368ef0fd371d352762fd42f794381bdd66d2b2c3860549bc61f12f6ab2ba61278e60a08a018a61509c565b8681811061279e5761279e615021565b905060200201356040516127b491815260200190565b60405180910390a35b6040805161010081019091526128f890806127d8898061509c565b868181106127e8576127e8615021565b90506020020160208101906127fd9190614b29565b6001600160a01b031681526020018615158152602001888060200190612823919061509c565b8681811061283357612833615021565b90506020020135815260200188806040019061284f919061509c565b8681811061285f5761285f615021565b90506020020135815260200188806060019061287b919061509c565b8681811061288b5761288b615021565b9050602002013581526020018880608001906128a7919061509c565b868181106128b7576128b7615021565b905060200201358152602001888060a001906128d3919061509c565b868181106128e3576128e3615021565b90506020020135815260200183815250613dcd565b505b600101612654565b5050505050565b6060610a8a6006613a7b565b81612921600682613a87565b61293e57604051638a525cdd60e01b815260040160405180910390fd5b336001600160a01b037f000000000000000000000000000000000000000000000000000000000000000016146129875760405163177c8a7760e21b815260040160405180910390fd5b6001600160a01b0383166129ae5760405163538ba4f960e01b815260040160405180910390fd5b6001600160a01b0382166129d55760405163538ba4f960e01b815260040160405180910390fd5b6001600160a01b038084165f9081526001602052604081206005810154600a820180546001600160a01b0319169055600b8201839055600d8201839055600e8201839055610100900490921691612a2e90600601613a7b565b90505f5b8151811015612aee57612a8c828281518110612a5057612a50615021565b602002602001015160015f896001600160a01b03166001600160a01b031681526020019081526020015f20600601613b0790919063ffffffff16565b50818181518110612a9f57612a9f615021565b60200260200101516001600160a01b0316866001600160a01b03167f466dd5513a82de99caf12b8d5176cd2174dec8013f9c3ec7be7254e54b2c417c60405160405180910390a3600101612a32565b506001600160a01b038581165f818152600160205260408082206005018054610100600160a81b0319166101008a87169081029190911790915590519093861692917f4fabd2698f36f819418b0ded3a29b7e2572bef7ee7bd0875f5b5bb805333c6fc91a45050505050565b80612b66600682613a87565b612b8357604051638a525cdd60e01b815260040160405180910390fd5b6001600160a01b038281165f908152600160205260409020600a015416612bbd57604051633b330f3760e11b815260040160405180910390fd5b6001600160a01b0382165f908152600160205260409020600b0154421015612bf85760405163089cf88f60e21b815260040160405180910390fd5b6001600160a01b038083165f908152600160205260409020600a8101546005820154908316926101009091041690612c339060060183613b07565b506001600160a01b0384165f908152600160205260409020612c589060060182613b68565b506001600160a01b038481165f81815260016020526040808220600581018054610100600160a81b03191661010089881690810291909117909155600a90910180546001600160a01b031916905590519093851692917f4fabd2698f36f819418b0ded3a29b7e2572bef7ee7bd0875f5b5bb805333c6fc91a450505050565b336001600160a01b037f00000000000000000000000000000000000000000000000000000000000000001614612d20576040516365bc1f8360e11b815260040160405180910390fd5b6001600160a01b038216612d475760405163538ba4f960e01b815260040160405180910390fd5b805f03612d675760405163538ba4f960e01b815260040160405180910390fd5b6001600160a01b0382165f90815260036020526040902054811115612d9f57604051634bfcf22160e11b815260040160405180910390fd5b6001600160a01b0382165f9081526003602052604081208054839290612dc690849061537d565b925050819055505f7f00000000000000000000000000000000000000000000000000000000000000006001600160a01b03166321f8a7217f00000000000000000000000000000000000000000000000000000000000000006001600160a01b03166324f4ec516040518163ffffffff1660e01b8152600401602060405180830381865afa158015612e59573d5f5f3e3d5ffd5b505050506040513d601f19601f82011682018060405250810190612e7d9190614fd4565b6040518263ffffffff1660e01b8152600401612e9b91815260200190565b602060405180830381865afa158015612eb6573d5f5f3e3d5ffd5b505050506040513d601f19601f82011682018060405250810190612eda9190614feb565b90505f612ee5614428565b9050612efb6001600160a01b0383168285613aa8565b836001600160a01b03167f83f5ea8bea7627d95274e94dd7e9e3d7e82cb55feab513ed49e325232dcc61e084604051611d3c91815260200190565b5f612f416006613b1b565b8210612f6057604051632f8e260760e11b815260040160405180910390fd5b610fca600683613b24565b60408051608081018252600e5460ff90811615158252600b546020808401919091526001600160a01b0386165f8181526001808452868220600f810154909516151596860196909652908152939052600c01546060820152805180612fd1575080604001515b15612fdf575f915050610fca565b613012612fef6020850185614b29565b612ffc6020860186615053565b613009604088018861509c565b6001878b613b7c565b15613021576001915050610fca565b6130536130316020850185614b29565b61303e6020860186615053565b61304b606088018861509c565b5f878b613b7c565b949350505050565b6001600160a01b038181165f908152600160205260408120600501549091808516610100909204160361309057506001610fca565b6001600160a01b0382165f908152600160205260409020611a879060060184613a87565b6060610a8a6004613a7b565b604051637eb787e160e11b81523360048201527f00000000000000000000000000000000000000000000000000000000000000006001600160a01b03169063fd6f0fc290602401602060405180830381865afa158015613122573d5f5f3e3d5ffd5b505050506040513d601f19601f820116820180604052508101906131469190615006565b6131635760405163d4ab126760e01b815260040160405180910390fd5b6131706020820182614b29565b61317b600682613a87565b61319857604051638a525cdd60e01b815260040160405180910390fd5b5f6131b46131a96020850185614b29565b858560c00135614535565b6040805161010081019091529091506132a490806131d56020870187614b29565b6001600160a01b0316815260200183151581526020018560400135815260200185606001358152602001856080013581526020018560a0013581526020018560c0013581526020017f00000000000000000000000000000000000000000000000000000000000000006001600160a01b031663b4e111ca6040518163ffffffff1660e01b8152600401602060405180830381865afa158015613279573d5f5f3e3d5ffd5b505050506040513d601f19601f8201168201806040525081019061329d9190614fd4565b9052613dcd565b50505050565b336001600160a01b037f000000000000000000000000000000000000000000000000000000000000000016146132f35760405163177c8a7760e21b815260040160405180910390fd5b600c819055600a545f906133079042614fc1565b600d81905560405181815290915082907f71e72baaa2bffcb51d34de71bba7ea258c9c5667a86e69b1c684f0e1ecb4f39590602001610a72565b5f61334c6008613b1b565b821061336b57604051632f8e260760e11b815260040160405180910390fd5b610fca600883613b24565b5f81613383600682613a87565b6133a057604051638a525cdd60e01b815260040160405180910390fd5b50506001600160a01b03165f9081526001602052604090205490565b816133c8600682613a87565b6133e557604051638a525cdd60e01b815260040160405180910390fd5b6001600160a01b038381165f9081526001602052604090206005015461010090041633146134265760405163177c8a7760e21b815260040160405180910390fd5b6001600160a01b03821661344d5760405163538ba4f960e01b815260040160405180910390fd5b6001600160a01b038381165f9081526001602052604090206005015481841661010090910490911603613493576040516322f10c1d60e11b815260040160405180910390fd5b6001600160a01b0383165f9081526001602052604090206134b79060060183613b68565b6134d4576040516322f10c1d60e11b815260040160405180910390fd5b816001600160a01b0316836001600160a01b03167fb62a858ba4f3ba693ebca539c91a5c78f4514d4c1ea35b9d336ce5ce8f071f7660405160405180910390a3505050565b6001600160a01b0381165f908152600160205260409020606090610fca90600801613a7b565b6001600160a01b038082165f908152600160205260409020600501546101009004168061357f5760405163538ba4f960e01b815260040160405180910390fd5b919050565b336001600160a01b037f000000000000000000000000000000000000000000000000000000000000000016146135cd576040516365bc1f8360e11b815260040160405180910390fd5b805f5410156135ef57604051637f06a4a760e01b815260040160405180910390fd5b805f5f8282546135ff919061537d565b925050819055505f7f00000000000000000000000000000000000000000000000000000000000000006001600160a01b03166321f8a7217f00000000000000000000000000000000000000000000000000000000000000006001600160a01b03166324f4ec516040518163ffffffff1660e01b8152600401602060405180830381865afa158015613692573d5f5f3e3d5ffd5b505050506040513d601f19601f820116820180604052508101906136b69190614fd4565b6040518263ffffffff1660e01b81526004016136d491815260200190565b602060405180830381865afa1580156136ef573d5f5f3e3d5ffd5b505050506040513d601f19601f820116820180604052508101906137139190614feb565b90505f61371e614428565b90506137346001600160a01b0383168285613aa8565b806001600160a01b03167f43214536812d90daa91186dfb744049f5e3c6f3379765892f0f41b204a87e0ee8460405161150e91815260200190565b336001600160a01b037f000000000000000000000000000000000000000000000000000000000000000016146137b85760405163177c8a7760e21b815260040160405180910390fd5b600e5481151560ff9091161515036137cd5750565b600e805460ff1916821515908117909155600b54604051918252907fd867c555762bc6e6e6c9f80aa6c8132ccc5909f83266bc4d24489c8aa10e5e8d9060200160405180910390a250565b80613824600682613a87565b61384157604051638a525cdd60e01b815260040160405180910390fd5b6001600160a01b038281165f9081526001602052604090206005015461010090041633146138825760405163177c8a7760e21b815260040160405180910390fd5b8351835181146138a55760405163be26e77f60e01b815260040160405180910390fd5b5f5b81811015613932578481815181106138c1576138c1615021565b602002602001015160015f866001600160a01b03166001600160a01b031681526020019081526020015f206013015f88848151811061390257613902615021565b60209081029190910181015182528101919091526040015f20805460ff19169115159190911790556001016138a7565b50826001600160a01b03167f671df22165975c9055ff482eedb4963e75f35ac9f3040346699bd97228a8c79086866040516110a0929190615390565b8161397a600682613a87565b61399757604051638a525cdd60e01b815260040160405180910390fd5b336001600160a01b037f000000000000000000000000000000000000000000000000000000000000000016146139e05760405163177c8a7760e21b815260040160405180910390fd5b6001600160a01b0383165f908152600160205260409020600f015460ff16151582151514613a76576001600160a01b0383165f8181526001602052604090819020600f8101805486151560ff19909116179055600c015490519091907f927440ad59e90a7b01af1effd4191955ea9e6ef812fc415e7f8e71eadbc5bc3590613a6d90861515815260200190565b60405180910390a35b505050565b60605f611a8783614733565b6001600160a01b0381165f9081526001830160205260408120541515611a87565b6040516001600160a01b03838116602483015260448201839052613a7691859182169063a9059cbb906064015b604051602081830303815290604052915060e01b6020820180516001600160e01b03838183161783525050505061478c565b5f611a87836001600160a01b0384166147fd565b5f610fca825490565b5f611a8783836148e0565b6040516001600160a01b0384811660248301528381166044830152606482018390526132a49186918216906323b872dd90608401613ad5565b5f611a87836001600160a01b038416614906565b5f5f613b898a8a8a614952565b90508415613c4257835180613ba057506020840151155b15613bae575f915050613cb7565b6001600160a01b0383165f90815260016020908152604080832084845260130190915290205460ff1615613be5575f915050613cb7565b5f869003613bfa576020840151149050613cb7565b613c3a8787808060200260200160405190810160405280939291908181526020018383602002808284375f920191909152505050506020860151836149a4565b915050613cb7565b836040015180613c5457506060840151155b15613c62575f915050613cb7565b5f869003613c77576060840151149050613cb7565b613c3a8787808060200260200160405190810160405280939291908181526020018383602002808284375f920191909152505050506060860151836149a4565b98975050505050505050565b5f611a8783835f6149b9565b5f5f826001600160a01b03163b5f03613cfb576040516333bb44cb60e21b815260040160405180910390fd5b60408051600481526024810182526020810180516001600160e01b031663313ce56760e01b17905290515f9182916001600160a01b03871691613d3d916153e7565b5f60405180830381855afa9150503d805f8114613d75576040519150601f19603f3d011682016040523d82523d5f602084013e613d7a565b606091505b5091509150818015613d8e57506020815110155b15613dc1575f81806020019051810190613da89190614fd4565b905060ff8111613dbf576001969095509350505050565b505b505f9485945092505050565b80516001600160a01b039081165f90815260016020526040808220600301548451909316825290206002015481613e04824261537d565b1015613e235760405163ef63f7a160e01b815260040160405180910390fd5b808360c0015111613e4757604051636517b46b60e11b815260040160405180910390fd5b82516001600160a01b039081165f908152600160205260408082206005015486518416835290822060100154610100909104909216915f1914801590613e9057505f8560400151115b15613f54575f85604001518660600151670de0b6b3a7640000613eb391906153fd565b613ebd919061535e565b86516001600160a01b03165f90815260016020526040902060100154909150811115613f525760019150855f01516001600160a01b03167fe364669b114d8ecba48ed1742526a04c78dd506cd3af6beb910f6622a928cbdb604051613f49906020808252601390820152722424a3a42fa82829afa224a9a822a929a4a7a760691b604082015260600190565b60405180910390a25b505b84516001600160a01b039081165f9081526001602052604080822054885190931682529020601101545f1914801590613f8c57505f81115b15614078575f81876040015111613fb1576040870151613fac908361537d565b613fc1565b818760400151613fc1919061537d565b90505f82613fd783670de0b6b3a76400006153fd565b613fe1919061535e565b88516001600160a01b03165f908152600160205260409020601101549091508111156140755760019350875f01516001600160a01b03167fe364669b114d8ecba48ed1742526a04c78dd506cd3af6beb910f6622a928cbdb60405161406c906020808252601290820152712424a3a42fa82829afa222ab24a0aa24a7a760711b604082015260600190565b60405180910390a25b50505b5f8660a001511180156140a5575085516001600160a01b03165f9081526001602052604090206012015415155b15614180575f8660a001518760800151670de0b6b3a76400006140c891906153fd565b6140d2919061535e565b87516001600160a01b03165f9081526001602052604090206012015490915081101561417e5760019250865f01516001600160a01b03167fe364669b114d8ecba48ed1742526a04c78dd506cd3af6beb910f6622a928cbdb6040516141759060208082526024908201527f494e53554646494349454e545f56414c494441544f525f5041525449434950416040820152632a24a7a760e11b606082015260800190565b60405180910390a25b505b8180156141a9575085516001600160a01b03165f9081526001602052604090206005015460ff16155b1561420a5785516001600160a01b039081165f908152600160208190526040808320600501805460ff1916909217909155885190519216917fc2897a3765ea6cd9ed9ce463d3bc9c9cf968f21f8664b62684e1254d3b0f9ee59190a261428a565b81158015614233575085516001600160a01b03165f9081526001602052604090206005015460ff165b1561428a5785516001600160a01b039081165f90815260016020526040808220600501805460ff19169055885190519216917f9de75c520457842eb5fe159114348bf5358100a1acaf1bcb5052f64f347503df9190a25b856020015161435e5760e08601516001600160a01b0384165f9081526002602052604090205410156142cf57604051637f06a4a760e01b815260040160405180910390fd5b60e08601516001600160a01b0384165f90815260026020526040812080549091906142fb90849061537d565b909155505060e08601515f80548190614315908490614fc1565b909155505060e08601516040519081526001600160a01b038416907f15c92f373007d64c3ac31aa659df53e4a3340021ce36bdc35691470b05c6aa219060200160405180910390a25b6040808701805188516001600160a01b039081165f908152600160208190528582209390935560608b0180518c51841683528683209094019390935560c08b0180518c518416835291869020600201919091558a519351925160808c015160a08d01519251965195909316957fd9c8c2dea3061ff41ebdd1d1b16209a1d11761d3b4709874c68172c2d23dadcf95614418959492939190948552602085019390935260408401919091526060830152608082015260a00190565b60405180910390a2505050505050565b5f7f00000000000000000000000000000000000000000000000000000000000000006001600160a01b03166321f8a7217f00000000000000000000000000000000000000000000000000000000000000006001600160a01b0316636f2140c16040518163ffffffff1660e01b8152600401602060405180830381865afa1580156144b4573d5f5f3e3d5ffd5b505050506040513d601f19601f820116820180604052508101906144d89190614fd4565b6040518263ffffffff1660e01b81526004016144f691815260200190565b602060405180830381865afa158015614511573d5f5f3e3d5ffd5b505050506040513d601f19601f82011682018060405250810190610a8a9190614feb565b5f7f00000000000000000000000000000000000000000000000000000000000000006001600160a01b0316633ef150596040518163ffffffff1660e01b8152600401602060405180830381865afa158015614592573d5f5f3e3d5ffd5b505050506040513d601f19601f820116820180604052508101906145b69190615006565b6145c257506001611a87565b6001600160a01b0384165f908152600160205260409020600401546145e7834261537d565b111561464257826001600160a01b0316846001600160a01b03167f5413368ef0fd371d352762fd42f794381bdd66d2b2c3860549bc61f12f6ab2ba8460405161463291815260200190565b60405180910390a3506001611a87565b6001600160a01b038481165f908152600160205260409081902060050154905163572692b760e11b8152610100909104821660048201819052917f0000000000000000000000000000000000000000000000000000000000000000169063ae4d256e90602401602060405180830381865afa1580156146c3573d5f5f3e3d5ffd5b505050506040513d601f19601f820116820180604052508101906146e79190615006565b156146f6576001915050611a87565b6001600160a01b0385165f90815260016020526040902061471a9060080185613a87565b15614729576001915050611a87565b505f949350505050565b6060815f0180548060200260200160405190810160405280929190818152602001828054801561478057602002820191905f5260205f20905b81548152602001906001019080831161476c575b50505050509050919050565b5f5f60205f8451602086015f885af1806147ab576040513d5f823e3d81fd5b50505f513d915081156147c25780600114156147cf565b6001600160a01b0384163b155b156132a457604051635274afe760e01b81526001600160a01b03851660048201526024015b60405180910390fd5b5f81815260018301602052604081205480156148d7575f61481f60018361537d565b85549091505f906148329060019061537d565b9050808214614891575f865f01828154811061485057614850615021565b905f5260205f200154905080875f01848154811061487057614870615021565b5f918252602080832090910192909255918252600188019052604090208390555b85548690806148a2576148a2615414565b600190038181905f5260205f20015f90559055856001015f8681526020019081526020015f205f905560019350505050610fca565b5f915050610fca565b5f825f0182815481106148f5576148f5615021565b905f5260205f200154905092915050565b5f81815260018301602052604081205461494b57508154600181810184555f848152602080822090930184905584548482528286019093526040902091909155610fca565b505f610fca565b5f83838360405160200161496893929190615428565b60408051601f19818403018152828252805160209182012090830152016040516020818303038152906040528051906020012090509392505050565b5f826149b08584614a4e565b14949350505050565b5f814710156149e45760405163cf47918160e01b8152476004820152602481018390526044016147f4565b763d602d80600a3d3981f3363d3d373d3d3d363d730000008460601b60e81c175f526e5af43d82803e903d91602b57fd5bf38460781b17602052826037600984f590506001600160a01b038116611a875760405163b06ebf3d60e01b815260040160405180910390fd5b5f81815b8451811015614a8857614a7e82868381518110614a7157614a71615021565b6020026020010151614a90565b9150600101614a52565b509392505050565b5f818310614aaa575f828152602084905260409020611a87565b5f838152602083905260409020611a87565b602080825282518282018190525f918401906040840190835b81811015614afc5783516001600160a01b0316835260209384019390920191600101614ad5565b509095945050505050565b6001600160a01b0381168114614b1b575f5ffd5b50565b803561357f81614b07565b5f60208284031215614b39575f5ffd5b8135611a8781614b07565b5f5f60408385031215614b55575f5ffd5b8235614b6081614b07565b91506020830135614b7081614b07565b809150509250929050565b5f60208284031215614b8b575f5ffd5b5035919050565b5f5f5f5f60808587031215614ba5575f5ffd5b8435614bb081614b07565b966020860135965060408601359560600135945092505050565b5f5f60408385031215614bdb575f5ffd5b8235614be681614b07565b946020939093013593505050565b5f5f5f60408486031215614c06575f5ffd5b8335614c1181614b07565b925060208401356001600160401b03811115614c2b575f5ffd5b8401601f81018613614c3b575f5ffd5b80356001600160401b03811115614c50575f5ffd5b8660208260051b8401011115614c64575f5ffd5b939660209190910195509293505050565b5f8151808452602084019350602083015f5b82811015614ca75781511515865260209586019590910190600101614c87565b5093949350505050565b602081525f611a876020830184614c75565b5f60208284031215614cd3575f5ffd5b81356001600160401b03811115614ce8575f5ffd5b82016101408185031215611a87575f5ffd5b5f60208284031215614d0a575f5ffd5b81356001600160401b03811115614d1f575f5ffd5b820160c08185031215611a87575f5ffd5b5f5f60408385031215614d41575f5ffd5b8235614d4c81614b07565b915060208301356001600160401b03811115614d66575f5ffd5b830160808186031215614b70575f5ffd5b5f5f828403610120811215614d8a575f5ffd5b8335614d9581614b07565b9250610100601f1982011215614da9575f5ffd5b506020830190509250929050565b8015158114614b1b575f5ffd5b5f60208284031215614dd4575f5ffd5b8135611a8781614db7565b634e487b7160e01b5f52604160045260245ffd5b604051601f8201601f191681016001600160401b0381118282101715614e1b57614e1b614ddf565b604052919050565b5f6001600160401b03821115614e3b57614e3b614ddf565b5060051b60200190565b5f82601f830112614e54575f5ffd5b8135614e67614e6282614e23565b614df3565b8082825260208201915060208360051b860101925085831115614e88575f5ffd5b602085015b83811015614eae578035614ea081614db7565b835260209283019201614e8d565b5095945050505050565b5f5f5f60608486031215614eca575f5ffd5b83356001600160401b03811115614edf575f5ffd5b8401601f81018613614eef575f5ffd5b8035614efd614e6282614e23565b8082825260208201915060208360051b850101925088831115614f1e575f5ffd5b6020840193505b82841015614f40578335825260209384019390910190614f25565b955050505060208401356001600160401b03811115614f5d575f5ffd5b614f6986828701614e45565b925050614f7860408501614b1e565b90509250925092565b5f5f60408385031215614f92575f5ffd5b8235614f9d81614b07565b91506020830135614b7081614db7565b634e487b7160e01b5f52601160045260245ffd5b80820180821115610fca57610fca614fad565b5f60208284031215614fe4575f5ffd5b5051919050565b5f60208284031215614ffb575f5ffd5b8151611a8781614b07565b5f60208284031215615016575f5ffd5b8151611a8781614db7565b634e487b7160e01b5f52603260045260245ffd5b5f8235607e19833603018112615049575f5ffd5b9190910192915050565b5f5f8335601e19843603018112615068575f5ffd5b8301803591506001600160401b03821115615081575f5ffd5b602001915036819003821315615095575f5ffd5b9250929050565b5f5f8335601e198436030181126150b1575f5ffd5b8301803591506001600160401b038211156150ca575f5ffd5b6020019150600581901b3603821315615095575f5ffd5b5f600182016150f2576150f2614fad565b5060010190565b81835281816020850137505f828201602090810191909152601f909101601f19169091010190565b6001600160a01b0388811682528716602082015260a0604082018190525f9061514d90830187896150f9565b82810360608401526151608186886150f9565b91505082608083015298975050505050505050565b6001600160a01b038816815260a0602082018190525f90615199908301888a6150f9565b82810360408401526151ac8187896150f9565b6001600160a01b03958616606085015293909416608090920191909152509695505050505050565b6001600160a01b03831681528135602080830191909152820135604080830191909152608082019083013561520881614b07565b6001600160a01b03166060929092019190915292915050565b6001815b600184111561525c5780850481111561524057615240614fad565b600184161561524e57908102905b60019390931c928002615225565b935093915050565b5f8261527257506001610fca565b8161527e57505f610fca565b8160018114615294576002811461529e576152ba565b6001915050610fca565b60ff8411156152af576152af614fad565b50506001821b610fca565b5060208310610133831016604e8410600b84101617156152dd575081810a610fca565b6152e95f198484615221565b805f19048211156152fc576152fc614fad565b029392505050565b5f611a8760ff841683615264565b6001600160a01b038781168252861660208201526080604082018190525f9061533e90830186886150f9565b82810360608401526153518185876150f9565b9998505050505050505050565b5f8261537857634e487b7160e01b5f52601260045260245ffd5b500490565b81810381811115610fca57610fca614fad565b604080825283519082018190525f9060208501906060840190835b818110156153c95783518352602093840193909201916001016153ab565b505083810360208501526153dd8186614c75565b9695505050505050565b5f82518060208501845e5f920191825250919050565b8082028115828204841417610fca57610fca614fad565b634e487b7160e01b5f52603160045260245ffd5b6001600160a01b03841681526040602082018190525f9061544c90830184866150f9565b9594505050505056fea164736f6c634300081e000a","linkReferences":{}},"methodIdentifiers":{"ESCROW_IMPLEMENTATION()":"1de18ae6","PPS_DECIMALS()":"13b56ce7","STRATEGY_IMPLEMENTATION()":"f301061d","SUPER_GOVERNOR()":"39c7d246","VAULT_IMPLEMENTATION()":"1f9b5aaf","addAuthorizedCaller(address,address)":"6a279bb6","addSecondaryManager(address,address)":"c0c3bbd8","batchForwardPPS((address[],uint256[],uint256[],uint256[],uint256[],uint256[]))":"8e813db5","changeGlobalLeavesStatus(bytes32[],bool[],address)":"f430b328","changePrimaryManager(address,address)":"906811e0","claimUpkeep(uint256)":"d4eb9083","claimableUpkeep()":"05027eee","createVault((address,string,string,address,address[],uint256,uint256,(uint256,uint256,address)))":"86853dfd","depositStake(address,uint256)":"5410f365","depositUpkeep(address,uint256)":"6fe79652","executeChangePrimaryManager(address)":"9249c392","executeGlobalHooksRootUpdate()":"0a48d243","executeStrategyHooksRootUpdate(address)":"7825784b","forwardPPS(address,(address,bool,uint256,uint256,uint256,uint256,uint256,uint256))":"a895a594","getAllSuperVaultEscrows()":"154fd23f","getAllSuperVaultStrategies()":"8e9615c9","getAllSuperVaults()":"a5256bf2","getAuthorizedCallers(address)":"ceb18ce4","getCurrentNonce()":"3a60c386","getGlobalHooksRoot()":"2a90a055","getHooksRootUpdateTimelock()":"7be3d10f","getLastUpdateTimestamp(address)":"1a351d62","getMainManager(address)":"ceb7b7a3","getMaxStaleness(address)":"c25b784f","getMinUpdateInterval(address)":"3ab973a3","getPPS(address)":"bef02b8c","getPPSVerificationThresholds(address)":"322ae311","getPPSWithStdDev(address)":"2e79802f","getProposedGlobalHooksRoot()":"9ab4e37b","getProposedStrategyHooksRoot(address)":"2b4bb841","getSecondaryManagers(address)":"5f853d40","getStakeBalance(address)":"ef869773","getStrategyHooksRoot(address)":"c99d2c89","getUpkeepBalance(address)":"1aef3510","isAnyManager(address,address)":"9e87cb3f","isGlobalHooksRootActive()":"28f36ff0","isGlobalHooksRootVetoed()":"81ed8df4","isMainManager(address,address)":"eb91a9b2","isSecondaryManager(address,address)":"83aa6836","isStrategyHooksRootVetoed(address)":"a8485b73","isStrategyPaused(address)":"c06a02e8","proposeChangePrimaryManager(address,address)":"20b64b64","proposeGlobalHooksRoot(bytes32)":"b0e5173b","proposeStrategyHooksRoot(address,bytes32)":"5e12b2db","removeAuthorizedCaller(address,address)":"4e179bce","removeSecondaryManager(address,address)":"3c248029","setGlobalHooksRootVetoStatus(bool)":"d5f3cd86","setHooksRootUpdateTimelock(uint256)":"272b7add","setStrategyHooksRootVetoStatus(address,bool)":"f5297a47","slashStake(address,uint256)":"98d1c5a8","superVaultEscrows(uint256)":"bda262d7","superVaultStrategies(uint256)":"9dc0ad84","superVaults(uint256)":"44648c76","updatePPSVerificationThresholds(address,uint256,uint256,uint256)":"473e031c","validateHook(address,(address,bytes,bytes32[],bytes32[]))":"9e7b8c3a","validateHooks(address,(address,bytes,bytes32[],bytes32[])[])":"6cbd5796","withdrawStake(uint256)":"25d5971f","withdrawUpkeep(uint256)":"4b0b8aa6"},"id":461}