{"abi":[{"type":"function","name":"escrowShares","inputs":[{"name":"from","type":"address","internalType":"address"},{"name":"amount","type":"uint256","internalType":"uint256"}],"outputs":[],"stateMutability":"nonpayable"},{"type":"function","name":"initialize","inputs":[{"name":"vaultAddress","type":"address","internalType":"address"},{"name":"strategyAddress","type":"address","internalType":"address"}],"outputs":[],"stateMutability":"nonpayable"},{"type":"function","name":"initialized","inputs":[],"outputs":[{"name":"","type":"bool","internalType":"bool"}],"stateMutability":"view"},{"type":"function","name":"returnShares","inputs":[{"name":"to","type":"address","internalType":"address"},{"name":"amount","type":"uint256","internalType":"uint256"}],"outputs":[],"stateMutability":"nonpayable"},{"type":"function","name":"strategy","inputs":[],"outputs":[{"name":"","type":"address","internalType":"address"}],"stateMutability":"view"},{"type":"function","name":"vault","inputs":[],"outputs":[{"name":"","type":"address","internalType":"address"}],"stateMutability":"view"},{"type":"error","name":"ALREADY_INITIALIZED","inputs":[]},{"type":"error","name":"SafeERC20FailedOperation","inputs":[{"name":"token","type":"address","internalType":"address"}]},{"type":"error","name":"UNAUTHORIZED","inputs":[]},{"type":"error","name":"ZERO_ADDRESS","inputs":[]}],"bytecode":{"object":"0x6080604052348015600e575f5ffd5b506103c88061001c5f395ff3fe608060405234801561000f575f5ffd5b5060043610610060575f3560e01c8063158ef93e146100645780633aad4a4f14610085578063485cc9551461009a5780638b198025146100ad578063a8c62e76146100c0578063fbfa77cf146100eb575b5f5ffd5b5f546100709060ff1681565b60405190151581526020015b60405180910390f35b610098610093366004610362565b610102565b005b6100986100a836600461038a565b610151565b6100986100bb366004610362565b6101ea565b6001546100d3906001600160a01b031681565b6040516001600160a01b03909116815260200161007c565b5f546100d39061010090046001600160a01b031681565b5f5461010090046001600160a01b031633146101315760405163075fd2b160e01b815260040160405180910390fd5b5f5461014d9061010090046001600160a01b0316833084610234565b5050565b5f5460ff16156101745760405163439a74c960e01b815260040160405180910390fd5b6001600160a01b038216158061019157506001600160a01b038116155b156101af5760405163538ba4f960e01b815260040160405180910390fd5b5f805460016001600160a81b03199091166101006001600160a01b039586160217811790915580546001600160a01b03191691909216179055565b5f5461010090046001600160a01b031633146102195760405163075fd2b160e01b815260040160405180910390fd5b5f5461014d9061010090046001600160a01b031683836102a1565b6040516001600160a01b03848116602483015283811660448301526064820183905261029b9186918216906323b872dd906084015b604051602081830303815290604052915060e01b6020820180516001600160e01b0383818316178352505050506102d7565b50505050565b6040516001600160a01b038381166024830152604482018390526102d291859182169063a9059cbb90606401610269565b505050565b5f5f60205f8451602086015f885af1806102f6576040513d5f823e3d81fd5b50505f513d9150811561030d57806001141561031a565b6001600160a01b0384163b155b1561029b57604051635274afe760e01b81526001600160a01b038516600482015260240160405180910390fd5b80356001600160a01b038116811461035d575f5ffd5b919050565b5f5f60408385031215610373575f5ffd5b61037c83610347565b946020939093013593505050565b5f5f6040838503121561039b575f5ffd5b6103a483610347565b91506103b260208401610347565b9050925092905056fea164736f6c634300081e000a","linkReferences":{}},"methodIdentifiers":{"escrowShares(address,uint256)":"3aad4a4f","initialize(address,address)":"485cc955","initialized()":"158ef93e","returnShares(address,uint256)":"8b198025","strategy()":"a8c62e76","vault()":"fbfa77cf"},"id":462}