{"abi":[{"type":"constructor","inputs":[{"name":"superGovernor_","type":"address","internalType":"address"}],"stateMutability":"nonpayable"},{"type":"receive","stateMutability":"payable"},{"type":"function","name":"PRECISION","inputs":[],"outputs":[{"name":"","type":"uint256","internalType":"uint256"}],"stateMutability":"view"},{"type":"function","name":"claimableWithdraw","inputs":[{"name":"controller","type":"address","internalType":"address"}],"outputs":[{"name":"claimableAssets","type":"uint256","internalType":"uint256"}],"stateMutability":"view"},{"type":"function","name":"containsYieldSource","inputs":[{"name":"source","type":"address","internalType":"address"}],"outputs":[{"name":"","type":"bool","internalType":"bool"}],"stateMutability":"view"},{"type":"function","name":"emergencyWithdrawable","inputs":[],"outputs":[{"name":"","type":"bool","internalType":"bool"}],"stateMutability":"view"},{"type":"function","name":"emergencyWithdrawableEffectiveTime","inputs":[],"outputs":[{"name":"","type":"uint256","internalType":"uint256"}],"stateMutability":"view"},{"type":"function","name":"executeHooks","inputs":[{"name":"args","type":"tuple","internalType":"struct ISuperVaultStrategy.ExecuteArgs","components":[{"name":"hooks","type":"address[]","internalType":"address[]"},{"name":"hookCalldata","type":"bytes[]","internalType":"bytes[]"},{"name":"expectedAssetsOrSharesOut","type":"uint256[]","internalType":"uint256[]"},{"name":"globalProofs","type":"bytes32[][]","internalType":"bytes32[][]"},{"name":"strategyProofs","type":"bytes32[][]","internalType":"bytes32[][]"}]}],"outputs":[],"stateMutability":"payable"},{"type":"function","name":"executeVaultFeeConfigUpdate","inputs":[],"outputs":[],"stateMutability":"nonpayable"},{"type":"function","name":"fulfillRedeemRequests","inputs":[{"name":"args","type":"tuple","internalType":"struct ISuperVaultStrategy.FulfillArgs","components":[{"name":"controllers","type":"address[]","internalType":"address[]"},{"name":"hooks","type":"address[]","internalType":"address[]"},{"name":"hookCalldata","type":"bytes[]","internalType":"bytes[]"},{"name":"expectedAssetsOrSharesOut","type":"uint256[]","internalType":"uint256[]"},{"name":"globalProofs","type":"bytes32[][]","internalType":"bytes32[][]"},{"name":"strategyProofs","type":"bytes32[][]","internalType":"bytes32[][]"}]}],"outputs":[],"stateMutability":"nonpayable"},{"type":"function","name":"getAverageWithdrawPrice","inputs":[{"name":"controller","type":"address","internalType":"address"}],"outputs":[{"name":"averageWithdrawPrice","type":"uint256","internalType":"uint256"}],"stateMutability":"view"},{"type":"function","name":"getConfigInfo","inputs":[],"outputs":[{"name":"feeConfig_","type":"tuple","internalType":"struct ISuperVaultStrategy.FeeConfig","components":[{"name":"performanceFeeBps","type":"uint256","internalType":"uint256"},{"name":"managementFeeBps","type":"uint256","internalType":"uint256"},{"name":"recipient","type":"address","internalType":"address"}]}],"stateMutability":"view"},{"type":"function","name":"getStoredPPS","inputs":[],"outputs":[{"name":"","type":"uint256","internalType":"uint256"}],"stateMutability":"view"},{"type":"function","name":"getSuperVaultState","inputs":[{"name":"controller","type":"address","internalType":"address"}],"outputs":[{"name":"state","type":"tuple","internalType":"struct ISuperVaultStrategy.SuperVaultState","components":[{"name":"pendingRedeemRequest","type":"uint256","internalType":"uint256"},{"name":"maxWithdraw","type":"uint256","internalType":"uint256"},{"name":"averageRequestPPS","type":"uint256","internalType":"uint256"},{"name":"accumulatorShares","type":"uint256","internalType":"uint256"},{"name":"accumulatorCostBasis","type":"uint256","internalType":"uint256"},{"name":"averageWithdrawPrice","type":"uint256","internalType":"uint256"}]}],"stateMutability":"view"},{"type":"function","name":"getVaultInfo","inputs":[],"outputs":[{"name":"vault","type":"address","internalType":"address"},{"name":"asset","type":"address","internalType":"address"},{"name":"vaultDecimals","type":"uint8","internalType":"uint8"}],"stateMutability":"view"},{"type":"function","name":"getYieldSource","inputs":[{"name":"source","type":"address","internalType":"address"}],"outputs":[{"name":"","type":"tuple","internalType":"struct ISuperVaultStrategy.YieldSource","components":[{"name":"oracle","type":"address","internalType":"address"}]}],"stateMutability":"view"},{"type":"function","name":"getYieldSources","inputs":[],"outputs":[{"name":"","type":"address[]","internalType":"address[]"}],"stateMutability":"view"},{"type":"function","name":"getYieldSourcesCount","inputs":[],"outputs":[{"name":"","type":"uint256","internalType":"uint256"}],"stateMutability":"view"},{"type":"function","name":"getYieldSourcesList","inputs":[],"outputs":[{"name":"","type":"tuple[]","internalType":"struct ISuperVaultStrategy.YieldSourceInfo[]","components":[{"name":"sourceAddress","type":"address","internalType":"address"},{"name":"oracle","type":"address","internalType":"address"}]}],"stateMutability":"view"},{"type":"function","name":"handleOperations4626Deposit","inputs":[{"name":"controller","type":"address","internalType":"address"},{"name":"assetsGross","type":"uint256","internalType":"uint256"}],"outputs":[{"name":"sharesNet","type":"uint256","internalType":"uint256"}],"stateMutability":"nonpayable"},{"type":"function","name":"handleOperations4626Mint","inputs":[{"name":"controller","type":"address","internalType":"address"},{"name":"sharesNet","type":"uint256","internalType":"uint256"},{"name":"assetsGross","type":"uint256","internalType":"uint256"},{"name":"assetsNet","type":"uint256","internalType":"uint256"}],"outputs":[],"stateMutability":"nonpayable"},{"type":"function","name":"handleOperations7540","inputs":[{"name":"operation","type":"uint8","internalType":"enum ISuperVaultStrategy.Operation"},{"name":"controller","type":"address","internalType":"address"},{"name":"receiver","type":"address","internalType":"address"},{"name":"amount","type":"uint256","internalType":"uint256"}],"outputs":[],"stateMutability":"nonpayable"},{"type":"function","name":"initialize","inputs":[{"name":"vaultAddress","type":"address","internalType":"address"},{"name":"feeConfigData","type":"tuple","internalType":"struct ISuperVaultStrategy.FeeConfig","components":[{"name":"performanceFeeBps","type":"uint256","internalType":"uint256"},{"name":"managementFeeBps","type":"uint256","internalType":"uint256"},{"name":"recipient","type":"address","internalType":"address"}]}],"outputs":[],"stateMutability":"nonpayable"},{"type":"function","name":"manageEmergencyWithdraw","inputs":[{"name":"action","type":"uint8","internalType":"uint8"},{"name":"recipient","type":"address","internalType":"address"},{"name":"amount","type":"uint256","internalType":"uint256"}],"outputs":[],"stateMutability":"nonpayable"},{"type":"function","name":"manageYieldSource","inputs":[{"name":"source","type":"address","internalType":"address"},{"name":"oracle","type":"address","internalType":"address"},{"name":"actionType","type":"uint8","internalType":"uint8"}],"outputs":[],"stateMutability":"nonpayable"},{"type":"function","name":"manageYieldSources","inputs":[{"name":"sources","type":"address[]","internalType":"address[]"},{"name":"oracles","type":"address[]","internalType":"address[]"},{"name":"actionTypes","type":"uint8[]","internalType":"uint8[]"}],"outputs":[],"stateMutability":"nonpayable"},{"type":"function","name":"moveAccumulatorOnTransfer","inputs":[{"name":"from","type":"address","internalType":"address"},{"name":"to","type":"address","internalType":"address"},{"name":"shares","type":"uint256","internalType":"uint256"}],"outputs":[],"stateMutability":"nonpayable"},{"type":"function","name":"pendingRedeemRequest","inputs":[{"name":"controller","type":"address","internalType":"address"}],"outputs":[{"name":"pendingShares","type":"uint256","internalType":"uint256"}],"stateMutability":"view"},{"type":"function","name":"previewPerformanceFee","inputs":[{"name":"controller","type":"address","internalType":"address"},{"name":"sharesToRedeem","type":"uint256","internalType":"uint256"}],"outputs":[{"name":"totalFee","type":"uint256","internalType":"uint256"},{"name":"superformFee","type":"uint256","internalType":"uint256"},{"name":"recipientFee","type":"uint256","internalType":"uint256"}],"stateMutability":"view"},{"type":"function","name":"proposeVaultFeeConfigUpdate","inputs":[{"name":"performanceFeeBps","type":"uint256","internalType":"uint256"},{"name":"managementFeeBps","type":"uint256","internalType":"uint256"},{"name":"recipient","type":"address","internalType":"address"}],"outputs":[],"stateMutability":"nonpayable"},{"type":"function","name":"proposedEmergencyWithdrawable","inputs":[],"outputs":[{"name":"","type":"bool","internalType":"bool"}],"stateMutability":"view"},{"type":"function","name":"quoteMintAssetsGross","inputs":[{"name":"shares","type":"uint256","internalType":"uint256"}],"outputs":[{"name":"assetsGross","type":"uint256","internalType":"uint256"},{"name":"assetsNet","type":"uint256","internalType":"uint256"}],"stateMutability":"view"},{"type":"function","name":"superGovernor","inputs":[],"outputs":[{"name":"","type":"address","internalType":"contract ISuperGovernor"}],"stateMutability":"view"},{"type":"function","name":"updateMaxPPSSlippage","inputs":[{"name":"maxSlippageBps","type":"uint256","internalType":"uint256"}],"outputs":[],"stateMutability":"nonpayable"},{"type":"function","name":"updateSuperVaultState","inputs":[{"name":"controller","type":"address","internalType":"address"},{"name":"state","type":"tuple","internalType":"struct ISuperVaultStrategy.SuperVaultState","components":[{"name":"pendingRedeemRequest","type":"uint256","internalType":"uint256"},{"name":"maxWithdraw","type":"uint256","internalType":"uint256"},{"name":"averageRequestPPS","type":"uint256","internalType":"uint256"},{"name":"accumulatorShares","type":"uint256","internalType":"uint256"},{"name":"accumulatorCostBasis","type":"uint256","internalType":"uint256"},{"name":"averageWithdrawPrice","type":"uint256","internalType":"uint256"}]}],"outputs":[],"stateMutability":"nonpayable"},{"type":"event","name":"DepositHandled","inputs":[{"name":"controller","type":"address","indexed":true,"internalType":"address"},{"name":"assets","type":"uint256","indexed":false,"internalType":"uint256"},{"name":"shares","type":"uint256","indexed":false,"internalType":"uint256"}],"anonymous":false},{"type":"event","name":"EmergencyWithdrawableProposalCanceled","inputs":[],"anonymous":false},{"type":"event","name":"EmergencyWithdrawableProposed","inputs":[{"name":"newWithdrawable","type":"bool","indexed":false,"internalType":"bool"},{"name":"effectiveTime","type":"uint256","indexed":false,"internalType":"uint256"}],"anonymous":false},{"type":"event","name":"EmergencyWithdrawableUpdated","inputs":[{"name":"withdrawable","type":"bool","indexed":false,"internalType":"bool"}],"anonymous":false},{"type":"event","name":"EmergencyWithdrawal","inputs":[{"name":"recipient","type":"address","indexed":true,"internalType":"address"},{"name":"assets","type":"uint256","indexed":false,"internalType":"uint256"}],"anonymous":false},{"type":"event","name":"FeePaid","inputs":[{"name":"recipient","type":"address","indexed":true,"internalType":"address"},{"name":"amount","type":"uint256","indexed":false,"internalType":"uint256"},{"name":"performanceFeeBps","type":"uint256","indexed":false,"internalType":"uint256"}],"anonymous":false},{"type":"event","name":"FulfillHookExecuted","inputs":[{"name":"hook","type":"address","indexed":true,"internalType":"address"},{"name":"targetedYieldSource","type":"address","indexed":true,"internalType":"address"},{"name":"hookCalldata","type":"bytes","indexed":false,"internalType":"bytes"}],"anonymous":false},{"type":"event","name":"HookExecuted","inputs":[{"name":"hook","type":"address","indexed":true,"internalType":"address"},{"name":"prevHook","type":"address","indexed":true,"internalType":"address"},{"name":"targetedYieldSource","type":"address","indexed":true,"internalType":"address"},{"name":"usePrevHookAmount","type":"bool","indexed":false,"internalType":"bool"},{"name":"hookCalldata","type":"bytes","indexed":false,"internalType":"bytes"}],"anonymous":false},{"type":"event","name":"HookRootProposed","inputs":[{"name":"proposedRoot","type":"bytes32","indexed":false,"internalType":"bytes32"},{"name":"effectiveTime","type":"uint256","indexed":false,"internalType":"uint256"}],"anonymous":false},{"type":"event","name":"HookRootUpdated","inputs":[{"name":"newRoot","type":"bytes32","indexed":false,"internalType":"bytes32"}],"anonymous":false},{"type":"event","name":"HooksExecuted","inputs":[{"name":"hooks","type":"address[]","indexed":false,"internalType":"address[]"}],"anonymous":false},{"type":"event","name":"Initialized","inputs":[{"name":"version","type":"uint64","indexed":false,"internalType":"uint64"}],"anonymous":false},{"type":"event","name":"Initialized","inputs":[{"name":"vault","type":"address","indexed":true,"internalType":"address"}],"anonymous":false},{"type":"event","name":"ManagementFeePaid","inputs":[{"name":"controller","type":"address","indexed":true,"internalType":"address"},{"name":"recipient","type":"address","indexed":true,"internalType":"address"},{"name":"feeAssets","type":"uint256","indexed":false,"internalType":"uint256"},{"name":"feeBps","type":"uint256","indexed":false,"internalType":"uint256"}],"anonymous":false},{"type":"event","name":"MaxPPSSlippageUpdated","inputs":[{"name":"maxSlippageBps","type":"uint256","indexed":false,"internalType":"uint256"}],"anonymous":false},{"type":"event","name":"PPSUpdated","inputs":[{"name":"newPPS","type":"uint256","indexed":false,"internalType":"uint256"},{"name":"calculationBlock","type":"uint256","indexed":false,"internalType":"uint256"}],"anonymous":false},{"type":"event","name":"RedeemRequestCanceled","inputs":[{"name":"controller","type":"address","indexed":true,"internalType":"address"},{"name":"shares","type":"uint256","indexed":false,"internalType":"uint256"}],"anonymous":false},{"type":"event","name":"RedeemRequestFulfilled","inputs":[{"name":"controller","type":"address","indexed":true,"internalType":"address"},{"name":"receiver","type":"address","indexed":true,"internalType":"address"},{"name":"assets","type":"uint256","indexed":false,"internalType":"uint256"},{"name":"shares","type":"uint256","indexed":false,"internalType":"uint256"}],"anonymous":false},{"type":"event","name":"RedeemRequestPlaced","inputs":[{"name":"controller","type":"address","indexed":true,"internalType":"address"},{"name":"owner","type":"address","indexed":true,"internalType":"address"},{"name":"shares","type":"uint256","indexed":false,"internalType":"uint256"}],"anonymous":false},{"type":"event","name":"RedeemRequestsFulfilled","inputs":[{"name":"hooks","type":"address[]","indexed":false,"internalType":"address[]"},{"name":"controllers","type":"address[]","indexed":false,"internalType":"address[]"},{"name":"processedShares","type":"uint256","indexed":false,"internalType":"uint256"},{"name":"currentPPS","type":"uint256","indexed":false,"internalType":"uint256"}],"anonymous":false},{"type":"event","name":"SuperGovernorSet","inputs":[{"name":"superGovernor","type":"address","indexed":true,"internalType":"address"}],"anonymous":false},{"type":"event","name":"VaultFeeConfigProposed","inputs":[{"name":"performanceFeeBps","type":"uint256","indexed":false,"internalType":"uint256"},{"name":"managementFeeBps","type":"uint256","indexed":false,"internalType":"uint256"},{"name":"recipient","type":"address","indexed":true,"internalType":"address"},{"name":"effectiveTime","type":"uint256","indexed":false,"internalType":"uint256"}],"anonymous":false},{"type":"event","name":"VaultFeeConfigUpdated","inputs":[{"name":"performanceFeeBps","type":"uint256","indexed":false,"internalType":"uint256"},{"name":"managementFeeBps","type":"uint256","indexed":false,"internalType":"uint256"},{"name":"recipient","type":"address","indexed":true,"internalType":"address"}],"anonymous":false},{"type":"event","name":"YieldSourceAdded","inputs":[{"name":"source","type":"address","indexed":true,"internalType":"address"},{"name":"oracle","type":"address","indexed":true,"internalType":"address"}],"anonymous":false},{"type":"event","name":"YieldSourceOracleUpdated","inputs":[{"name":"source","type":"address","indexed":true,"internalType":"address"},{"name":"oldOracle","type":"address","indexed":true,"internalType":"address"},{"name":"newOracle","type":"address","indexed":true,"internalType":"address"}],"anonymous":false},{"type":"event","name":"YieldSourceRemoved","inputs":[{"name":"source","type":"address","indexed":true,"internalType":"address"}],"anonymous":false},{"type":"error","name":"ACCESS_DENIED","inputs":[]},{"type":"error","name":"ACTION_TYPE_DISALLOWED","inputs":[]},{"type":"error","name":"ASYNC_REQUEST_BLOCKING","inputs":[]},{"type":"error","name":"CALCULATION_BLOCK_TOO_OLD","inputs":[]},{"type":"error","name":"HOOK_VALIDATION_FAILED","inputs":[]},{"type":"error","name":"INSUFFICIENT_FUNDS","inputs":[]},{"type":"error","name":"INSUFFICIENT_SHARES","inputs":[]},{"type":"error","name":"INVALID_AMOUNT","inputs":[]},{"type":"error","name":"INVALID_ARRAY_LENGTH","inputs":[]},{"type":"error","name":"INVALID_EMERGENCY_ADMIN","inputs":[]},{"type":"error","name":"INVALID_EMERGENCY_WITHDRAWAL","inputs":[]},{"type":"error","name":"INVALID_HOOK","inputs":[]},{"type":"error","name":"INVALID_HOOK_ROOT","inputs":[]},{"type":"error","name":"INVALID_HOOK_TYPE","inputs":[]},{"type":"error","name":"INVALID_MANAGER","inputs":[]},{"type":"error","name":"INVALID_MAX_SLIPPAGE_BPS","inputs":[]},{"type":"error","name":"INVALID_PERFORMANCE_FEE_BPS","inputs":[]},{"type":"error","name":"INVALID_PERIPHERY_REGISTRY","inputs":[]},{"type":"error","name":"INVALID_PPS","inputs":[]},{"type":"error","name":"INVALID_REDEEM_CLAIM","inputs":[]},{"type":"error","name":"INVALID_REDEEM_FILL","inputs":[]},{"type":"error","name":"INVALID_TIMESTAMP","inputs":[]},{"type":"error","name":"INVALID_VAULT","inputs":[]},{"type":"error","name":"InvalidInitialization","inputs":[]},{"type":"error","name":"MANAGER_NOT_AUTHORIZED","inputs":[]},{"type":"error","name":"MINIMUM_OUTPUT_AMOUNT_ASSETS_NOT_MET","inputs":[]},{"type":"error","name":"MINIMUM_PREVIOUS_HOOK_OUT_AMOUNT_NOT_MET","inputs":[]},{"type":"error","name":"NO_PROPOSAL","inputs":[]},{"type":"error","name":"NotInitializing","inputs":[]},{"type":"error","name":"OPERATIONS_BLOCKED_BY_VETO","inputs":[]},{"type":"error","name":"OPERATION_FAILED","inputs":[]},{"type":"error","name":"PPS_OUT_OF_BOUNDS","inputs":[]},{"type":"error","name":"PPS_UPDATE_RATE_LIMITED","inputs":[]},{"type":"error","name":"REQUEST_NOT_FOUND","inputs":[]},{"type":"error","name":"ReentrancyGuardReentrantCall","inputs":[]},{"type":"error","name":"SLIPPAGE_EXCEEDED","inputs":[]},{"type":"error","name":"STAKE_TOO_LOW","inputs":[]},{"type":"error","name":"STRATEGY_PAUSED","inputs":[]},{"type":"error","name":"SafeERC20FailedOperation","inputs":[{"name":"token","type":"address","internalType":"address"}]},{"type":"error","name":"YIELD_SOURCE_ALREADY_EXISTS","inputs":[]},{"type":"error","name":"YIELD_SOURCE_NOT_FOUND","inputs":[]},{"type":"error","name":"ZERO_ADDRESS","inputs":[]},{"type":"error","name":"ZERO_EXPECTED_VALUE","inputs":[]},{"type":"error","name":"ZERO_LENGTH","inputs":[]},{"type":"error","name":"ZERO_OUTPUT_AMOUNT","inputs":[]}],"bytecode":{"object":"0x60a060405234801561000f575f5ffd5b5060405161563238038061563283398101604081905261002e9161014c565b6001600160a01b0381166100555760405163538ba4f960e01b815260040160405180910390fd5b6001600160a01b03811660808190526040517f0da0926ffeff398fc5913fba71778c90421d4af535e207f385a39e335cbfa692905f90a261009461009a565b50610179565b7ff0c57e16840df040f15088dc2f81fe391c3923bec73e23a9662efc9c229c6a00805468010000000000000000900460ff16156100ea5760405163f92ee8a960e01b815260040160405180910390fd5b80546001600160401b03908116146101495780546001600160401b0319166001600160401b0390811782556040519081527fc7f505b2f371ae2175ee4913f4499e1f2633a7b5936321eed1cdaeb6115181d29060200160405180910390a15b50565b5f6020828403121561015c575f5ffd5b81516001600160a01b0381168114610172575f5ffd5b9392505050565b6080516154696101c95f395f81816102e0015281816119f90152818161238801528181612e0201528181612e310152818161300401528181614441015281816144ee015261451d01526154695ff3fe6080604052600436106101e9575f3560e01c806363ee53de11610108578063aaf5eb681161009d578063d324e15b1161006d578063d324e15b1461064c578063d48c7bf91461066b578063dc697818146106d5578063e7a5befa1461070c578063f4b3ea581461072b575f5ffd5b8063aaf5eb68146105c1578063c1249ab1146105d5578063c9dd181e146105f6578063cd77384414610615575f5ffd5b80637b26e709116100d85780637b26e709146105055780637f98aa711461052657806390b386ef14610568578063a660de9f14610587575f5ffd5b806363ee53de1461042c5780636bccefbd1461044b57806370edf859146104b257806378a1bf05146104c6575f5ffd5b80633e9d39ab1161017e57806353c71a6b1161014e57806353c71a6b146103a557806353dc1dd3146103c4578063545fe28a146103f857806356bd114814610417575f5ffd5b80633e9d39ab1461031a57806340f0e2f91461033357806349de7afb146103525780634da6172a14610386575f5ffd5b80631eaed011116101b95780631eaed011146102895780632653517d146102a85780632f82b89a146102bc5780633289cbfb146102cf575f5ffd5b80631140092c146101f45780631744700a146102155780631aa7d751146102475780631ac693041461025b575f5ffd5b366101f057005b5f5ffd5b3480156101ff575f5ffd5b5061021361020e36600461482c565b61074a565b005b348015610220575f5ffd5b5061023461022f366004614876565b610c46565b6040519081526020015b60405180910390f35b348015610252575f5ffd5b50610213610f24565b348015610266575f5ffd5b50600b5461027990610100900460ff1681565b604051901515815260200161023e565b348015610294575f5ffd5b506102136102a33660046148e7565b610ff5565b3480156102b3575f5ffd5b506102346110f9565b6102136102ca366004614983565b61116f565b3480156102da575f5ffd5b506103027f000000000000000000000000000000000000000000000000000000000000000081565b6040516001600160a01b03909116815260200161023e565b348015610325575f5ffd5b50600b546102799060ff1681565b34801561033e575f5ffd5b5061021361034d3660046149b9565b6114b1565b34801561035d575f5ffd5b5061037161036c3660046149f7565b6115a2565b6040805192835260208301919091520161023e565b348015610391575f5ffd5b506102136103a0366004614a1c565b611657565b3480156103b0575f5ffd5b506102136103bf366004614af2565b611670565b3480156103cf575f5ffd5b506102346103de366004614b7b565b6001600160a01b03165f9081526010602052604090205490565b348015610403575f5ffd5b506102136104123660046149f7565b6116cc565b348015610422575f5ffd5b50610234600c5481565b348015610437575f5ffd5b50610279610446366004614b7b565b611733565b348015610456575f5ffd5b5061049a610465366004614b7b565b60408051602080820183525f91829052825180820184526001600160a01b039485168352600d90915291902054909116815290565b60405190516001600160a01b0316815260200161023e565b3480156104bd575f5ffd5b5061023461173f565b3480156104d1575f5ffd5b506104da61174a565b604080518251815260208084015190820152918101516001600160a01b03169082015260600161023e565b348015610510575f5ffd5b506105196117a2565b60405161023e9190614b96565b348015610531575f5ffd5b50600154600254604080516001600160a01b0393841681529282166020840152600160a01b90910460ff169082015260600161023e565b348015610573575f5ffd5b50610213610582366004614bf0565b61188d565b348015610592575f5ffd5b506105a66105a1366004614876565b611922565b6040805193845260208401929092529082015260600161023e565b3480156105cc575f5ffd5b506102345f5481565b3480156105e0575f5ffd5b506105e9611a97565b60405161023e9190614c41565b348015610601575f5ffd5b50610213610610366004614c81565b611aa3565b348015610620575f5ffd5b5061023461062f366004614b7b565b6001600160a01b03165f9081526010602052604090206005015490565b348015610657575f5ffd5b50610213610666366004614ce9565b611de4565b348015610676575f5ffd5b5061068a610685366004614b7b565b611eff565b60405161023e91905f60c082019050825182526020830151602083015260408301516040830152606083015160608301526080830151608083015260a083015160a083015292915050565b3480156106e0575f5ffd5b506102346106ef366004614b7b565b6001600160a01b03165f9081526010602052604090206001015490565b348015610717575f5ffd5b50610213610726366004614d14565b611f93565b348015610736575f5ffd5b50610213610745366004614d4c565b6121db565b610752612229565b61075b33612260565b6107636122f6565b15610781576040516314c45ee560e21b815260040160405180910390fd5b5f61078f6020830183614d69565b90509050805f036107b3576040516358f3f89d60e01b815260040160405180910390fd5b5f6107be8380614d69565b90509050805f036107e2576040516358f3f89d60e01b815260040160405180910390fd5b816107f06040850185614d69565b9050146108105760405163c6a335ff60e01b815260040160405180910390fd5b8161081e6060850185614d69565b90501461083e5760405163c6a335ff60e01b815260040160405180910390fd5b8161084c6080850185614d69565b90501461086c5760405163c6a335ff60e01b815260040160405180910390fd5b8161087a60a0850185614d69565b90501461089a5760405163c6a335ff60e01b815260040160405180910390fd5b5f5f6108a46110f9565b9050805f036108c65760405163772da13960e11b815260040160405180910390fd5b5f5b84811015610b64575f6108de6020880188614d69565b838181106108ee576108ee614dae565b90506020020160208101906109039190614b7b565b905061090e81612367565b61092b57604051630b11a54960e21b815260040160405180910390fd5b610a578161093c60408a018a614d69565b8581811061094c5761094c614dae565b905060200281019061095e9190614dc2565b8080601f0160208091040260200160405190810160405280939291908181526020018383808284375f9201919091525061099f9250505060808b018b614d69565b868181106109af576109af614dae565b90506020028101906109c19190614d69565b808060200260200160405190810160405280939291908181526020018383602002808284375f920191909152506109ff9250505060a08c018c614d69565b87818110610a0f57610a0f614dae565b9050602002810190610a219190614d69565b808060200260200160405190810160405280939291908181526020018383602002808284375f920191909152506123f492505050565b610a7457604051634838045760e11b815260040160405180910390fd5b610a816060880188614d69565b83818110610a9157610a91614dae565b905060200201355f03610ab757604051636482e44d60e11b815260040160405180910390fd5b5f610b4982610ac960408b018b614d69565b86818110610ad957610ad9614dae565b9050602002810190610aeb9190614dc2565b8080601f0160208091040260200160405190810160405280939291908181526020018383808284375f92019190915250610b2c9250505060608c018c614d69565b87818110610b3c57610b3c614dae565b9050602002013587612507565b9050610b558186614e18565b945050508060010190506108c8565b50610b7a610b728680614d69565b858585612b0f565b60015460405163853c637d60e01b8152600481018490526001600160a01b039091169063853c637d906024015f604051808303815f87803b158015610bbd575f5ffd5b505af1158015610bcf573d5f5f3e3d5ffd5b507fb60c22109df38dfaf6625c7de9afef9f213602f043bfa783be1c0ef783ed843e9250610c039150506020870187614d69565b610c0d8880614d69565b8686604051610c2196959493929190614e73565b60405180910390a150505050610c4360015f51602061543d5f395f51905f5255565b50565b5f610c4f612dd1565b815f03610c6f5760405163fae8279160e01b815260040160405180910390fd5b6001600160a01b038316610c965760405163538ba4f960e01b815260040160405180910390fd5b610c9e6122f6565b15610cbc576040516314c45ee560e21b815260040160405180910390fd5b610cc4612dfe565b6001600160a01b03166381ed8df46040518163ffffffff1660e01b8152600401602060405180830381865afa158015610cff573d5f5f3e3d5ffd5b505050506040513d601f19601f82011682018060405250810190610d239190614eaf565b15610d4157604051630289fd1f60e21b815260040160405180910390fd5b6005545f8115610d5f57610d5a84836127106001612f0c565b610d61565b5f5b90505f610d6e8286614ece565b9050805f03610d905760405163fae8279160e01b815260040160405180910390fd5b8115610e2f576006546001600160a01b031680610dc05760405163538ba4f960e01b815260040160405180910390fd5b600254610dd7906001600160a01b03168285612f4e565b806001600160a01b0316876001600160a01b03167faa504b22cbdce5a2eefab55773a71cacbdccd9434d9650cedb1fc8f8da51380e8587604051610e25929190918252602082015260400190565b60405180910390a3505b5f610e386110f9565b9050805f03610e5a5760405163772da13960e11b815260040160405180910390fd5b610e67825f54835f612f0c565b9450845f03610e895760405163fae8279160e01b815260040160405180910390fd5b6001600160a01b0387165f90815260106020526040812060038101805491928892610eb5908490614e18565b9250508190555082816004015f828254610ecf9190614e18565b909155505060408051848152602081018890526001600160a01b038a16917fa7a45ea372219103bc7d0bb545ac15937334185abf185241b18414600ed19110910160405180910390a250505050505b92915050565b600a54421015610f475760405163118818d160e01b815260040160405180910390fd5b6009546001600160a01b0316610f705760405163538ba4f960e01b815260040160405180910390fd5b60078054600481905560088054600581905560098054600680546001600160a01b0383166001600160a01b031991821681179092555f978890559487905593169055600a93909355604080519283526020830193909352917f041b1399f977ad0e4a4999c4e9e555b429504d348297068ae6e554c11a84d06d910160405180910390a2565b610ffe33612f68565b845f819003611020576040516358f3f89d60e01b815260040160405180910390fd5b8381146110405760405163c6a335ff60e01b815260040160405180910390fd5b8181146110605760405163c6a335ff60e01b815260040160405180910390fd5b5f5b818110156110ef576110e788888381811061107f5761107f614dae565b90506020020160208101906110949190614b7b565b8787848181106110a6576110a6614dae565b90506020020160208101906110bb9190614b7b565b8686858181106110cd576110cd614dae565b90506020020160208101906110e29190614ee1565b612fa6565b600101611062565b5050505050505050565b5f611102612dfe565b604051632fbc0ae360e21b81523060048201526001600160a01b03919091169063bef02b8c90602401602060405180830381865afa158015611146573d5f5f3e3d5ffd5b505050506040513d601f19601f8201168201806040525081019061116a9190614efc565b905090565b611177612229565b61118033612260565b5f61118b8280614d69565b90509050805f036111af576040516358f3f89d60e01b815260040160405180910390fd5b806111bd6020840184614d69565b9050146111dd5760405163c6a335ff60e01b815260040160405180910390fd5b806111eb6040840184614d69565b90501461120b5760405163c6a335ff60e01b815260040160405180910390fd5b806112196060840184614d69565b9050146112395760405163c6a335ff60e01b815260040160405180910390fd5b806112476080840184614d69565b9050146112675760405163c6a335ff60e01b815260040160405180910390fd5b5f5f5b82811015611457575f61127d8580614d69565b8381811061128d5761128d614dae565b90506020020160208101906112a29190614b7b565b90506112ad81612fe3565b6112ca57604051630b11a54960e21b815260040160405180910390fd5b61139e816112db6020880188614d69565b858181106112eb576112eb614dae565b90506020028101906112fd9190614dc2565b8080601f0160208091040260200160405190810160405280939291908181526020018383808284375f9201919091525061133e925050506060890189614d69565b8681811061134e5761134e614dae565b90506020028101906113609190614d69565b808060200260200160405190810160405280939291908181526020018383602002808284375f920191909152506109ff9250505060808a018a614d69565b6113bb57604051634838045760e11b815260040160405180910390fd5b61144c81846113cd6020890189614d69565b868181106113dd576113dd614dae565b90506020028101906113ef9190614dc2565b8080601f0160208091040260200160405190810160405280939291908181526020018383808284375f920191909152506114309250505060408a018a614d69565b8781811061144057611440614dae565b90506020020135613035565b92505060010161126a565b507fff9e16ffdb4688c2ca0a0c2405ef9a7237ef140b3830a164e6a28b69c9895ddc6114838480614d69565b604051611491929190614f13565b60405180910390a15050610c4360015f51602061543d5f395f51905f5255565b6114b9612dd1565b805f036114c557505050565b6001600160a01b038084165f9081526010602052604080822092851682528120600383015490918190036114fb57505050505050565b5f818511611509578461150b565b815b90505f82821461152a57611525828660040154855f612f0c565b611530565b84600401545b905081856003015f8282546115459190614ece565b9250508190555080856004015f82825461155f9190614ece565b9250508190555081846003015f8282546115799190614e18565b9250508190555080846004015f8282546115939190614e18565b90915550505050505050505050565b5f5f5f6115ad6110f9565b9050805f036115cf5760405163772da13960e11b815260040160405180910390fd5b6115dd84825f546001612f0c565b9150815f036115ff5760405163fae8279160e01b815260040160405180910390fd5b6005545f819003611614578293505050915091565b61271081106116365760405163fae8279160e01b815260040160405180910390fd5b61164e836127106116478482614ece565b6001612f0c565b93505050915091565b61166033612f68565b61166b838383612fa6565b505050565b611678612dd1565b6001600160a01b039091165f9081526010602090815260409182902083518155908301516001820155908201516002820155606082015160038201556080820151600482015560a090910151600590910155565b6116d533612f68565b6127108111156116f85760405163138da17760e31b815260040160405180910390fd5b60038190556040518181527f601e6af9a1eaa6a1c282472f960e4f70d707620a2d5320eb83176b21fbb7af599060200160405180910390a150565b5f610f1e600e836134ae565b5f61116a600e6134d2565b61177460405180606001604052805f81526020015f81526020015f6001600160a01b031681525090565b5060408051606081018252600454815260055460208201526006546001600160a01b03169181019190915290565b60605f6117af600e6134d2565b90505f816001600160401b038111156117ca576117ca614a64565b60405190808252806020026020018201604052801561180e57816020015b604080518082019091525f80825260208201528152602001906001900390816117e85790505b5090505f5b82811015611886575f611827600e836134db565b6001600160a01b038082165f818152600d60209081526040918290205482518084019093529282529190921690820181905285519293509185908590811061187157611871614dae565b60209081029190910101525050600101611813565b5092915050565b611895612dd1565b60018460058111156118a9576118a9614f2e565b036118bd576118b883826134e6565b61191c565b60028460058111156118d1576118d1614f2e565b036118df576118b883613636565b60038460058111156118f3576118f3614f2e565b03611903576118b88383836136dc565b60405163263e5e1f60e01b815260040160405180910390fd5b50505050565b5f5f5f835f0361193957505f915081905080611a90565b6001600160a01b0385165f908152601060205260409020600381015485111561196b575f5f5f93509350935050611a90565b5f6119746110f9565b60038301549091505f901561199c57600483015460038401546119999189915f612f0c565b90505b5f80546119ad908990859084612f0c565b905081811115611a8b575f6119c28383614ece565b6004549091506119d682826127105f612f0c565b98508815611a885760405163020c4cb160e21b8152611a79906001600160a01b037f0000000000000000000000000000000000000000000000000000000000000000169063083132c490611a2f90600190600401614f42565b602060405180830381865afa158015611a4a573d5f5f3e3d5ffd5b505050506040513d601f19601f82011682018060405250810190611a6e9190614efc565b8a906127105f612f0c565b9750611a85888a614ece565b96505b50505b505050505b9250925092565b606061116a600e613868565b5f611aac613874565b805490915060ff600160401b82041615906001600160401b03165f81158015611ad25750825b90505f826001600160401b03166001148015611aed5750303b155b905081158015611afb575080155b15611b195760405163f92ee8a960e01b815260040160405180910390fd5b845467ffffffffffffffff191660011785558315611b4357845460ff60401b1916600160401b1785555b6001600160a01b038716611b6a57604051634633ee0160e01b815260040160405180910390fd5b8551151580611b7c57505f8660200151115b8015611b93575060408601516001600160a01b0316155b15611bb15760405163538ba4f960e01b815260040160405180910390fd5b85516127101015611bd557604051638a3ed9a160e01b815260040160405180910390fd5b61271086602001511115611bfc57604051638a3ed9a160e01b815260040160405180910390fd5b611c0461389c565b600180546001600160a01b0319166001600160a01b038916908117909155604080516338d52e0f60e01b815290516338d52e0f916004808201926020929091908290030181865afa158015611c5b573d5f5f3e3d5ffd5b505050506040513d601f19601f82011682018060405250810190611c7f9190614f68565b60025f6101000a8154816001600160a01b0302191690836001600160a01b03160217905550866001600160a01b031663313ce5676040518163ffffffff1660e01b8152600401602060405180830381865afa158015611ce0573d5f5f3e3d5ffd5b505050506040513d601f19601f82011682018060405250810190611d049190614f83565b6002805460ff60a01b1916600160a01b60ff93841681029190911791829055611d3192910416600a615079565b5f90815586516004556020870151600555604080880151600680546001600160a01b0319166001600160a01b039283161790556101f460035560015491519116917f908408e307fc569b417f6cbec5d5a06f44a0a505ac0479b47d421a4b2fd6a1e691a28315611ddb57845460ff60401b19168555604051600181527fc7f505b2f371ae2175ee4913f4499e1f2633a7b5936321eed1cdaeb6115181d29060200160405180910390a15b50505050505050565b611ded33612f68565b612710831115611e1057604051638a3ed9a160e01b815260040160405180910390fd5b612710821115611e3357604051638a3ed9a160e01b815260040160405180910390fd5b6001600160a01b038116611e5a5760405163538ba4f960e01b815260040160405180910390fd5b60408051606081018252848152602081018490526001600160a01b038316910181905260078490556008839055600980546001600160a01b0319169091179055611ea762093a8042614e18565b600a8190556040805185815260208101859052908101919091526001600160a01b038216907fd3ae821e4db28b4e45d34b6440a80d782a5d6c82690bf26c7e8afde075ae9de2906060015b60405180910390a2505050565b611f326040518060c001604052805f81526020015f81526020015f81526020015f81526020015f81526020015f81525090565b506001600160a01b03165f90815260106020908152604091829020825160c08101845281548152600182015492810192909252600281015492820192909252600382015460608201526004820154608082015260059091015460a082015290565b611f9b612dd1565b825f03611fbb5760405163fae8279160e01b815260040160405180910390fd5b6001600160a01b038416611fe25760405163538ba4f960e01b815260040160405180910390fd5b611fea6122f6565b15612008576040516314c45ee560e21b815260040160405180910390fd5b612010612dfe565b6001600160a01b03166381ed8df46040518163ffffffff1660e01b8152600401602060405180830381865afa15801561204b573d5f5f3e3d5ffd5b505050506040513d601f19601f8201168201806040525081019061206f9190614eaf565b1561208d57604051630289fd1f60e21b815260040160405180910390fd5b6005548015612144575f6120a18385614ece565b90508015612142576006546001600160a01b0316806120d35760405163538ba4f960e01b815260040160405180910390fd5b6002546120ea906001600160a01b03168284612f4e565b806001600160a01b0316876001600160a01b03167faa504b22cbdce5a2eefab55773a71cacbdccd9434d9650cedb1fc8f8da51380e8486604051612138929190918252602082015260400190565b60405180910390a3505b505b6001600160a01b0385165f90815260106020526040812060038101805491928792612170908490614e18565b9250508190555082816004015f82825461218a9190614e18565b909155505060408051848152602081018790526001600160a01b038816917fa7a45ea372219103bc7d0bb545ac15937334185abf185241b18414600ed19110910160405180910390a2505050505050565b8260ff166001036121ee5761166b6138ac565b8260ff166002036122015761166b613914565b8260ff166003036122165761166b82826139b4565b8260ff166004036119035761166b613a9d565b5f51602061543d5f395f51905f5280546001190161225a57604051633ee5aeb560e01b815260040160405180910390fd5b60029055565b612268612dfe565b604051639e87cb3f60e01b81526001600160a01b0383811660048301523060248301529190911690639e87cb3f906044015b602060405180830381865afa1580156122b5573d5f5f3e3d5ffd5b505050506040513d601f19601f820116820180604052508101906122d99190614eaf565b610c435760405163e27451cd60e01b815260040160405180910390fd5b5f6122ff612dfe565b60405163180d405d60e31b81523060048201526001600160a01b03919091169063c06a02e890602401602060405180830381865afa158015612343573d5f5f3e3d5ffd5b505050506040513d601f19601f8201168201806040525081019061116a9190614eaf565b604051633e9f324f60e11b81526001600160a01b0382811660048301525f917f000000000000000000000000000000000000000000000000000000000000000090911690637d3e649e906024015b602060405180830381865afa1580156123d0573d5f5f3e3d5ffd5b505050506040513d601f19601f82011682018060405250810190610f1e9190614eaf565b5f6123fd612dfe565b6001600160a01b0316639e7b8c3a306040518060800160405280896001600160a01b03168152602001896001600160a01b0316638c4313c18a6040518263ffffffff1660e01b815260040161245291906150b5565b5f60405180830381865afa15801561246c573d5f5f3e3d5ffd5b505050506040513d5f823e601f3d908101601f191682016040526124939190810190615132565b8152602001878152602001868152506040518363ffffffff1660e01b81526004016124bf929190615193565b602060405180830381865afa1580156124da573d5f5f3e3d5ffd5b505050506040513d601f19601f820116820180604052508101906124fe9190614eaf565b95945050505050565b60408051610160810182525f808252602080830182905282840182905260608084018390526080840183905260a0840183905260c0840183905260e0840183905261010084015261014083018290526001600160a01b0388166101208401819052845163e445e7dd60e01b815294519294909263e445e7dd926004808401939192918290030181865afa1580156125a0573d5f5f3e3d5ffd5b505050506040513d601f19601f820116820180604052508101906125c49190615211565b81610140019060028111156125db576125db614f2e565b908160028111156125ee576125ee614f2e565b9052506002816101400151600281111561260a5761260a614f2e565b1461262857604051630c9ccb5560e01b815260040160405180910390fd5b61263185613b02565b6001600160a01b0390811660208084018290525f918252600d905260409020541661266f57604051636fdb40e360e01b815260040160405180910390fd5b60405163562207b960e11b81526001600160a01b0387169063ac440f729061269b9088906004016150b5565b602060405180830381865afa1580156126b6573d5f5f3e3d5ffd5b505050506040513d601f19601f820116820180604052508101906126da9190614efc565b608082018190525f80546126f19291869190612f0c565b60a082019081526002546001600160a01b0390811660408085019182526020808601805185165f908152600d9092529082902054905192519451915163015bc50f60e21b815292841660048401529383166024830152604482015291169063056f143c90606401602060405180830381865afa158015612773573d5f5f3e3d5ffd5b505050506040513d601f19601f820116820180604052508101906127979190614efc565b60c08201819052604051633a28b0ab60e01b81526001600160a01b03881691633a28b0ab916127ca91899160040161522f565b5f60405180830381865afa1580156127e4573d5f5f3e3d5ffd5b505050506040513d5f823e601f3d908101601f1916820160405261280b9190810190615132565b945061281b816040015130613b0e565b60e08201526101208101516040516314cb37cf60e01b81523060048201526001600160a01b03909116906314cb37cf906024015f604051808303815f87803b158015612865575f5ffd5b505af1158015612877573d5f5f3e3d5ffd5b505050508061012001516001600160a01b0316633b5896bc5f30886040518463ffffffff1660e01b81526004016128b093929190615250565b5f60405180830381865afa1580156128ca573d5f5f3e3d5ffd5b505050506040513d5f823e601f3d908101601f191682016040526128f1919081019061527b565b6101008201525f5b816101000151518110156129cc57816101000151818151811061291e5761291e614dae565b60200260200101515f01516001600160a01b0316826101000151828151811061294957612949614dae565b6020026020010151604001516040516129629190615399565b5f604051808303815f865af19150503d805f811461299b576040519150601f19603f3d011682016040523d82523d5f602084013e6129a0565b606091505b505015158083526129c457604051636e46c03f60e11b815260040160405180910390fd5b6001016128f9565b5061012081015160405163d06a1e8960e01b81523060048201526001600160a01b039091169063d06a1e89906024015f604051808303815f87803b158015612a12575f5ffd5b505af1158015612a24573d5f5f3e3d5ffd5b505050508060e00151612a3b826040015130613b0e565b612a459190614ece565b606082018190525f03612a6b576040516348d198fd60e11b815260040160405180910390fd5b612a786064612710614ece565b612a8290856153af565b6127108260600151612a9491906153af565b1015612ab357604051631effb52960e21b815260040160405180910390fd5b80602001516001600160a01b0316866001600160a01b03167f8965eeca9fa7abfe57ce06ca140a412809309fe05703f910e28d53e9e8ec8ba187604051612afa91906150b5565b60405180910390a36080015195945050505050565b5f80846001600160401b03811115612b2957612b29614a64565b604051908082528060200260200182016040528015612b52578160200160208202803683370190505b5090505f5b85811015612bf85760105f898984818110612b7457612b74614dae565b9050602002016020810190612b899190614b7b565b6001600160a01b03166001600160a01b031681526020019081526020015f205f0154828281518110612bbd57612bbd614dae565b602002602001018181525050818181518110612bdb57612bdb614dae565b602002602001015183612bee9190614e18565b9250600101612b57565b5081612c05600a86614e18565b1015612c245760405163f5b5ae4760e01b815260040160405180910390fd5b5f5b858110156110ef575f60105f8a8a85818110612c4457612c44614dae565b9050602002016020810190612c599190614b7b565b6001600160a01b03166001600160a01b031681526020019081526020015f2090505f8160020154118015612c8e57505f600354115b15612ce457600281015480861015612ce2575f612cbb6127108383612cb38b83614ece565b929190612f0c565b9050600354811115612ce0576040516312df189360e31b815260040160405180910390fd5b505b505b5f612d0982858581518110612cfb57612cfb614dae565b602002602001015188613b79565b9050838381518110612d1d57612d1d614dae565b6020026020010151825f015f828254612d369190614ece565b9250508190555080826001015f828254612d509190614e18565b90915550505f6002830155612db48a8a85818110612d7057612d70614dae565b9050602002016020810190612d859190614b7b565b82868681518110612d9857612d98614dae565b6020026020010151856005015486600301548760040154613bb1565b5050600101612c26565b60015f51602061543d5f395f51905f5255565b6001546001600160a01b03163314612dfc576040516395383ea160e01b815260040160405180910390fd5b565b5f5f7f00000000000000000000000000000000000000000000000000000000000000006001600160a01b03166321f8a7217f00000000000000000000000000000000000000000000000000000000000000006001600160a01b031663c98388196040518163ffffffff1660e01b8152600401602060405180830381865afa158015612e8b573d5f5f3e3d5ffd5b505050506040513d601f19601f82011682018060405250810190612eaf9190614efc565b6040518263ffffffff1660e01b8152600401612ecd91815260200190565b602060405180830381865afa158015612ee8573d5f5f3e3d5ffd5b505050506040513d601f19601f82011682018060405250810190610f1e9190614f68565b5f612f39612f1983613c36565b8015612f3457505f8480612f2f57612f2f6153c6565b868809115b151590565b612f44868686613c62565b6124fe9190614e18565b801561166b5761166b6001600160a01b0384168383613d12565b612f70612dfe565b6040516375c8d4d960e11b81526001600160a01b038381166004830152306024830152919091169063eb91a9b29060440161229a565b8060ff165f03612fba5761166b8383613d64565b8060ff16600103612fcf5761166b8383613e70565b8060ff166002036119035761166b83613f2d565b60405163032eb40360e21b81526001600160a01b0382811660048301525f917f000000000000000000000000000000000000000000000000000000000000000090911690630cbad00c906024016123b5565b6040805160a0810182525f808252602082018190529181018290526060608082018190526001600160a01b0387169082015261307084613b02565b6001600160a01b0390811660208084018290525f918252600d90526040902054166130ae57604051636fdb40e360e01b815260040160405180910390fd5b5f6130b98786613fe7565b90508080156130d057506001600160a01b03861615155b15613152576130de86614060565b60408301525f84900361310457604051636482e44d60e11b815260040160405180910390fd5b5f6131126064612710614ece565b61311c90866153af565b905080612710846040015161313191906153af565b101561315057604051633cdcaf0560e11b815260040160405180910390fd5b505b60608201516040516314cb37cf60e01b81523060048201526001600160a01b03909116906314cb37cf906024015f604051808303815f87803b158015613196575f5ffd5b505af11580156131a8573d5f5f3e3d5ffd5b5050505081606001516001600160a01b0316633b5896bc8730886040518463ffffffff1660e01b81526004016131e093929190615250565b5f60405180830381865afa1580156131fa573d5f5f3e3d5ffd5b505050506040513d5f823e601f3d908101601f19168201604052613221919081019061527b565b60808301525f5b82608001515181101561331b578260800151818151811061324b5761324b614dae565b60200260200101515f01516001600160a01b03168360800151828151811061327557613275614dae565b6020026020010151602001518460800151838151811061329757613297614dae565b6020026020010151604001516040516132b09190615399565b5f6040518083038185875af1925050503d805f81146132ea576040519150601f19603f3d011682016040523d82523d5f602084013e6132ef565b606091505b5050151580845261331357604051636e46c03f60e11b815260040160405180910390fd5b600101613228565b50606082015160405163d06a1e8960e01b81523060048201526001600160a01b039091169063d06a1e89906024015f604051808303815f87803b158015613360575f5ffd5b505af1158015613372573d5f5f3e3d5ffd5b50506040516381cbe69160e01b81523060048201525f92506001600160a01b038a1691506381cbe69190602401602060405180830381865afa1580156133ba573d5f5f3e3d5ffd5b505050506040513d601f19601f820116820180604052508101906133de9190614efc565b9050805f03613400576040516348d198fd60e11b815260040160405180910390fd5b5f61271061340f606482614ece565b61341990886153af565b61342391906153da565b90508082101561344657604051631effb52960e21b815260040160405180910390fd5b83602001516001600160a01b0316886001600160a01b03168a6001600160a01b03167fedec66be61a678e975773689d9e1b08597890550d0a45c11e6e4014a7a67c713868b6040516134999291906153ed565b60405180910390a45096979650505050505050565b6001600160a01b0381165f90815260018301602052604081205415155b9392505050565b5f610f1e825490565b5f6134cb83836140c8565b805f036135065760405163fae8279160e01b815260040160405180910390fd5b6001600160a01b03821661352d5760405163538ba4f960e01b815260040160405180910390fd5b6001600160a01b0382165f908152601060205260408120600381015490910361356957604051634876fe0560e01b815260040160405180910390fd5b5f6135726110f9565b9050805f036135945760405163772da13960e11b815260040160405180910390fd5b8154156135e55781545f6135a88583614e18565b9050806135b584876153af565b60028601546135c490856153af565b6135ce9190614e18565b6135d891906153da565b60028501558355506135f0565b828255600282018190555b6040518381526001600160a01b0385169081907fbeb06d4f35e676c2ef7181fbfd7bf2499fe739db0a96517ae96c40ebaf2f5c6b9060200160405180910390a350505050565b6001600160a01b03811661365d5760405163538ba4f960e01b815260040160405180910390fd5b6001600160a01b0381165f9081526010602052604081208054909181900361369857604051630d607b1d60e01b815260040160405180910390fd5b5f80835560028301556040518181526001600160a01b038416907f95c79fa73e29b5366d4d76636d7cee6df5062a878e67ddfaa9685f3a4b0ccc9390602001611ef2565b805f036136fc5760405163fae8279160e01b815260040160405180910390fd5b6001600160a01b0383166137235760405163538ba4f960e01b815260040160405180910390fd5b6001600160a01b038381165f9081526010602052604080822060025491516370a0823160e01b8152306004820152909385939216906370a0823190602401602060405180830381865afa15801561377c573d5f5f3e3d5ffd5b505050506040513d601f19601f820116820180604052508101906137a09190614efc565b905080841180156137bb5750600a6137b88286614ece565b11155b156137c4578091505b81836001015410156137e9576040516303da8cc560e51b815260040160405180910390fd5b81836001015f8282546137fc9190614ece565b9091555050600254613818906001600160a01b03168684613d12565b604080518381525f60208201526001600160a01b0380891692908816917f24111f527e6debb0efcfd4c847fc0ae4d8858cdfc72cc2fce0e757a3fce414f7910160405180910390a3505050505050565b60605f6134cb836140ee565b5f807ff0c57e16840df040f15088dc2f81fe391c3923bec73e23a9662efc9c229c6a00610f1e565b6138a4614147565b612dfc61416c565b6138b533612f68565b600b805461ff0019166101001790556138d162093a8042614e18565b600c819055604080516001815260208101929092527fbc62dd7af2eb8726f42cc4e918aa6def7d921717520ada8d161a1c434346533091015b60405180910390a1565b600c545f0361393657604051631eebf9c160e11b815260040160405180910390fd5b600c544210156139595760405163118818d160e01b815260040160405180910390fd5b600b805461ffff19811661010090910460ff908116151561ff00198116929092179092555f600c556040519116151581527fe87478340fab7d5135af4c3a430eee25d6f3d97e0039b5b7b133db4106857b799060200161390a565b6139bd33612f68565b600b5460ff166139e057604051634afafa9360e11b815260040160405180910390fd5b6001600160a01b038216613a075760405163538ba4f960e01b815260040160405180910390fd5b6002545f90613a1f906001600160a01b031630613b0e565b9050811580613a2d57508082115b15613a4b57604051631cf2628760e31b815260040160405180910390fd5b600254613a62906001600160a01b03168484612f4e565b826001600160a01b03167f23d6711a1d031134a36921253c75aa59e967d38e369ac625992824315e204f2083604051611ef291815260200190565b613aa633612f68565b600c545f03613ac857604051631eebf9c160e11b815260040160405180910390fd5b600b805461ff00191690555f600c8190556040517f7340fc19414552b0cb2f3d5eeb6ad91924d74196a4fcc8aca9e34052f40a8e5a9190a1565b5f610f1e826020614174565b6040516370a0823160e01b81526001600160a01b0382811660048301525f91908416906370a0823190602401602060405180830381865afa158015613b55573d5f5f3e3d5ffd5b505050506040513d601f19601f820116820180604052508101906134cb9190614efc565b5f5f613b8585856141dd565b90505f613b93858584614253565b935090508415613ba857613ba88686836142aa565b50509392505050565b600154604051630c0b430960e01b81526001600160a01b0388811660048301526024820188905260448201879052606482018690526084820185905260a4820184905290911690630c0b43099060c4015f604051808303815f87803b158015613c18575f5ffd5b505af1158015613c2a573d5f5f3e3d5ffd5b50505050505050505050565b5f6002826003811115613c4b57613c4b614f2e565b613c559190615407565b60ff166001149050919050565b5f5f5f613c6f8686614330565b91509150815f03613c9357838181613c8957613c896153c6565b04925050506134cb565b818411613caa57613caa600385150260111861434c565b5f848688095f868103871696879004966002600389028118808a02820302808a02820302808a02820302808a02820302808a02820302808a02909103029181900381900460010185841190960395909502919093039390930492909217029150509392505050565b604080516001600160a01b038416602482015260448082018490528251808303909101815260649091019091526020810180516001600160e01b031663a9059cbb60e01b17905261166b90849061435d565b6001600160a01b0382161580613d8157506001600160a01b038116155b15613d9f5760405163538ba4f960e01b815260040160405180910390fd5b6001600160a01b038281165f908152600d60205260409020541615613dd75760405163c19a488560e01b815260040160405180910390fd5b6001600160a01b038281165f908152600d6020526040902080546001600160a01b031916918316919091179055613e0f600e836143c9565b613e2c5760405163c19a488560e01b815260040160405180910390fd5b806001600160a01b0316826001600160a01b03167fe707395e33aba2b86eeb8427d34294bf318cfbc202805d3452f1f9a753bb77bc60405160405180910390a35050565b6001600160a01b038116613e975760405163538ba4f960e01b815260040160405180910390fd5b6001600160a01b038083165f908152600d60205260409020541680613ecf57604051636fdb40e360e01b815260040160405180910390fd5b6001600160a01b038381165f818152600d602052604080822080546001600160a01b03191687861690811790915590519093851692917f850afc8bf4c49f8b6f53abfe029a2997d0a83103e3ad01b1e95e7ffb6470be6d91a4505050565b6001600160a01b038181165f908152600d602052604090205416613f6457604051636fdb40e360e01b815260040160405180910390fd5b6001600160a01b0381165f908152600d6020526040902080546001600160a01b0319169055613f94600e826143dd565b613fb157604051636fdb40e360e01b815260040160405180910390fd5b6040516001600160a01b038216907fe7816966a8707500235695bccaf160aa49f5d2cb6356db2408ded57832c8b916905f90a250565b60405163e774551760e01b81525f906001600160a01b0384169063e7745517906140159085906004016150b5565b602060405180830381865afa92505050801561404e575060408051601f3d908101601f1916820190925261404b91810190614eaf565b60015b61405957505f610f1e565b9050610f1e565b6040516381cbe69160e01b81523060048201525f906001600160a01b038316906381cbe69190602401602060405180830381865afa1580156140a4573d5f5f3e3d5ffd5b505050506040513d601f19601f82011682018060405250810190610f1e9190614efc565b5f825f0182815481106140dd576140dd614dae565b905f5260205f200154905092915050565b6060815f0180548060200260200160405190810160405280929190818152602001828054801561413b57602002820191905f5260205f20905b815481526020019060010190808311614127575b50505050509050919050565b61414f6143f1565b612dfc57604051631afcd79f60e31b815260040160405180910390fd5b612dbe614147565b5f614180826014614e18565b835110156141cd5760405162461bcd60e51b8152602060048201526015602482015274746f416464726573735f6f75744f66426f756e647360581b60448201526064015b60405180910390fd5b500160200151600160601b900490565b5f826003015482111561420357604051634876fe0560e01b815260040160405180910390fd5b600483015460038401546142199184915f612f0c565b905081836003015f82825461422e9190614ece565b9250508190555080836004015f8282546142489190614ece565b909155505092915050565b5f80548190614266908690869084612f0c565b9150614272828461440a565b6002549091505f9061428d906001600160a01b031630613b0e565b905080821161429c578161429e565b805b9150505b935093915050565b5f5f5f85600101541180156142c257505f8560050154115b156142f1576142e75f5486600501545f8860010154612f0c909392919063ffffffff16565b9150846001015490505b5f6142fc8584614e18565b90505f6143098584614e18565b90508115611ddb575f8054614322918391908590612f0c565b600588015550505050505050565b5f805f1983850993909202808410938190039390930393915050565b634e487b715f52806020526024601cfd5b5f5f60205f8451602086015f885af18061437c576040513d5f823e3d81fd5b50505f513d915081156143935780600114156143a0565b6001600160a01b0384163b155b1561191c57604051635274afe760e01b81526001600160a01b03851660048201526024016141c4565b5f6134cb836001600160a01b0384166146fd565b5f6134cb836001600160a01b038416614749565b5f6143fa613874565b54600160401b900460ff16919050565b8181811115610f1e575f61441e8385614ece565b6004549091505f614433838361271084612f0c565b905080156146f4575f6144d67f00000000000000000000000000000000000000000000000000000000000000006001600160a01b031663083132c460016040518263ffffffff1660e01b815260040161448c9190614f42565b602060405180830381865afa1580156144a7573d5f5f3e3d5ffd5b505050506040513d601f19601f820116820180604052508101906144cb9190614efc565b83906127105f612f0c565b90505f6144e38284614ece565b90508115614658575f7f00000000000000000000000000000000000000000000000000000000000000006001600160a01b03166321f8a7217f00000000000000000000000000000000000000000000000000000000000000006001600160a01b0316632d2c55656040518163ffffffff1660e01b8152600401602060405180830381865afa158015614577573d5f5f3e3d5ffd5b505050506040513d601f19601f8201168201806040525081019061459b9190614efc565b6040518263ffffffff1660e01b81526004016145b991815260200190565b602060405180830381865afa1580156145d4573d5f5f3e3d5ffd5b505050506040513d601f19601f820116820180604052508101906145f89190614f68565b600254909150614612906001600160a01b03168285612f4e565b60408051848152602081018790526001600160a01b038316917ff3816d9cce3442fbfe3e4d36ad047b3362efdc9f2e283e77b0ecd768a0a01ef2910160405180910390a2505b80156146e5576006546001600160a01b0316806146885760405163538ba4f960e01b815260040160405180910390fd5b60025461469f906001600160a01b03168284612f4e565b60408051838152602081018790526001600160a01b038316917ff3816d9cce3442fbfe3e4d36ad047b3362efdc9f2e283e77b0ecd768a0a01ef2910160405180910390a2505b6146ef8387614ece565b955050505b50505092915050565b5f81815260018301602052604081205461474257508154600181810184555f848152602080822090930184905584548482528286019093526040902091909155610f1e565b505f610f1e565b5f8181526001830160205260408120548015614823575f61476b600183614ece565b85549091505f9061477e90600190614ece565b90508082146147dd575f865f01828154811061479c5761479c614dae565b905f5260205f200154905080875f0184815481106147bc576147bc614dae565b5f918252602080832090910192909255918252600188019052604090208390555b85548690806147ee576147ee615428565b600190038181905f5260205f20015f90559055856001015f8681526020019081526020015f205f905560019350505050610f1e565b5f915050610f1e565b5f6020828403121561483c575f5ffd5b81356001600160401b03811115614851575f5ffd5b820160c081850312156134cb575f5ffd5b6001600160a01b0381168114610c43575f5ffd5b5f5f60408385031215614887575f5ffd5b823561489281614862565b946020939093013593505050565b5f5f83601f8401126148b0575f5ffd5b5081356001600160401b038111156148c6575f5ffd5b6020830191508360208260051b85010111156148e0575f5ffd5b9250929050565b5f5f5f5f5f5f606087890312156148fc575f5ffd5b86356001600160401b03811115614911575f5ffd5b61491d89828a016148a0565b90975095505060208701356001600160401b0381111561493b575f5ffd5b61494789828a016148a0565b90955093505060408701356001600160401b03811115614965575f5ffd5b61497189828a016148a0565b979a9699509497509295939492505050565b5f60208284031215614993575f5ffd5b81356001600160401b038111156149a8575f5ffd5b820160a081850312156134cb575f5ffd5b5f5f5f606084860312156149cb575f5ffd5b83356149d681614862565b925060208401356149e681614862565b929592945050506040919091013590565b5f60208284031215614a07575f5ffd5b5035919050565b60ff81168114610c43575f5ffd5b5f5f5f60608486031215614a2e575f5ffd5b8335614a3981614862565b92506020840135614a4981614862565b91506040840135614a5981614a0e565b809150509250925092565b634e487b7160e01b5f52604160045260245ffd5b60405160c081016001600160401b0381118282101715614a9a57614a9a614a64565b60405290565b604051606081016001600160401b0381118282101715614a9a57614a9a614a64565b604051601f8201601f191681016001600160401b0381118282101715614aea57614aea614a64565b604052919050565b5f5f82840360e0811215614b04575f5ffd5b8335614b0f81614862565b925060c0601f1982011215614b22575f5ffd5b50614b2b614a78565b602084810135825260408086013591830191909152606080860135918301919091526080808601359183019190915260a0808601359183019190915260c090940135938101939093525092909150565b5f60208284031215614b8b575f5ffd5b81356134cb81614862565b602080825282518282018190525f918401906040840190835b81811015614be557835180516001600160a01b039081168552602091820151168185015290930192604090920191600101614baf565b509095945050505050565b5f5f5f5f60808587031215614c03575f5ffd5b843560068110614c11575f5ffd5b93506020850135614c2181614862565b92506040850135614c3181614862565b9396929550929360600135925050565b602080825282518282018190525f918401906040840190835b81811015614be55783516001600160a01b0316835260209384019390920191600101614c5a565b5f5f8284036080811215614c93575f5ffd5b8335614c9e81614862565b92506060601f1982011215614cb1575f5ffd5b50614cba614aa0565b60208481013582526040850135908201526060840135614cd981614862565b6040820152919491935090915050565b5f5f5f60608486031215614cfb575f5ffd5b83359250602084013591506040840135614a5981614862565b5f5f5f5f60808587031215614d27575f5ffd5b8435614d3281614862565b966020860135965060408601359560600135945092505050565b5f5f5f60608486031215614d5e575f5ffd5b83356149d681614a0e565b5f5f8335601e19843603018112614d7e575f5ffd5b8301803591506001600160401b03821115614d97575f5ffd5b6020019150600581901b36038213156148e0575f5ffd5b634e487b7160e01b5f52603260045260245ffd5b5f5f8335601e19843603018112614dd7575f5ffd5b8301803591506001600160401b03821115614df0575f5ffd5b6020019150368190038213156148e0575f5ffd5b634e487b7160e01b5f52601160045260245ffd5b80820180821115610f1e57610f1e614e04565b8183526020830192505f815f5b84811015614e69578135614e4b81614862565b6001600160a01b031686526020958601959190910190600101614e38565b5093949350505050565b608081525f614e8660808301888a614e2b565b8281036020840152614e99818789614e2b565b6040840195909552505060600152949350505050565b5f60208284031215614ebf575f5ffd5b815180151581146134cb575f5ffd5b81810381811115610f1e57610f1e614e04565b5f60208284031215614ef1575f5ffd5b81356134cb81614a0e565b5f60208284031215614f0c575f5ffd5b5051919050565b602081525f614f26602083018486614e2b565b949350505050565b634e487b7160e01b5f52602160045260245ffd5b6020810160038310614f6257634e487b7160e01b5f52602160045260245ffd5b91905290565b5f60208284031215614f78575f5ffd5b81516134cb81614862565b5f60208284031215614f93575f5ffd5b81516134cb81614a0e565b6001815b60018411156142a257808504811115614fbd57614fbd614e04565b6001841615614fcb57908102905b60019390931c928002614fa2565b5f82614fe757506001610f1e565b81614ff357505f610f1e565b816001811461500957600281146150135761502f565b6001915050610f1e565b60ff84111561502457615024614e04565b50506001821b610f1e565b5060208310610133831016604e8410600b8410161715615052575081810a610f1e565b61505e5f198484614f9e565b805f190482111561507157615071614e04565b029392505050565b5f6134cb60ff841683614fd9565b5f81518084528060208401602086015e5f602082860101526020601f19601f83011685010191505092915050565b602081525f6134cb6020830184615087565b5f82601f8301126150d6575f5ffd5b81516001600160401b038111156150ef576150ef614a64565b615102601f8201601f1916602001614ac2565b818152846020838601011115615116575f5ffd5b8160208501602083015e5f918101602001919091529392505050565b5f60208284031215615142575f5ffd5b81516001600160401b03811115615157575f5ffd5b614f26848285016150c7565b5f8151808452602084019350602083015f5b82811015614e69578151865260209586019590910190600101615175565b6001600160a01b03838116825260406020808401829052845190921690830152820151608060608301525f906151cc60c0840182615087565b90506040840151603f198483030160808501526151e98282615163565b9150506060840151603f198483030160a08501526152078282615163565b9695505050505050565b5f60208284031215615221575f5ffd5b8151600381106134cb575f5ffd5b604081525f6152416040830185615087565b90508260208301529392505050565b6001600160a01b038481168252831660208201526060604082018190525f906124fe90830184615087565b5f6020828403121561528b575f5ffd5b81516001600160401b038111156152a0575f5ffd5b8201601f810184136152b0575f5ffd5b80516001600160401b038111156152c9576152c9614a64565b8060051b6152d960208201614ac2565b918252602081840181019290810190878411156152f4575f5ffd5b6020850192505b8383101561538e5782516001600160401b03811115615318575f5ffd5b85016060818a03601f1901121561532d575f5ffd5b615335614aa0565b602082015161534381614862565b81526040820151602082015260608201516001600160401b03811115615367575f5ffd5b6153768b6020838601016150c7565b604083015250835250602092830192909101906152fb565b979650505050505050565b5f82518060208501845e5f920191825250919050565b8082028115828204841417610f1e57610f1e614e04565b634e487b7160e01b5f52601260045260245ffd5b5f826153e8576153e86153c6565b500490565b8215158152604060208201525f614f266040830184615087565b5f60ff831680615419576154196153c6565b8060ff84160691505092915050565b634e487b7160e01b5f52603160045260245ffdfe9b779b17422d0df92223018b32b4d1fa46e071723d6817e2486d003becc55f00a164736f6c634300081e000a","linkReferences":{}},"methodIdentifiers":{"PRECISION()":"aaf5eb68","claimableWithdraw(address)":"dc697818","containsYieldSource(address)":"63ee53de","emergencyWithdrawable()":"3e9d39ab","emergencyWithdrawableEffectiveTime()":"56bd1148","executeHooks((address[],bytes[],uint256[],bytes32[][],bytes32[][]))":"2f82b89a","executeVaultFeeConfigUpdate()":"1aa7d751","fulfillRedeemRequests((address[],address[],bytes[],uint256[],bytes32[][],bytes32[][]))":"1140092c","getAverageWithdrawPrice(address)":"cd773844","getConfigInfo()":"78a1bf05","getStoredPPS()":"2653517d","getSuperVaultState(address)":"d48c7bf9","getVaultInfo()":"7f98aa71","getYieldSource(address)":"6bccefbd","getYieldSources()":"c1249ab1","getYieldSourcesCount()":"70edf859","getYieldSourcesList()":"7b26e709","handleOperations4626Deposit(address,uint256)":"1744700a","handleOperations4626Mint(address,uint256,uint256,uint256)":"e7a5befa","handleOperations7540(uint8,address,address,uint256)":"90b386ef","initialize(address,(uint256,uint256,address))":"c9dd181e","manageEmergencyWithdraw(uint8,address,uint256)":"f4b3ea58","manageYieldSource(address,address,uint8)":"4da6172a","manageYieldSources(address[],address[],uint8[])":"1eaed011","moveAccumulatorOnTransfer(address,address,uint256)":"40f0e2f9","pendingRedeemRequest(address)":"53dc1dd3","previewPerformanceFee(address,uint256)":"a660de9f","proposeVaultFeeConfigUpdate(uint256,uint256,address)":"d324e15b","proposedEmergencyWithdrawable()":"1ac69304","quoteMintAssetsGross(uint256)":"49de7afb","superGovernor()":"3289cbfb","updateMaxPPSSlippage(uint256)":"545fe28a","updateSuperVaultState(address,(uint256,uint256,uint256,uint256,uint256,uint256))":"53c71a6b"},"id":463}